{
    "_format": "hh-sol-artifact-1",
    "contractName": "Hasher",
    "sourceName": "contracts/Hasher.sol",
    "abi": [
        {
            "inputs": [
                {
                    "components": [
                        {
                            "internalType": "uint256",
                            "name": "globalStateTree",
                            "type": "uint256"
                        },
                        {
                            "internalType": "uint256",
                            "name": "epoch",
                            "type": "uint256"
                        },
                        {
                            "internalType": "uint256",
                            "name": "epochKey",
                            "type": "uint256"
                        },
                        {
                            "internalType": "uint256[8]",
                            "name": "proof",
                            "type": "uint256[8]"
                        }
                    ],
                    "internalType": "struct UnirepObjs.EpochKeyProof",
                    "name": "_input",
                    "type": "tuple"
                }
            ],
            "name": "hashEpochKeyProof",
            "outputs": [
                {
                    "internalType": "bytes32",
                    "name": "",
                    "type": "bytes32"
                }
            ],
            "stateMutability": "pure",
            "type": "function"
        },
        {
            "inputs": [
                {
                    "internalType": "uint256",
                    "name": "_outputBlindedUserState",
                    "type": "uint256"
                },
                {
                    "internalType": "uint256",
                    "name": "_outputBlindedHashChain",
                    "type": "uint256"
                },
                {
                    "internalType": "uint256",
                    "name": "_inputBlindedUserState",
                    "type": "uint256"
                },
                {
                    "internalType": "uint256[8]",
                    "name": "_proof",
                    "type": "uint256[8]"
                }
            ],
            "name": "hashProcessAttestationsProof",
            "outputs": [
                {
                    "internalType": "bytes32",
                    "name": "",
                    "type": "bytes32"
                }
            ],
            "stateMutability": "pure",
            "type": "function"
        },
        {
            "inputs": [
                {
                    "components": [
                        {
                            "internalType": "uint256[]",
                            "name": "repNullifiers",
                            "type": "uint256[]"
                        },
                        {
                            "internalType": "uint256",
                            "name": "epoch",
                            "type": "uint256"
                        },
                        {
                            "internalType": "uint256",
                            "name": "epochKey",
                            "type": "uint256"
                        },
                        {
                            "internalType": "uint256",
                            "name": "globalStateTree",
                            "type": "uint256"
                        },
                        {
                            "internalType": "uint256",
                            "name": "attesterId",
                            "type": "uint256"
                        },
                        {
                            "internalType": "uint256",
                            "name": "proveReputationAmount",
                            "type": "uint256"
                        },
                        {
                            "internalType": "uint256",
                            "name": "minRep",
                            "type": "uint256"
                        },
                        {
                            "internalType": "uint256",
                            "name": "proveGraffiti",
                            "type": "uint256"
                        },
                        {
                            "internalType": "uint256",
                            "name": "graffitiPreImage",
                            "type": "uint256"
                        },
                        {
                            "internalType": "uint256[8]",
                            "name": "proof",
                            "type": "uint256[8]"
                        }
                    ],
                    "internalType": "struct UnirepObjs.ReputationProof",
                    "name": "_input",
                    "type": "tuple"
                }
            ],
            "name": "hashReputationProof",
            "outputs": [
                {
                    "internalType": "bytes32",
                    "name": "",
                    "type": "bytes32"
                }
            ],
            "stateMutability": "pure",
            "type": "function"
        },
        {
            "inputs": [
                {
                    "components": [
                        {
                            "internalType": "uint256",
                            "name": "epoch",
                            "type": "uint256"
                        },
                        {
                            "internalType": "uint256",
                            "name": "epochKey",
                            "type": "uint256"
                        },
                        {
                            "internalType": "uint256",
                            "name": "globalStateTree",
                            "type": "uint256"
                        },
                        {
                            "internalType": "uint256",
                            "name": "attesterId",
                            "type": "uint256"
                        },
                        {
                            "internalType": "uint256",
                            "name": "userHasSignedUp",
                            "type": "uint256"
                        },
                        {
                            "internalType": "uint256[8]",
                            "name": "proof",
                            "type": "uint256[8]"
                        }
                    ],
                    "internalType": "struct UnirepObjs.SignUpProof",
                    "name": "_input",
                    "type": "tuple"
                }
            ],
            "name": "hashSignUpProof",
            "outputs": [
                {
                    "internalType": "bytes32",
                    "name": "",
                    "type": "bytes32"
                }
            ],
            "stateMutability": "pure",
            "type": "function"
        },
        {
            "inputs": [
                {
                    "internalType": "uint256",
                    "name": "_blindedUserState",
                    "type": "uint256"
                },
                {
                    "internalType": "uint256",
                    "name": "_blindedHashChain",
                    "type": "uint256"
                },
                {
                    "internalType": "uint256",
                    "name": "_globalStateTree",
                    "type": "uint256"
                },
                {
                    "internalType": "uint256[8]",
                    "name": "_proof",
                    "type": "uint256[8]"
                }
            ],
            "name": "hashStartTransitionProof",
            "outputs": [
                {
                    "internalType": "bytes32",
                    "name": "",
                    "type": "bytes32"
                }
            ],
            "stateMutability": "pure",
            "type": "function"
        },
        {
            "inputs": [
                {
                    "components": [
                        {
                            "internalType": "uint256",
                            "name": "newGlobalStateTreeLeaf",
                            "type": "uint256"
                        },
                        {
                            "internalType": "uint256[]",
                            "name": "epkNullifiers",
                            "type": "uint256[]"
                        },
                        {
                            "internalType": "uint256",
                            "name": "transitionFromEpoch",
                            "type": "uint256"
                        },
                        {
                            "internalType": "uint256[]",
                            "name": "blindedUserStates",
                            "type": "uint256[]"
                        },
                        {
                            "internalType": "uint256",
                            "name": "fromGlobalStateTree",
                            "type": "uint256"
                        },
                        {
                            "internalType": "uint256[]",
                            "name": "blindedHashChains",
                            "type": "uint256[]"
                        },
                        {
                            "internalType": "uint256",
                            "name": "fromEpochTree",
                            "type": "uint256"
                        },
                        {
                            "internalType": "uint256[8]",
                            "name": "proof",
                            "type": "uint256[8]"
                        }
                    ],
                    "internalType": "struct UnirepObjs.UserTransitionProof",
                    "name": "_input",
                    "type": "tuple"
                }
            ],
            "name": "hashUserStateTransitionProof",
            "outputs": [
                {
                    "internalType": "bytes32",
                    "name": "",
                    "type": "bytes32"
                }
            ],
            "stateMutability": "pure",
            "type": "function"
        }
    ],
    "bytecode": "0x608060405234801561001057600080fd5b5061082e806100206000396000f3fe608060405234801561001057600080fd5b50600436106100625760003560e01c806305d9ab82146100675780639e2e79dc14610090578063a14a9fe2146100a3578063ad944e47146100b6578063cd5032e2146100c9578063e79e23e9146100dc575b600080fd5b61007a610075366004610313565b6100ef565b60405161008791906107a8565b60405180910390f35b61007a61009e3660046105ca565b610135565b61007a6100b1366004610498565b61016e565b61007a6100c4366004610360565b6101a8565b61007a6100d7366004610437565b6101ee565b61007a6100ea366004610585565b61021e565b600081600001518260200151836040015184606001516040516020016101189493929190610744565b604051602081830303815290604052805190602001209050919050565b60008484848460405160200161014e9493929190610744565b604051602081830303815290604052805190602001209050949350505050565b80516020808301516040808501516060860151608087015160a088015160c089015160e08a015195516000996101189990989791016106c0565b80516020808301516040808501516060860151608087015160a088015160c089015160e08a01516101008b01516101208c0151975160009b6101189b909a999101610665565b80516020808301516040808501516060860151608087015160a0880151935160009761011897909695910161076f565b60008484848460405160200161014e9493929190610718565b600082601f830112610247578081fd5b610100610253816107b1565b8084868487011115610263578485fd5b8493505b600884101561028757803583526001939093019260209283019201610267565b5095945050505050565b600082601f8301126102a1578081fd5b8135602067ffffffffffffffff8211156102bd576102bd6107e2565b8082026102cb8282016107b1565b8381528281019086840183880185018910156102e5578687fd5b8693505b858410156103075780358352600193909301929184019184016102e9565b50979650505050505050565b60006101608284031215610325578081fd5b61032f60806107b1565b8235815260208301356020820152604083013560408201526103548460608501610237565b60608201529392505050565b600060208284031215610371578081fd5b813567ffffffffffffffff80821115610388578283fd5b90830190610220828603121561039c578283fd5b6103a76101406107b1565b8235828111156103b5578485fd5b6103c187828601610291565b8252506020830135602082015260408301356040820152606083013560608201526080830135608082015260a083013560a082015260c083013560c082015260e083013560e082015261010091508183013582820152610120915061042886838501610237565b91810191909152949350505050565b60006101a08284031215610449578081fd5b61045360c06107b1565b823581526020830135602082015260408301356040820152606083013560608201526080830135608082015261048c8460a08501610237565b60a08201529392505050565b6000602082840312156104a9578081fd5b813567ffffffffffffffff808211156104c0578283fd5b908301906101e082860312156104d4578283fd5b6104df6101006107b1565b823581526020830135828111156104f4578485fd5b61050087828601610291565b60208301525060408301356040820152606083013582811115610521578485fd5b61052d87828601610291565b6060830152506080830135608082015260a08301358281111561054e578485fd5b61055a87828601610291565b60a08301525060c083013560c08201526105778660e08501610237565b60e082015295945050505050565b60008060008061016080868803121561059c578384fd5b8535945060208601359350604086013592508681870111156105bc578182fd5b509295919450926060019150565b60008060008061016085870312156105e0578384fd5b8435935060208501359250604085013591506105ff8660608701610237565b905092959194509250565b8060005b600881101561062d57815184526020938401939091019060010161060e565b50505050565b600081516020808401835b8381101561065a5781518752958201959082019060010161063e565b509495945050505050565b6000610671828d610633565b8b81528a60208201528960408201528860608201528760808201528660a08201528560c08201528460e08201526106ac61010082018561060a565b610200019c9b505050505050505050505050565b60008982526106d2602083018a610633565b8881526106e26020820189610633565b90508681526106f46020820187610633565b9050848152610706602082018561060a565b610120019a9950505050505050505050565b600085825284602083015283604083015261010083606084013761016091909101908152949350505050565b6000858252846020830152836040830152610762606083018461060a565b5061016001949350505050565b600087825286602083015285604083015284606083015283608083015261079960a083018461060a565b506101a0019695505050505050565b90815260200190565b604051601f8201601f1916810167ffffffffffffffff811182821017156107da576107da6107e2565b604052919050565b634e487b7160e01b600052604160045260246000fdfea26469706673582212200e7341c1e35800bd5ce80f81180c3d04c2ca0aaeafdc8c026588054fec7d745264736f6c63430008010033",
    "linkReferences": {},
    "deployedLinkReferences": {}
}