{
  "_format": "hh-sol-artifact-1",
  "contractName": "UserStateTransitionVerifier",
  "sourceName": "contracts/UserStateTransitionVerifier.sol",
  "abi": [
    {
      "inputs": [
        {
          "internalType": "uint256[2]",
          "name": "a",
          "type": "uint256[2]"
        },
        {
          "internalType": "uint256[2][2]",
          "name": "b",
          "type": "uint256[2][2]"
        },
        {
          "internalType": "uint256[2]",
          "name": "c",
          "type": "uint256[2]"
        },
        {
          "internalType": "uint256[]",
          "name": "input",
          "type": "uint256[]"
        }
      ],
      "name": "verifyProof",
      "outputs": [
        {
          "internalType": "bool",
          "name": "",
          "type": "bool"
        }
      ],
      "stateMutability": "view",
      "type": "function"
    }
  ],
  "bytecode": "0x608060405234801561001057600080fd5b506115ed806100206000396000f3fe608060405234801561001057600080fd5b506004361061002b5760003560e01c8063c32e370e14610030575b600080fd5b61004361003e366004611146565b610059565b604051610050919061120f565b60405180910390f35b6000610063610f14565b6040805180820182528751815260208089015181830152908352815160808101835287515181840190815288518301516060830152815282518084018452888301805151825251830151818401528183015283820152815180830183528651815286820151918101919091529082015260006100dd6103e2565b6040805180820190915260008082526020820152835151919250906000805160206115988339815191521161012d5760405162461bcd60e51b815260040161012490611251565b60405180910390fd5b8251602001516000805160206115988339815191521161015f5760405162461bcd60e51b8152600401610124906113c7565b60208301515151600080516020611598833981519152116101925760405162461bcd60e51b81526004016101249061121a565b602083810151015151600080516020611598833981519152116101c75760405162461bcd60e51b815260040161012490611390565b602083810151510151600080516020611598833981519152116101fc5760405162461bcd60e51b8152600401610124906112bf565b6020838101518101510151600080516020611598833981519152116102335760405162461bcd60e51b815260040161012490611288565b604083015151600080516020611598833981519152116102655760405162461bcd60e51b81526004016101249061142a565b6000805160206115988339815191528360400151602001511061029a5760405162461bcd60e51b815260040161012490611322565b60005b600c81101561038e577f30644e72e131a029b85045b68181585d2833e84879b9709143e1f593f00000018682815181106102e757634e487b7160e01b600052603260045260246000fd5b60200260200101511061030c5760405162461bcd60e51b815260040161012490611359565b61037a82610375856080015184600161032591906114e2565b600d811061034357634e487b7160e01b600052603260045260246000fd5b602002015189858151811061036857634e487b7160e01b600052603260045260246000fd5b6020026020010151610a43565b610aae565b91508061038681611530565b91505061029d565b506080820151516103a0908290610aae565b90506103d66103b28460000151610b15565b84602001518460000151856020015185876040015189604001518960600151610ba2565b98975050505050505050565b6103ea610f46565b6040805180820182527f2d4d9aa7e302d9df41749d5507949d05dbea33fbb16c643b22f599a2be6df2e281527f14bedd503c37ceb061d8ec60209fe345ce89830a19230301f076caff004d19266020808301919091529083528151608080820184527f0967032fcbf776d1afc985f88877f182d38480a653f2decaa9794cbc3bf3060c8285019081527f0e187847ad4c798374d0d6732bf501847dd68bc0e071241e0213bc7fc13db7ab606080850191909152908352845180860186527f304cfbd1e08a704a99f5e847d93f8c3caafddec46b7a0d379da69a4d112346a781527f1739c1b1a457a8c7313123d24d2f9192f896b7c63eea05a9d57f06547ad0cec8818601528385015285840192909252835180820185527f198e9393920d483a7260bfb731fb5d25f1aa493335a9e71297e485b7aef312c28186018181527f1800deef121f1e76426a00665e5c4479674322d4f75edadd46debd5cd992f6ed838601819052908352865180880188527f090689d0585ff075ec9e99ad690c3395bc4b313370b38ef355acdadcd122975b8082527f12c85ea5db8c6deb4aab71808dcb408fe3d1e7690c43d37b4ce6cc0166fa7daa8289018190528589019290925289890194909452875180860189528089019384528087019290925291815286518088018852928352828601919091528085019190915282860152835180850185527f202686854197c62e5893c5e2e2db9b5f2a0ef0a285603144b20a6d7001b78f1b81527f19023dd2a2c7832a9688405d66aaa288c2c5d575e1eee644165fa19c3933498a81850152818601805191909152845180860186527f044ebbb4a3087ea2e549f7ab264582be6ea65e918f1023bde986720025f35e7c81527ee74662036e98768a4f0da474c5904cd1e83a3c2f7277b20025def267012464818601528151850152845180860186527f01759443736d2c5d668bc11404b545b53c20a2e40791ba7950f372bbf55a009381527f2f3c2c8878ba8ff748498e2094e5e4463c9270d296355df8cae9169cf564cf6f818601528151860152845180860186527f1ea05212a6703e58d7cda7349c10290eec6decca30d38940fe90f612a1f4f0f981527f0b9d28768315bde9768d29900739d256db1e3e13cd22ac269854ddafcfe6c9e781860152815190930192909252835180850185527f0f5e09396888026707c8321437b5c413cd237a3825b398623a42fa5665e8057281527f015f9845774e00082eef02a2b30cbaf0064b2cb6a16baca112b6500972baa39681850152825190910152825180840184527f06319f668b4866fe197001bd08782ad91c6ebbc21a418b1abeaa3d6bda5d584081527f13bcd4125c250c009be931d1ffc8d69b17f8c0581b5e80d11362e4cd2ad1646481840152815160a00152825180840184527f30010c0634b4cde801a9f7e6b85e33a07bf4c617cbc041fce9fbdcd4101ee17081527f24c0fe037eb060183f3f7a9fb9c5f69a3243afd960e253c343465ec18fc6a6f081840152815160c00152825180840184527f0697d2633f62a5a6e640922e621833390e523f96d553afb1248662efd1fcf4a581527f217c3cc87a1fcc0f5a45c68ad2572ec6ee8e0989d1681ab86230445e8e2c768e81840152815160e00152825180840184527f23b685efacf8a284668ecc97c5c51fc9560194012e7b79d5dda15a9d36e8cdd081527f1175b8f2fb0f6999453cdb1b64c26e531b4afe746f6c59675b877355c54ef0718184015281516101000152825180840184527f1b71afce8b80b8d80163b2a4a30c461b4b8055a4ab51354368685c5a17f076e081527f18ec25fe2ca877041beee735dfd0946c152c537f8edd772365ef97f41e6c2ad78184015281516101200152825180840184527f0e8af05352f31da544932c56ae9a645aea8265a85603d342c61fc595ef630b2d81527f19286a8a380c2751bb8a1820f101eece63eacf92aab7ff19e655bf31b6e8b0c98184015281516101400152825180840184527f2f2fd1505a9d73187003a2e0808474e0b4993af7d92f63aab64f71aa46d3ed7681527e6602501e7154ebbd0d70ad08ed84704bf48bf56bd0e41e7485d6b4cda91381818401528151610160015282518084019093527f1eae7d5c3184a72e8a54fb29cdb1aae2161b179fac164a6d0d75f83dd770178083527f21449391b34b9be6a67d583f998d7adea0b5a67c41368854100e0dca438877b19183019190915251610180015290565b610a4b610f8d565b610a53610fa7565b835181526020808501519082015260408101839052600060608360808460076107d05a03fa9050808015610a8657610a88565bfe5b5080610aa65760405162461bcd60e51b8152600401610124906112f6565b505092915050565b610ab6610f8d565b610abe610fc5565b8351815260208085015181830152835160408301528301516060808301919091526000908360c08460066107d05a03fa9050808015610a86575080610aa65760405162461bcd60e51b8152600401610124906113fe565b610b1d610f8d565b8151158015610b2e57506020820151155b15610b4d57506040805180820190915260008082526020820152610b9d565b6040518060400160405280836000015181526020016000805160206115988339815191528460200151610b80919061154b565b610b9890600080516020611598833981519152611519565b905290505b919050565b60408051608080820183528a825260208083018a90528284018890526060808401879052845192830185528b83528282018a9052828501889052820185905283516018808252610320820190955260009491859190839082016103008036833701905050905060005b6004811015610eba576000610c218260066114fa565b9050858260048110610c4357634e487b7160e01b600052603260045260246000fd5b60200201515183610c558360006114e2565b81518110610c7357634e487b7160e01b600052603260045260246000fd5b602002602001018181525050858260048110610c9f57634e487b7160e01b600052603260045260246000fd5b60200201516020015183826001610cb691906114e2565b81518110610cd457634e487b7160e01b600052603260045260246000fd5b602002602001018181525050848260048110610d0057634e487b7160e01b600052603260045260246000fd5b6020020151515183610d138360026114e2565b81518110610d3157634e487b7160e01b600052603260045260246000fd5b602002602001018181525050848260048110610d5d57634e487b7160e01b600052603260045260246000fd5b6020020151516001602002015183610d768360036114e2565b81518110610d9457634e487b7160e01b600052603260045260246000fd5b602002602001018181525050848260048110610dc057634e487b7160e01b600052603260045260246000fd5b602002015160200151600060028110610de957634e487b7160e01b600052603260045260246000fd5b602002015183610dfa8360046114e2565b81518110610e1857634e487b7160e01b600052603260045260246000fd5b602002602001018181525050848260048110610e4457634e487b7160e01b600052603260045260246000fd5b602002015160200151600160028110610e6d57634e487b7160e01b600052603260045260246000fd5b602002015183610e7e8360056114e2565b81518110610e9c57634e487b7160e01b600052603260045260246000fd5b60209081029190910101525080610eb281611530565b915050610c0b565b50610ec3610fe3565b6000602082602086026020860160086107d05a03fa9050808015610a86575080610eff5760405162461bcd60e51b815260040161012490611461565b505115159d9c50505050505050505050505050565b6040518060600160405280610f27610f8d565b8152602001610f34611001565b8152602001610f41610f8d565b905290565b6040518060a00160405280610f59610f8d565b8152602001610f66611001565b8152602001610f73611001565b8152602001610f80611001565b8152602001610f41611021565b604051806040016040528060008152602001600081525090565b60405180606001604052806003906020820280368337509192915050565b60405180608001604052806004906020820280368337509192915050565b60405180602001604052806001906020820280368337509192915050565b604051806040016040528061101461104f565b8152602001610f4161104f565b604051806101a00160405280600d905b611039610f8d565b8152602001906001900390816110315790505090565b60405180604001604052806002906020820280368337509192915050565b600082601f83011261107d578081fd5b6110876040611490565b808385604086011115611098578384fd5b835b60028110156110b957813584526020938401939091019060010161109a565b509095945050505050565b600082601f8301126110d4578081fd5b8135602067ffffffffffffffff8211156110f0576110f0611581565b8082026110fe828201611490565b838152828101908684018388018501891015611118578687fd5b8693505b8584101561113a57803583526001939093019291840191840161111c565b50979650505050505050565b600080600080610120858703121561115c578384fd5b611166868661106d565b9350604086605f870112611178578384fd5b600261118b611186826114c1565b611490565b8083890160c08a018b81111561119f578889fd5b885b858110156111c7576111b38d8461106d565b8552602090940193918601916001016111a1565b508298506111d58c8261106d565b975050505050505061010085013567ffffffffffffffff8111156111f7578182fd5b611203878288016110c4565b91505092959194509250565b901515815260200190565b60208082526018908201527f76657269666965722d6258302d6774652d7072696d652d710000000000000000604082015260600190565b60208082526017908201527f76657269666965722d61582d6774652d7072696d652d71000000000000000000604082015260600190565b60208082526018908201527f76657269666965722d6259312d6774652d7072696d652d710000000000000000604082015260600190565b60208082526018908201527f76657269666965722d6258312d6774652d7072696d652d710000000000000000604082015260600190565b6020808252601290820152711c185a5c9a5b99cb5b5d5b0b59985a5b195960721b604082015260600190565b60208082526017908201527f76657269666965722d63592d6774652d7072696d652d71000000000000000000604082015260600190565b6020808252601f908201527f76657269666965722d6774652d736e61726b2d7363616c61722d6669656c6400604082015260600190565b60208082526018908201527f76657269666965722d6259302d6774652d7072696d652d710000000000000000604082015260600190565b60208082526017908201527f76657269666965722d61592d6774652d7072696d652d71000000000000000000604082015260600190565b6020808252601290820152711c185a5c9a5b99cb5859190b59985a5b195960721b604082015260600190565b60208082526017908201527f76657269666965722d63582d6774652d7072696d652d71000000000000000000604082015260600190565b6020808252601590820152741c185a5c9a5b99cb5bdc18dbd9194b59985a5b1959605a1b604082015260600190565b604051601f8201601f1916810167ffffffffffffffff811182821017156114b9576114b9611581565b604052919050565b600067ffffffffffffffff8211156114db576114db611581565b5060200290565b600082198211156114f5576114f561156b565b500190565b60008160001904831182151516156115145761151461156b565b500290565b60008282101561152b5761152b61156b565b500390565b60006000198214156115445761154461156b565b5060010190565b60008261156657634e487b7160e01b81526012600452602481fd5b500690565b634e487b7160e01b600052601160045260246000fd5b634e487b7160e01b600052604160045260246000fdfe30644e72e131a029b85045b68181585d97816a916871ca8d3c208c16d87cfd47a2646970667358221220a4893ac89133d8d537c50602bccc84fde27f24f5fd669fbbdacf6e9370b7732764736f6c63430008010033",
  "linkReferences": {},
  "deployedLinkReferences": {}
}