{
  "_format": "hh-sol-artifact-1",
  "contractName": "Unirep",
  "sourceName": "contracts/Unirep.sol",
  "abi": [
    {
      "inputs": [
        {
          "components": [
            {
              "internalType": "uint8",
              "name": "globalStateTreeDepth",
              "type": "uint8"
            },
            {
              "internalType": "uint8",
              "name": "userStateTreeDepth",
              "type": "uint8"
            },
            {
              "internalType": "uint8",
              "name": "epochTreeDepth",
              "type": "uint8"
            }
          ],
          "internalType": "struct UnirepObjs.TreeDepths",
          "name": "_treeDepths",
          "type": "tuple"
        },
        {
          "components": [
            {
              "internalType": "uint256",
              "name": "maxUsers",
              "type": "uint256"
            },
            {
              "internalType": "uint256",
              "name": "maxAttesters",
              "type": "uint256"
            }
          ],
          "internalType": "struct UnirepObjs.MaxValues",
          "name": "_maxValues",
          "type": "tuple"
        },
        {
          "internalType": "contract EpochKeyValidityVerifier",
          "name": "_epkValidityVerifier",
          "type": "address"
        },
        {
          "internalType": "contract StartTransitionVerifier",
          "name": "_startTransitionVerifier",
          "type": "address"
        },
        {
          "internalType": "contract ProcessAttestationsVerifier",
          "name": "_processAttestationsVerifier",
          "type": "address"
        },
        {
          "internalType": "contract UserStateTransitionVerifier",
          "name": "_userStateTransitionVerifier",
          "type": "address"
        },
        {
          "internalType": "contract ReputationVerifier",
          "name": "_reputationVerifier",
          "type": "address"
        },
        {
          "internalType": "contract UserSignUpVerifier",
          "name": "_userSignUpVerifier",
          "type": "address"
        },
        {
          "internalType": "uint8",
          "name": "_numEpochKeyNoncePerEpoch",
          "type": "uint8"
        },
        {
          "internalType": "uint8",
          "name": "_maxReputationBudget",
          "type": "uint8"
        },
        {
          "internalType": "uint256",
          "name": "_epochLength",
          "type": "uint256"
        },
        {
          "internalType": "uint256",
          "name": "_attestingFee",
          "type": "uint256"
        }
      ],
      "stateMutability": "nonpayable",
      "type": "constructor"
    },
    {
      "anonymous": false,
      "inputs": [
        {
          "indexed": true,
          "internalType": "uint256",
          "name": "_epoch",
          "type": "uint256"
        },
        {
          "indexed": true,
          "internalType": "uint256",
          "name": "_epochKey",
          "type": "uint256"
        },
        {
          "indexed": true,
          "internalType": "address",
          "name": "_attester",
          "type": "address"
        },
        {
          "indexed": false,
          "internalType": "enum Unirep.AttestationEvent",
          "name": "_event",
          "type": "uint8"
        },
        {
          "components": [
            {
              "internalType": "uint256",
              "name": "attesterId",
              "type": "uint256"
            },
            {
              "internalType": "uint256",
              "name": "posRep",
              "type": "uint256"
            },
            {
              "internalType": "uint256",
              "name": "negRep",
              "type": "uint256"
            },
            {
              "internalType": "uint256",
              "name": "graffiti",
              "type": "uint256"
            },
            {
              "internalType": "uint256",
              "name": "signUp",
              "type": "uint256"
            }
          ],
          "indexed": false,
          "internalType": "struct UnirepObjs.Attestation",
          "name": "_attestation",
          "type": "tuple"
        },
        {
          "indexed": false,
          "internalType": "uint256",
          "name": "toProofIndex",
          "type": "uint256"
        },
        {
          "indexed": false,
          "internalType": "uint256",
          "name": "fromProofIndex",
          "type": "uint256"
        }
      ],
      "name": "AttestationSubmitted",
      "type": "event"
    },
    {
      "anonymous": false,
      "inputs": [
        {
          "indexed": true,
          "internalType": "uint256",
          "name": "_epoch",
          "type": "uint256"
        }
      ],
      "name": "EpochEnded",
      "type": "event"
    },
    {
      "anonymous": false,
      "inputs": [
        {
          "indexed": true,
          "internalType": "uint256",
          "name": "_proofIndex",
          "type": "uint256"
        },
        {
          "indexed": true,
          "internalType": "uint256",
          "name": "_epoch",
          "type": "uint256"
        },
        {
          "indexed": true,
          "internalType": "uint256",
          "name": "_epochKey",
          "type": "uint256"
        },
        {
          "components": [
            {
              "internalType": "uint256",
              "name": "globalStateTree",
              "type": "uint256"
            },
            {
              "internalType": "uint256",
              "name": "epoch",
              "type": "uint256"
            },
            {
              "internalType": "uint256",
              "name": "epochKey",
              "type": "uint256"
            },
            {
              "internalType": "uint256[8]",
              "name": "proof",
              "type": "uint256[8]"
            }
          ],
          "indexed": false,
          "internalType": "struct UnirepObjs.EpochKeyProof",
          "name": "_proof",
          "type": "tuple"
        }
      ],
      "name": "IndexedEpochKeyProof",
      "type": "event"
    },
    {
      "anonymous": false,
      "inputs": [
        {
          "indexed": true,
          "internalType": "uint256",
          "name": "_proofIndex",
          "type": "uint256"
        },
        {
          "indexed": true,
          "internalType": "uint256",
          "name": "_inputBlindedUserState",
          "type": "uint256"
        },
        {
          "indexed": false,
          "internalType": "uint256",
          "name": "_outputBlindedUserState",
          "type": "uint256"
        },
        {
          "indexed": false,
          "internalType": "uint256",
          "name": "_outputBlindedHashChain",
          "type": "uint256"
        },
        {
          "indexed": false,
          "internalType": "uint256[8]",
          "name": "_proof",
          "type": "uint256[8]"
        }
      ],
      "name": "IndexedProcessedAttestationsProof",
      "type": "event"
    },
    {
      "anonymous": false,
      "inputs": [
        {
          "indexed": true,
          "internalType": "uint256",
          "name": "_proofIndex",
          "type": "uint256"
        },
        {
          "indexed": true,
          "internalType": "uint256",
          "name": "_epoch",
          "type": "uint256"
        },
        {
          "indexed": true,
          "internalType": "uint256",
          "name": "_epochKey",
          "type": "uint256"
        },
        {
          "components": [
            {
              "internalType": "uint256[]",
              "name": "repNullifiers",
              "type": "uint256[]"
            },
            {
              "internalType": "uint256",
              "name": "epoch",
              "type": "uint256"
            },
            {
              "internalType": "uint256",
              "name": "epochKey",
              "type": "uint256"
            },
            {
              "internalType": "uint256",
              "name": "globalStateTree",
              "type": "uint256"
            },
            {
              "internalType": "uint256",
              "name": "attesterId",
              "type": "uint256"
            },
            {
              "internalType": "uint256",
              "name": "proveReputationAmount",
              "type": "uint256"
            },
            {
              "internalType": "uint256",
              "name": "minRep",
              "type": "uint256"
            },
            {
              "internalType": "uint256",
              "name": "proveGraffiti",
              "type": "uint256"
            },
            {
              "internalType": "uint256",
              "name": "graffitiPreImage",
              "type": "uint256"
            },
            {
              "internalType": "uint256[8]",
              "name": "proof",
              "type": "uint256[8]"
            }
          ],
          "indexed": false,
          "internalType": "struct UnirepObjs.ReputationProof",
          "name": "_proof",
          "type": "tuple"
        }
      ],
      "name": "IndexedReputationProof",
      "type": "event"
    },
    {
      "anonymous": false,
      "inputs": [
        {
          "indexed": true,
          "internalType": "uint256",
          "name": "_proofIndex",
          "type": "uint256"
        },
        {
          "indexed": true,
          "internalType": "uint256",
          "name": "_blindedUserState",
          "type": "uint256"
        },
        {
          "indexed": true,
          "internalType": "uint256",
          "name": "_globalStateTree",
          "type": "uint256"
        },
        {
          "indexed": false,
          "internalType": "uint256",
          "name": "_blindedHashChain",
          "type": "uint256"
        },
        {
          "indexed": false,
          "internalType": "uint256[8]",
          "name": "_proof",
          "type": "uint256[8]"
        }
      ],
      "name": "IndexedStartedTransitionProof",
      "type": "event"
    },
    {
      "anonymous": false,
      "inputs": [
        {
          "indexed": true,
          "internalType": "uint256",
          "name": "_proofIndex",
          "type": "uint256"
        },
        {
          "indexed": true,
          "internalType": "uint256",
          "name": "_epoch",
          "type": "uint256"
        },
        {
          "indexed": true,
          "internalType": "uint256",
          "name": "_epochKey",
          "type": "uint256"
        },
        {
          "components": [
            {
              "internalType": "uint256",
              "name": "epoch",
              "type": "uint256"
            },
            {
              "internalType": "uint256",
              "name": "epochKey",
              "type": "uint256"
            },
            {
              "internalType": "uint256",
              "name": "globalStateTree",
              "type": "uint256"
            },
            {
              "internalType": "uint256",
              "name": "attesterId",
              "type": "uint256"
            },
            {
              "internalType": "uint256",
              "name": "userHasSignedUp",
              "type": "uint256"
            },
            {
              "internalType": "uint256[8]",
              "name": "proof",
              "type": "uint256[8]"
            }
          ],
          "indexed": false,
          "internalType": "struct UnirepObjs.SignUpProof",
          "name": "_proof",
          "type": "tuple"
        }
      ],
      "name": "IndexedUserSignedUpProof",
      "type": "event"
    },
    {
      "anonymous": false,
      "inputs": [
        {
          "indexed": true,
          "internalType": "uint256",
          "name": "_proofIndex",
          "type": "uint256"
        },
        {
          "components": [
            {
              "internalType": "uint256",
              "name": "newGlobalStateTreeLeaf",
              "type": "uint256"
            },
            {
              "internalType": "uint256[]",
              "name": "epkNullifiers",
              "type": "uint256[]"
            },
            {
              "internalType": "uint256",
              "name": "transitionFromEpoch",
              "type": "uint256"
            },
            {
              "internalType": "uint256[]",
              "name": "blindedUserStates",
              "type": "uint256[]"
            },
            {
              "internalType": "uint256",
              "name": "fromGlobalStateTree",
              "type": "uint256"
            },
            {
              "internalType": "uint256[]",
              "name": "blindedHashChains",
              "type": "uint256[]"
            },
            {
              "internalType": "uint256",
              "name": "fromEpochTree",
              "type": "uint256"
            },
            {
              "internalType": "uint256[8]",
              "name": "proof",
              "type": "uint256[8]"
            }
          ],
          "indexed": false,
          "internalType": "struct UnirepObjs.UserTransitionProof",
          "name": "_proof",
          "type": "tuple"
        },
        {
          "indexed": false,
          "internalType": "uint256[]",
          "name": "_proofIndexRecords",
          "type": "uint256[]"
        }
      ],
      "name": "IndexedUserStateTransitionProof",
      "type": "event"
    },
    {
      "anonymous": false,
      "inputs": [
        {
          "indexed": true,
          "internalType": "uint256",
          "name": "_epoch",
          "type": "uint256"
        },
        {
          "indexed": false,
          "internalType": "enum Unirep.Event",
          "name": "_event",
          "type": "uint8"
        }
      ],
      "name": "Sequencer",
      "type": "event"
    },
    {
      "anonymous": false,
      "inputs": [
        {
          "indexed": true,
          "internalType": "uint256",
          "name": "_epoch",
          "type": "uint256"
        },
        {
          "indexed": true,
          "internalType": "uint256",
          "name": "_identityCommitment",
          "type": "uint256"
        },
        {
          "indexed": false,
          "internalType": "uint256",
          "name": "_attesterId",
          "type": "uint256"
        },
        {
          "indexed": false,
          "internalType": "uint256",
          "name": "_airdropAmount",
          "type": "uint256"
        }
      ],
      "name": "UserSignedUp",
      "type": "event"
    },
    {
      "anonymous": false,
      "inputs": [
        {
          "indexed": true,
          "internalType": "uint256",
          "name": "_epoch",
          "type": "uint256"
        },
        {
          "indexed": true,
          "internalType": "uint256",
          "name": "_hashedLeaf",
          "type": "uint256"
        },
        {
          "indexed": false,
          "internalType": "uint256",
          "name": "_proofIndex",
          "type": "uint256"
        }
      ],
      "name": "UserStateTransitioned",
      "type": "event"
    },
    {
      "inputs": [
        {
          "internalType": "address",
          "name": "",
          "type": "address"
        }
      ],
      "name": "airdropAmount",
      "outputs": [
        {
          "internalType": "uint256",
          "name": "",
          "type": "uint256"
        }
      ],
      "stateMutability": "view",
      "type": "function"
    },
    {
      "inputs": [
        {
          "components": [
            {
              "internalType": "uint256",
              "name": "epoch",
              "type": "uint256"
            },
            {
              "internalType": "uint256",
              "name": "epochKey",
              "type": "uint256"
            },
            {
              "internalType": "uint256",
              "name": "globalStateTree",
              "type": "uint256"
            },
            {
              "internalType": "uint256",
              "name": "attesterId",
              "type": "uint256"
            },
            {
              "internalType": "uint256",
              "name": "userHasSignedUp",
              "type": "uint256"
            },
            {
              "internalType": "uint256[8]",
              "name": "proof",
              "type": "uint256[8]"
            }
          ],
          "internalType": "struct UnirepObjs.SignUpProof",
          "name": "_input",
          "type": "tuple"
        }
      ],
      "name": "airdropEpochKey",
      "outputs": [],
      "stateMutability": "payable",
      "type": "function"
    },
    {
      "inputs": [],
      "name": "attesterSignUp",
      "outputs": [],
      "stateMutability": "nonpayable",
      "type": "function"
    },
    {
      "inputs": [
        {
          "internalType": "address",
          "name": "attester",
          "type": "address"
        },
        {
          "internalType": "bytes",
          "name": "signature",
          "type": "bytes"
        }
      ],
      "name": "attesterSignUpViaRelayer",
      "outputs": [],
      "stateMutability": "nonpayable",
      "type": "function"
    },
    {
      "inputs": [
        {
          "internalType": "address",
          "name": "",
          "type": "address"
        }
      ],
      "name": "attesters",
      "outputs": [
        {
          "internalType": "uint256",
          "name": "",
          "type": "uint256"
        }
      ],
      "stateMutability": "view",
      "type": "function"
    },
    {
      "inputs": [],
      "name": "attestingFee",
      "outputs": [
        {
          "internalType": "uint256",
          "name": "",
          "type": "uint256"
        }
      ],
      "stateMutability": "view",
      "type": "function"
    },
    {
      "inputs": [],
      "name": "beginEpochTransition",
      "outputs": [],
      "stateMutability": "nonpayable",
      "type": "function"
    },
    {
      "inputs": [],
      "name": "burnAttestingFee",
      "outputs": [],
      "stateMutability": "nonpayable",
      "type": "function"
    },
    {
      "inputs": [],
      "name": "collectEpochTransitionCompensation",
      "outputs": [],
      "stateMutability": "nonpayable",
      "type": "function"
    },
    {
      "inputs": [],
      "name": "collectedAttestingFee",
      "outputs": [
        {
          "internalType": "uint256",
          "name": "",
          "type": "uint256"
        }
      ],
      "stateMutability": "view",
      "type": "function"
    },
    {
      "inputs": [],
      "name": "currentEpoch",
      "outputs": [
        {
          "internalType": "uint256",
          "name": "",
          "type": "uint256"
        }
      ],
      "stateMutability": "view",
      "type": "function"
    },
    {
      "inputs": [],
      "name": "epochLength",
      "outputs": [
        {
          "internalType": "uint256",
          "name": "",
          "type": "uint256"
        }
      ],
      "stateMutability": "view",
      "type": "function"
    },
    {
      "inputs": [
        {
          "internalType": "address",
          "name": "",
          "type": "address"
        }
      ],
      "name": "epochTransitionCompensation",
      "outputs": [
        {
          "internalType": "uint256",
          "name": "",
          "type": "uint256"
        }
      ],
      "stateMutability": "view",
      "type": "function"
    },
    {
      "inputs": [
        {
          "internalType": "bytes32",
          "name": "",
          "type": "bytes32"
        }
      ],
      "name": "getProofIndex",
      "outputs": [
        {
          "internalType": "uint256",
          "name": "",
          "type": "uint256"
        }
      ],
      "stateMutability": "view",
      "type": "function"
    },
    {
      "inputs": [
        {
          "internalType": "uint256",
          "name": "",
          "type": "uint256"
        }
      ],
      "name": "hasUserSignedUp",
      "outputs": [
        {
          "internalType": "bool",
          "name": "",
          "type": "bool"
        }
      ],
      "stateMutability": "view",
      "type": "function"
    },
    {
      "inputs": [
        {
          "components": [
            {
              "internalType": "uint256",
              "name": "globalStateTree",
              "type": "uint256"
            },
            {
              "internalType": "uint256",
              "name": "epoch",
              "type": "uint256"
            },
            {
              "internalType": "uint256",
              "name": "epochKey",
              "type": "uint256"
            },
            {
              "internalType": "uint256[8]",
              "name": "proof",
              "type": "uint256[8]"
            }
          ],
          "internalType": "struct UnirepObjs.EpochKeyProof",
          "name": "_input",
          "type": "tuple"
        }
      ],
      "name": "hashEpochKeyProof",
      "outputs": [
        {
          "internalType": "bytes32",
          "name": "",
          "type": "bytes32"
        }
      ],
      "stateMutability": "pure",
      "type": "function"
    },
    {
      "inputs": [
        {
          "internalType": "uint256",
          "name": "_outputBlindedUserState",
          "type": "uint256"
        },
        {
          "internalType": "uint256",
          "name": "_outputBlindedHashChain",
          "type": "uint256"
        },
        {
          "internalType": "uint256",
          "name": "_inputBlindedUserState",
          "type": "uint256"
        },
        {
          "internalType": "uint256[8]",
          "name": "_proof",
          "type": "uint256[8]"
        }
      ],
      "name": "hashProcessAttestationsProof",
      "outputs": [
        {
          "internalType": "bytes32",
          "name": "",
          "type": "bytes32"
        }
      ],
      "stateMutability": "pure",
      "type": "function"
    },
    {
      "inputs": [
        {
          "components": [
            {
              "internalType": "uint256[]",
              "name": "repNullifiers",
              "type": "uint256[]"
            },
            {
              "internalType": "uint256",
              "name": "epoch",
              "type": "uint256"
            },
            {
              "internalType": "uint256",
              "name": "epochKey",
              "type": "uint256"
            },
            {
              "internalType": "uint256",
              "name": "globalStateTree",
              "type": "uint256"
            },
            {
              "internalType": "uint256",
              "name": "attesterId",
              "type": "uint256"
            },
            {
              "internalType": "uint256",
              "name": "proveReputationAmount",
              "type": "uint256"
            },
            {
              "internalType": "uint256",
              "name": "minRep",
              "type": "uint256"
            },
            {
              "internalType": "uint256",
              "name": "proveGraffiti",
              "type": "uint256"
            },
            {
              "internalType": "uint256",
              "name": "graffitiPreImage",
              "type": "uint256"
            },
            {
              "internalType": "uint256[8]",
              "name": "proof",
              "type": "uint256[8]"
            }
          ],
          "internalType": "struct UnirepObjs.ReputationProof",
          "name": "_input",
          "type": "tuple"
        }
      ],
      "name": "hashReputationProof",
      "outputs": [
        {
          "internalType": "bytes32",
          "name": "",
          "type": "bytes32"
        }
      ],
      "stateMutability": "pure",
      "type": "function"
    },
    {
      "inputs": [
        {
          "components": [
            {
              "internalType": "uint256",
              "name": "epoch",
              "type": "uint256"
            },
            {
              "internalType": "uint256",
              "name": "epochKey",
              "type": "uint256"
            },
            {
              "internalType": "uint256",
              "name": "globalStateTree",
              "type": "uint256"
            },
            {
              "internalType": "uint256",
              "name": "attesterId",
              "type": "uint256"
            },
            {
              "internalType": "uint256",
              "name": "userHasSignedUp",
              "type": "uint256"
            },
            {
              "internalType": "uint256[8]",
              "name": "proof",
              "type": "uint256[8]"
            }
          ],
          "internalType": "struct UnirepObjs.SignUpProof",
          "name": "_input",
          "type": "tuple"
        }
      ],
      "name": "hashSignUpProof",
      "outputs": [
        {
          "internalType": "bytes32",
          "name": "",
          "type": "bytes32"
        }
      ],
      "stateMutability": "pure",
      "type": "function"
    },
    {
      "inputs": [
        {
          "internalType": "uint256",
          "name": "_blindedUserState",
          "type": "uint256"
        },
        {
          "internalType": "uint256",
          "name": "_blindedHashChain",
          "type": "uint256"
        },
        {
          "internalType": "uint256",
          "name": "_globalStateTree",
          "type": "uint256"
        },
        {
          "internalType": "uint256[8]",
          "name": "_proof",
          "type": "uint256[8]"
        }
      ],
      "name": "hashStartTransitionProof",
      "outputs": [
        {
          "internalType": "bytes32",
          "name": "",
          "type": "bytes32"
        }
      ],
      "stateMutability": "pure",
      "type": "function"
    },
    {
      "inputs": [
        {
          "components": [
            {
              "internalType": "uint256",
              "name": "newGlobalStateTreeLeaf",
              "type": "uint256"
            },
            {
              "internalType": "uint256[]",
              "name": "epkNullifiers",
              "type": "uint256[]"
            },
            {
              "internalType": "uint256",
              "name": "transitionFromEpoch",
              "type": "uint256"
            },
            {
              "internalType": "uint256[]",
              "name": "blindedUserStates",
              "type": "uint256[]"
            },
            {
              "internalType": "uint256",
              "name": "fromGlobalStateTree",
              "type": "uint256"
            },
            {
              "internalType": "uint256[]",
              "name": "blindedHashChains",
              "type": "uint256[]"
            },
            {
              "internalType": "uint256",
              "name": "fromEpochTree",
              "type": "uint256"
            },
            {
              "internalType": "uint256[8]",
              "name": "proof",
              "type": "uint256[8]"
            }
          ],
          "internalType": "struct UnirepObjs.UserTransitionProof",
          "name": "_input",
          "type": "tuple"
        }
      ],
      "name": "hashUserStateTransitionProof",
      "outputs": [
        {
          "internalType": "bytes32",
          "name": "",
          "type": "bytes32"
        }
      ],
      "stateMutability": "pure",
      "type": "function"
    },
    {
      "inputs": [],
      "name": "latestEpochTransitionTime",
      "outputs": [
        {
          "internalType": "uint256",
          "name": "",
          "type": "uint256"
        }
      ],
      "stateMutability": "view",
      "type": "function"
    },
    {
      "inputs": [],
      "name": "maxAttesters",
      "outputs": [
        {
          "internalType": "uint256",
          "name": "",
          "type": "uint256"
        }
      ],
      "stateMutability": "view",
      "type": "function"
    },
    {
      "inputs": [],
      "name": "maxEpochKey",
      "outputs": [
        {
          "internalType": "uint256",
          "name": "",
          "type": "uint256"
        }
      ],
      "stateMutability": "view",
      "type": "function"
    },
    {
      "inputs": [],
      "name": "maxReputationBudget",
      "outputs": [
        {
          "internalType": "uint8",
          "name": "",
          "type": "uint8"
        }
      ],
      "stateMutability": "view",
      "type": "function"
    },
    {
      "inputs": [],
      "name": "maxUsers",
      "outputs": [
        {
          "internalType": "uint256",
          "name": "",
          "type": "uint256"
        }
      ],
      "stateMutability": "view",
      "type": "function"
    },
    {
      "inputs": [],
      "name": "nextAttesterId",
      "outputs": [
        {
          "internalType": "uint256",
          "name": "",
          "type": "uint256"
        }
      ],
      "stateMutability": "view",
      "type": "function"
    },
    {
      "inputs": [],
      "name": "numEpochKeyNoncePerEpoch",
      "outputs": [
        {
          "internalType": "uint8",
          "name": "",
          "type": "uint8"
        }
      ],
      "stateMutability": "view",
      "type": "function"
    },
    {
      "inputs": [],
      "name": "numUserSignUps",
      "outputs": [
        {
          "internalType": "uint256",
          "name": "",
          "type": "uint256"
        }
      ],
      "stateMutability": "view",
      "type": "function"
    },
    {
      "inputs": [
        {
          "internalType": "uint256",
          "name": "_outputBlindedUserState",
          "type": "uint256"
        },
        {
          "internalType": "uint256",
          "name": "_outputBlindedHashChain",
          "type": "uint256"
        },
        {
          "internalType": "uint256",
          "name": "_inputBlindedUserState",
          "type": "uint256"
        },
        {
          "internalType": "uint256[8]",
          "name": "_proof",
          "type": "uint256[8]"
        }
      ],
      "name": "processAttestations",
      "outputs": [],
      "stateMutability": "nonpayable",
      "type": "function"
    },
    {
      "inputs": [
        {
          "internalType": "uint256",
          "name": "_airdropAmount",
          "type": "uint256"
        }
      ],
      "name": "setAirdropAmount",
      "outputs": [],
      "stateMutability": "nonpayable",
      "type": "function"
    },
    {
      "inputs": [
        {
          "components": [
            {
              "internalType": "uint256[]",
              "name": "repNullifiers",
              "type": "uint256[]"
            },
            {
              "internalType": "uint256",
              "name": "epoch",
              "type": "uint256"
            },
            {
              "internalType": "uint256",
              "name": "epochKey",
              "type": "uint256"
            },
            {
              "internalType": "uint256",
              "name": "globalStateTree",
              "type": "uint256"
            },
            {
              "internalType": "uint256",
              "name": "attesterId",
              "type": "uint256"
            },
            {
              "internalType": "uint256",
              "name": "proveReputationAmount",
              "type": "uint256"
            },
            {
              "internalType": "uint256",
              "name": "minRep",
              "type": "uint256"
            },
            {
              "internalType": "uint256",
              "name": "proveGraffiti",
              "type": "uint256"
            },
            {
              "internalType": "uint256",
              "name": "graffitiPreImage",
              "type": "uint256"
            },
            {
              "internalType": "uint256[8]",
              "name": "proof",
              "type": "uint256[8]"
            }
          ],
          "internalType": "struct UnirepObjs.ReputationProof",
          "name": "_input",
          "type": "tuple"
        }
      ],
      "name": "spendReputation",
      "outputs": [],
      "stateMutability": "payable",
      "type": "function"
    },
    {
      "inputs": [
        {
          "internalType": "uint256",
          "name": "_blindedUserState",
          "type": "uint256"
        },
        {
          "internalType": "uint256",
          "name": "_blindedHashChain",
          "type": "uint256"
        },
        {
          "internalType": "uint256",
          "name": "_globalStateTree",
          "type": "uint256"
        },
        {
          "internalType": "uint256[8]",
          "name": "_proof",
          "type": "uint256[8]"
        }
      ],
      "name": "startUserStateTransition",
      "outputs": [],
      "stateMutability": "nonpayable",
      "type": "function"
    },
    {
      "inputs": [
        {
          "components": [
            {
              "internalType": "uint256",
              "name": "attesterId",
              "type": "uint256"
            },
            {
              "internalType": "uint256",
              "name": "posRep",
              "type": "uint256"
            },
            {
              "internalType": "uint256",
              "name": "negRep",
              "type": "uint256"
            },
            {
              "internalType": "uint256",
              "name": "graffiti",
              "type": "uint256"
            },
            {
              "internalType": "uint256",
              "name": "signUp",
              "type": "uint256"
            }
          ],
          "internalType": "struct UnirepObjs.Attestation",
          "name": "attestation",
          "type": "tuple"
        },
        {
          "internalType": "uint256",
          "name": "epochKey",
          "type": "uint256"
        },
        {
          "internalType": "uint256",
          "name": "toProofIndex",
          "type": "uint256"
        },
        {
          "internalType": "uint256",
          "name": "fromProofIndex",
          "type": "uint256"
        }
      ],
      "name": "submitAttestation",
      "outputs": [],
      "stateMutability": "payable",
      "type": "function"
    },
    {
      "inputs": [
        {
          "internalType": "address",
          "name": "attester",
          "type": "address"
        },
        {
          "internalType": "bytes",
          "name": "signature",
          "type": "bytes"
        },
        {
          "components": [
            {
              "internalType": "uint256",
              "name": "attesterId",
              "type": "uint256"
            },
            {
              "internalType": "uint256",
              "name": "posRep",
              "type": "uint256"
            },
            {
              "internalType": "uint256",
              "name": "negRep",
              "type": "uint256"
            },
            {
              "internalType": "uint256",
              "name": "graffiti",
              "type": "uint256"
            },
            {
              "internalType": "uint256",
              "name": "signUp",
              "type": "uint256"
            }
          ],
          "internalType": "struct UnirepObjs.Attestation",
          "name": "attestation",
          "type": "tuple"
        },
        {
          "internalType": "uint256",
          "name": "epochKey",
          "type": "uint256"
        },
        {
          "internalType": "uint256",
          "name": "toProofIndex",
          "type": "uint256"
        },
        {
          "internalType": "uint256",
          "name": "fromProofIndex",
          "type": "uint256"
        }
      ],
      "name": "submitAttestationViaRelayer",
      "outputs": [],
      "stateMutability": "payable",
      "type": "function"
    },
    {
      "inputs": [
        {
          "components": [
            {
              "internalType": "uint256",
              "name": "globalStateTree",
              "type": "uint256"
            },
            {
              "internalType": "uint256",
              "name": "epoch",
              "type": "uint256"
            },
            {
              "internalType": "uint256",
              "name": "epochKey",
              "type": "uint256"
            },
            {
              "internalType": "uint256[8]",
              "name": "proof",
              "type": "uint256[8]"
            }
          ],
          "internalType": "struct UnirepObjs.EpochKeyProof",
          "name": "_input",
          "type": "tuple"
        }
      ],
      "name": "submitEpochKeyProof",
      "outputs": [],
      "stateMutability": "nonpayable",
      "type": "function"
    },
    {
      "inputs": [],
      "name": "treeDepths",
      "outputs": [
        {
          "internalType": "uint8",
          "name": "globalStateTreeDepth",
          "type": "uint8"
        },
        {
          "internalType": "uint8",
          "name": "userStateTreeDepth",
          "type": "uint8"
        },
        {
          "internalType": "uint8",
          "name": "epochTreeDepth",
          "type": "uint8"
        }
      ],
      "stateMutability": "view",
      "type": "function"
    },
    {
      "inputs": [
        {
          "internalType": "uint256[8]",
          "name": "_proof",
          "type": "uint256[8]"
        }
      ],
      "name": "unpackProof",
      "outputs": [
        {
          "internalType": "uint256[2]",
          "name": "",
          "type": "uint256[2]"
        },
        {
          "internalType": "uint256[2][2]",
          "name": "",
          "type": "uint256[2][2]"
        },
        {
          "internalType": "uint256[2]",
          "name": "",
          "type": "uint256[2]"
        }
      ],
      "stateMutability": "pure",
      "type": "function"
    },
    {
      "inputs": [
        {
          "components": [
            {
              "internalType": "uint256",
              "name": "newGlobalStateTreeLeaf",
              "type": "uint256"
            },
            {
              "internalType": "uint256[]",
              "name": "epkNullifiers",
              "type": "uint256[]"
            },
            {
              "internalType": "uint256",
              "name": "transitionFromEpoch",
              "type": "uint256"
            },
            {
              "internalType": "uint256[]",
              "name": "blindedUserStates",
              "type": "uint256[]"
            },
            {
              "internalType": "uint256",
              "name": "fromGlobalStateTree",
              "type": "uint256"
            },
            {
              "internalType": "uint256[]",
              "name": "blindedHashChains",
              "type": "uint256[]"
            },
            {
              "internalType": "uint256",
              "name": "fromEpochTree",
              "type": "uint256"
            },
            {
              "internalType": "uint256[8]",
              "name": "proof",
              "type": "uint256[8]"
            }
          ],
          "internalType": "struct UnirepObjs.UserTransitionProof",
          "name": "_proof",
          "type": "tuple"
        },
        {
          "internalType": "uint256[]",
          "name": "proofIndexRecords",
          "type": "uint256[]"
        }
      ],
      "name": "updateUserStateRoot",
      "outputs": [],
      "stateMutability": "nonpayable",
      "type": "function"
    },
    {
      "inputs": [
        {
          "internalType": "uint256",
          "name": "_identityCommitment",
          "type": "uint256"
        }
      ],
      "name": "userSignUp",
      "outputs": [],
      "stateMutability": "nonpayable",
      "type": "function"
    },
    {
      "inputs": [
        {
          "components": [
            {
              "internalType": "uint256",
              "name": "globalStateTree",
              "type": "uint256"
            },
            {
              "internalType": "uint256",
              "name": "epoch",
              "type": "uint256"
            },
            {
              "internalType": "uint256",
              "name": "epochKey",
              "type": "uint256"
            },
            {
              "internalType": "uint256[8]",
              "name": "proof",
              "type": "uint256[8]"
            }
          ],
          "internalType": "struct UnirepObjs.EpochKeyProof",
          "name": "_input",
          "type": "tuple"
        }
      ],
      "name": "verifyEpochKeyValidity",
      "outputs": [
        {
          "internalType": "bool",
          "name": "",
          "type": "bool"
        }
      ],
      "stateMutability": "view",
      "type": "function"
    },
    {
      "inputs": [
        {
          "internalType": "uint256",
          "name": "_outputBlindedUserState",
          "type": "uint256"
        },
        {
          "internalType": "uint256",
          "name": "_outputBlindedHashChain",
          "type": "uint256"
        },
        {
          "internalType": "uint256",
          "name": "_inputBlindedUserState",
          "type": "uint256"
        },
        {
          "internalType": "uint256[8]",
          "name": "_proof",
          "type": "uint256[8]"
        }
      ],
      "name": "verifyProcessAttestationProof",
      "outputs": [
        {
          "internalType": "bool",
          "name": "",
          "type": "bool"
        }
      ],
      "stateMutability": "view",
      "type": "function"
    },
    {
      "inputs": [
        {
          "components": [
            {
              "internalType": "uint256[]",
              "name": "repNullifiers",
              "type": "uint256[]"
            },
            {
              "internalType": "uint256",
              "name": "epoch",
              "type": "uint256"
            },
            {
              "internalType": "uint256",
              "name": "epochKey",
              "type": "uint256"
            },
            {
              "internalType": "uint256",
              "name": "globalStateTree",
              "type": "uint256"
            },
            {
              "internalType": "uint256",
              "name": "attesterId",
              "type": "uint256"
            },
            {
              "internalType": "uint256",
              "name": "proveReputationAmount",
              "type": "uint256"
            },
            {
              "internalType": "uint256",
              "name": "minRep",
              "type": "uint256"
            },
            {
              "internalType": "uint256",
              "name": "proveGraffiti",
              "type": "uint256"
            },
            {
              "internalType": "uint256",
              "name": "graffitiPreImage",
              "type": "uint256"
            },
            {
              "internalType": "uint256[8]",
              "name": "proof",
              "type": "uint256[8]"
            }
          ],
          "internalType": "struct UnirepObjs.ReputationProof",
          "name": "_input",
          "type": "tuple"
        }
      ],
      "name": "verifyReputation",
      "outputs": [
        {
          "internalType": "bool",
          "name": "",
          "type": "bool"
        }
      ],
      "stateMutability": "view",
      "type": "function"
    },
    {
      "inputs": [
        {
          "internalType": "uint256",
          "name": "_blindedUserState",
          "type": "uint256"
        },
        {
          "internalType": "uint256",
          "name": "_blindedHashChain",
          "type": "uint256"
        },
        {
          "internalType": "uint256",
          "name": "_GSTRoot",
          "type": "uint256"
        },
        {
          "internalType": "uint256[8]",
          "name": "_proof",
          "type": "uint256[8]"
        }
      ],
      "name": "verifyStartTransitionProof",
      "outputs": [
        {
          "internalType": "bool",
          "name": "",
          "type": "bool"
        }
      ],
      "stateMutability": "view",
      "type": "function"
    },
    {
      "inputs": [
        {
          "components": [
            {
              "internalType": "uint256",
              "name": "epoch",
              "type": "uint256"
            },
            {
              "internalType": "uint256",
              "name": "epochKey",
              "type": "uint256"
            },
            {
              "internalType": "uint256",
              "name": "globalStateTree",
              "type": "uint256"
            },
            {
              "internalType": "uint256",
              "name": "attesterId",
              "type": "uint256"
            },
            {
              "internalType": "uint256",
              "name": "userHasSignedUp",
              "type": "uint256"
            },
            {
              "internalType": "uint256[8]",
              "name": "proof",
              "type": "uint256[8]"
            }
          ],
          "internalType": "struct UnirepObjs.SignUpProof",
          "name": "_input",
          "type": "tuple"
        }
      ],
      "name": "verifyUserSignUp",
      "outputs": [
        {
          "internalType": "bool",
          "name": "",
          "type": "bool"
        }
      ],
      "stateMutability": "view",
      "type": "function"
    },
    {
      "inputs": [
        {
          "components": [
            {
              "internalType": "uint256",
              "name": "newGlobalStateTreeLeaf",
              "type": "uint256"
            },
            {
              "internalType": "uint256[]",
              "name": "epkNullifiers",
              "type": "uint256[]"
            },
            {
              "internalType": "uint256",
              "name": "transitionFromEpoch",
              "type": "uint256"
            },
            {
              "internalType": "uint256[]",
              "name": "blindedUserStates",
              "type": "uint256[]"
            },
            {
              "internalType": "uint256",
              "name": "fromGlobalStateTree",
              "type": "uint256"
            },
            {
              "internalType": "uint256[]",
              "name": "blindedHashChains",
              "type": "uint256[]"
            },
            {
              "internalType": "uint256",
              "name": "fromEpochTree",
              "type": "uint256"
            },
            {
              "internalType": "uint256[8]",
              "name": "proof",
              "type": "uint256[8]"
            }
          ],
          "internalType": "struct UnirepObjs.UserTransitionProof",
          "name": "_input",
          "type": "tuple"
        }
      ],
      "name": "verifyUserStateTransition",
      "outputs": [
        {
          "internalType": "bool",
          "name": "",
          "type": "bool"
        }
      ],
      "stateMutability": "view",
      "type": "function"
    }
  ],
  "bytecode": "0x6101606040527f30644e72e131a029b85045b68181585d2833e84879b9709143e1f593f0000001620000336101806200049d565b6040516020818303038152906040528051906020012060001c620000589190620006c6565b600055600160075560006009556001600a5560016010553480156200007c57600080fd5b5060405162005246380380620052468339810160408190526200009f9162000373565b8b601260008201518160000160006101000a81548160ff021916908360ff16021790555060208201518160000160016101000a81548160ff021916908360ff16021790555060408201518160000160026101000a81548160ff021916908360ff16021790555090505089600160006101000a8154816001600160a01b0302191690836001600160a01b0316021790555088600260006101000a8154816001600160a01b0302191690836001600160a01b0316021790555087600360006101000a8154816001600160a01b0302191690836001600160a01b0316021790555086600460006101000a8154816001600160a01b0302191690836001600160a01b0316021790555085600560006101000a8154816001600160a01b0302191690836001600160a01b0316021790555084600660006101000a8154816001600160a01b0302191690836001600160a01b031602179055508360ff1660c08160ff1660f81b815250508260ff1660e08160ff1660f81b81525050816080818152505042600881905550600060018d6000015160026200023a9190620005b4565b620002469190620006ac565b9050808c600001511115620002785760405162461bcd60e51b81526004016200026f90620004af565b60405180910390fd5b8b516101005260208d015160009060019062000296906002620005b4565b620002a29190620006ac565b9050808d602001511115620002cb5760405162461bcd60e51b81526004016200026f90620004e6565b60208d01516101205260408e0151600190620002e9906002620005b4565b620002f59190620006ac565b60a05250506101405250620006fd9950505050505050505050565b80516001600160a01b03811681146200032857600080fd5b919050565b6000604082840312156200033f578081fd5b6200034b604062000528565b9050815181526020820151602082015292915050565b805160ff811681146200032857600080fd5b6000806000806000806000806000806000808c8e036101e081121562000397578889fd5b6060811215620003a5578889fd5b50620003b2606062000528565b620003bd8e62000361565b8152620003cd60208f0162000361565b6020820152620003e060408f0162000361565b60408201529b50620003f68e60608f016200032d565b9a506200040660a08e0162000310565b99506200041660c08e0162000310565b98506200042660e08e0162000310565b9750620004376101008e0162000310565b9650620004486101208e0162000310565b9550620004596101408e0162000310565b94506200046a6101608e0162000361565b93506200047b6101808e0162000361565b92506101a08d015191506101c08d015190509295989b509295989b509295989b565b650556e697265760d41b815260060190565b6020808252601e908201527f556e697265703a20696e76616c6964206d617855736572732076616c75650000604082015260600190565b60208082526022908201527f556e697265703a20696e76616c6964206d61784174746573746572732076616c604082015261756560f01b606082015260800190565b604051601f8201601f191681016001600160401b03811182821017156200055f57634e487b7160e01b600052604160045260246000fd5b604052919050565b80825b60018086116200057b5750620005ab565b818704821115620005905762000590620006e7565b808616156200059e57918102915b9490941c9380026200056a565b94509492505050565b6000620005c860001960ff851684620005cf565b9392505050565b600082620005e057506001620005c8565b81620005ef57506000620005c8565b8160018114620006085760028114620006135762000647565b6001915050620005c8565b60ff841115620006275762000627620006e7565b6001841b915084821115620006405762000640620006e7565b50620005c8565b5060208310610133831016604e8410600b84101617156200067f575081810a83811115620006795762000679620006e7565b620005c8565b6200068e848484600162000567565b808604821115620006a357620006a3620006e7565b02949350505050565b600082821015620006c157620006c1620006e7565b500390565b600082620006e257634e487b7160e01b81526012600452602481fd5b500690565b634e487b7160e01b600052601160045260246000fd5b60805160a05160c05160f81c60e05160f81c6101005161012051610140516149fa6200084c6000396000818161088f0152818161148b01528181611c9401528181611daf01526128c3015260008181611159015281816123840152612cdf015260008181610bcc0152612b730152600081816114cf01528181611796015281816118380152818161188e015281816118eb01528181611948015281816119a501528181611a0201528181611a5f01528181611abd0152612a07015260008181610f1001528181610f7c01528181611dd901528181611e9601528181611f4901528181611fcc01528181612054015281816120b60152818161210e0152818161216d015281816121ec01526126a901526000818161093801528181611565015281816116b701528181611d3d0152818161231e01526129240152600081816111c30152612a7201526149fa6000f3fe60806040526004361061027d5760003560e01c806398588c1f1161014f578063b876ed71116100c1578063e1b0e8021161007a578063e1b0e802146106f5578063e79e23e91461070a578063e87101b11461072a578063f5ab0dd61461073f578063f73c8ebb1461076e578063fadd942d1461078e5761027d565b8063b876ed7114610658578063bff3df4114610678578063c26396731461068b578063cd5032e2146106a0578063d3aa645b146106c0578063de723886146106e05761027d565b8063a710d60f11610113578063a710d60f1461059d578063a7c264ca146105bd578063a7ebaa75146105df578063ac98e5df146105f4578063ad944e4714610618578063b530dc8c146106385761027d565b806398588c1f146105085780639e2e79dc14610528578063a14a9fe214610548578063a27e572a14610568578063a5500c301461057d5761027d565b806357d775f8116101f357806376671808116101ac578063766718081461047f578063839beeb81461049457806386826c4d146104a95780638728f5b2146104c95780639109d1eb146104de578063918f0c16146104f35761027d565b806357d775f8146103e45780635b3745b5146103f9578063606736fb1461041957806366c0f31f1461042c5780636e85e8141461044c5780636fbbdb361461046c5761027d565b80631e06fc01116102455780631e06fc011461033a578063410a14041461034f578063417b16e31461036f578063456bfc711461038f578063494e2171146103af57806356df4634146103cf5761027d565b806305d9ab821461028257806307d83308146102b8578063131a91ad146102cd578063132331f2146102ed5780631c89e8e81461030d575b600080fd5b34801561028e57600080fd5b506102a261029d3660046136d4565b6107a3565b6040516102af9190613c5e565b60405180910390f35b3480156102c457600080fd5b506102a26107ea565b3480156102d957600080fd5b506102a26102e8366004613508565b6107f0565b3480156102f957600080fd5b506102a2610308366004613631565b610802565b34801561031957600080fd5b5061032d610328366004613631565b610814565b6040516102af9190613c53565b61034d610348366004613649565b610829565b005b34801561035b57600080fd5b5061032d61036a3660046136d4565b6109a9565b34801561037b57600080fd5b5061034d61038a366004613631565b610b9b565b34801561039b57600080fd5b5061032d6103aa3660046137f8565b610cbb565b3480156103bb57600080fd5b5061034d6103ca36600461388c565b610eaf565b3480156103db57600080fd5b5061034d61112a565b3480156103f057600080fd5b506102a26111c1565b34801561040557600080fd5b5061032d6104143660046138ed565b6111e5565b61034d610427366004613721565b6113f1565b34801561043857600080fd5b5061034d6104473660046136d4565b611656565b34801561045857600080fd5b5061032d610467366004613721565b611769565b61034d61047a366004613573565b611be5565b34801561048b57600080fd5b506102a2611da7565b3480156104a057600080fd5b506102a2611dad565b3480156104b557600080fd5b5061032d6104c4366004613859565b611dd1565b3480156104d557600080fd5b506102a261231c565b3480156104ea57600080fd5b506102a2612340565b3480156104ff57600080fd5b506102a2612346565b34801561051457600080fd5b5061034d610523366004613522565b61234c565b34801561053457600080fd5b506102a2610543366004613932565b61242e565b34801561055457600080fd5b506102a2610563366004613859565b612467565b34801561057457600080fd5b5061034d6124a1565b34801561058957600080fd5b5061034d610598366004613631565b6124c3565b3480156105a957600080fd5b5061032d6105b83660046138ed565b612501565b3480156105c957600080fd5b506105d26126a7565b6040516102af919061480f565b3480156105eb57600080fd5b5061034d6126cb565b34801561060057600080fd5b506106096126e0565b6040516102af9392919061481d565b34801561062457600080fd5b506102a2610633366004613721565b6126fc565b34801561064457600080fd5b506102a2610653366004613508565b612742565b34801561066457600080fd5b5061034d6106733660046138ed565b612754565b61034d6106863660046137f8565b612829565b34801561069757600080fd5b506105d2612a05565b3480156106ac57600080fd5b506102a26106bb3660046137f8565b612a29565b3480156106cc57600080fd5b506102a26106db366004613508565b612a59565b3480156106ec57600080fd5b5061034d612a6b565b34801561070157600080fd5b506102a2612b71565b34801561071657600080fd5b506102a26107253660046138ed565b612b95565b34801561073657600080fd5b506102a2612bae565b34801561074b57600080fd5b5061075f61075a3660046135f5565b612bb4565b6040516102af93929190613be3565b34801561077a57600080fd5b5061034d6107893660046138ed565b612c3d565b34801561079a57600080fd5b506102a2612cdd565b600081600001518260200151836040015184606001516040516020016107cc9493929190613b7f565b6040516020818303038152906040528051906020012090505b919050565b600d5481565b600f6020526000908152604090205481565b600b6020526000908152604090205481565b600c6020526000908152604090205460ff1681565b336000908152600f602052604090205461085e5760405162461bcd60e51b815260040161085590613f29565b60405180910390fd5b336000908152600f602052604090205484351461088d5760405162461bcd60e51b815260040161085590614496565b7f000000000000000000000000000000000000000000000000000000000000000034146108cc5760405162461bcd60e51b815260040161085590613fdd565b81158015906108dc5750600a5482105b80156108e95750600a5481105b6109055760405162461bcd60e51b81526004016108559061441d565b6080840135158061091a575083608001356001145b6109365760405162461bcd60e51b815260040161085590613fa6565b7f00000000000000000000000000000000000000000000000000000000000000008311156109765760405162461bcd60e51b815260040161085590614572565b600d546109839034612d01565b600d556109a33361099936879003870187613683565b8585856000612d14565b50505050565b60408051600380825260808201909252600091829190602082016060803683370190505090508260000151816000815181106109f557634e487b7160e01b600052603260045260246000fd5b602002602001018181525050826020015181600181518110610a2757634e487b7160e01b600052603260045260246000fd5b602002602001018181525050826040015181600281518110610a5957634e487b7160e01b600052603260045260246000fd5b60200260200101818152505060005b81518160ff161015610add576000805160206149a5833981519152828260ff1681518110610aa657634e487b7160e01b600052603260045260246000fd5b602002602001015110610acb5760405162461bcd60e51b8152600401610855906144cd565b80610ad581614922565b915050610a68565b50610ae6613239565b610af38460600151612bb4565b60408085018290526020850183905283855260015490516361971b8760e11b81526001600160a01b039091169363c32e370e93610b399391929091908890600401613c0c565b60206040518083038186803b158015610b5157600080fd5b505afa158015610b65573d6000803e3d6000fd5b505050506040513d601f19601f82011682018060405250810190610b899190613611565b15156060909101819052915050919050565b6000818152600c602052604090205460ff1615610bca5760405162461bcd60e51b815260040161085590614389565b7f000000000000000000000000000000000000000000000000000000000000000060095410610c0b5760405162461bcd60e51b8152600401610855906143cf565b336000908152600f60209081526040808320546011835281842054858552600c909352908320805460ff19166001179055600980549193610c4b83614907565b91905055506007546000805160206149858339815191526000604051610c719190613ce1565b60405180910390a2826007547faf92f92b28945d280b51131bc986d2da66b560950f1a5126f12b7f847dae8f7d8484604051610cae9291906147dd565b60405180910390a3505050565b60408051600580825260c082019092526000918291906020820160a080368337019050509050826000015181600081518110610d0757634e487b7160e01b600052603260045260246000fd5b602002602001018181525050826020015181600181518110610d3957634e487b7160e01b600052603260045260246000fd5b602002602001018181525050826040015181600281518110610d6b57634e487b7160e01b600052603260045260246000fd5b602002602001018181525050826060015181600381518110610d9d57634e487b7160e01b600052603260045260246000fd5b602002602001018181525050826080015181600481518110610dcf57634e487b7160e01b600052603260045260246000fd5b60200260200101818152505060005b81518160ff161015610e53576000805160206149a5833981519152828260ff1681518110610e1c57634e487b7160e01b600052603260045260246000fd5b602002602001015110610e415760405162461bcd60e51b8152600401610855906144cd565b80610e4b81614922565b915050610dde565b50610e5c613239565b610e698460a00151612bb4565b60408085018290526020850183905283855260065490516361971b8760e11b81526001600160a01b039091169363c32e370e93610b399391929091908890600401613c0c565b6000610eba83612467565b6000818152600b602052604090205490915015610ee95760405162461bcd60e51b815260040161085590613d78565b600754836040015110610f0e5760405162461bcd60e51b8152600401610855906141fa565b7f000000000000000000000000000000000000000000000000000000000000000060ff1683602001515114610f555760405162461bcd60e51b81526004016108559061452a565b826060015151600214610f7a5760405162461bcd60e51b815260040161085590613e92565b7f000000000000000000000000000000000000000000000000000000000000000060ff168360a001515114610fc15760405162461bcd60e51b8152600401610855906142b8565b60005b825181101561105b57828181518110610fed57634e487b7160e01b600052603260045260246000fd5b602002602001015160001415801561102d5750600a5483828151811061102357634e487b7160e01b600052603260045260246000fd5b6020026020010151105b6110495760405162461bcd60e51b81526004016108559061441d565b8061105381614907565b915050610fc4565b50600a546007546040516000805160206149858339815191529061108190600190613ce1565b60405180910390a2807f5b552a9df44a1ab5bbe960f96fe04b35454baded1ca53c89d13903661cf9fee185856040516110bb92919061470c565b60405180910390a283516007546040517f5e4945fc83b420d245560b51ac02c824732652e0552b5d8537800db0c690a663906110f8908590613c5e565b60405180910390a36000828152600b60205260408120829055600a80549161111f83614907565b919050555050505050565b336000908152600f6020526040902054156111575760405162461bcd60e51b815260040161085590613d32565b7f0000000000000000000000000000000000000000000000000000000000000000601054106111985760405162461bcd60e51b815260040161085590614266565b60108054336000908152600f602052604081208290559091906111ba83614907565b9190505550565b7f000000000000000000000000000000000000000000000000000000000000000081565b6040805160038082526080820190925260009182919060208201606080368337019050509050858160008151811061122d57634e487b7160e01b600052603260045260246000fd5b602002602001018181525050848160018151811061125b57634e487b7160e01b600052603260045260246000fd5b602002602001018181525050838160028151811061128957634e487b7160e01b600052603260045260246000fd5b60200260200101818152505060005b81518160ff16101561130d576000805160206149a5833981519152828260ff16815181106112d657634e487b7160e01b600052603260045260246000fd5b6020026020010151106112fb5760405162461bcd60e51b8152600401610855906144cd565b8061130581614922565b915050611298565b50611316613239565b604080516101008181019092526113459186906008908390839080828437600092019190915250612bb4915050565b60408085018290526020850183905283855260025490516361971b8760e11b81526001600160a01b039091169363c32e370e9361138b9391929091908890600401613c0c565b60206040518083038186803b1580156113a357600080fd5b505afa1580156113b7573d6000803e3d6000fd5b505050506040513d601f19601f820116820180604052508101906113db9190613611565b151560609091018190529150505b949350505050565b60006113fc826126fc565b6000818152600b60205260409020549091501561142b5760405162461bcd60e51b815260040161085590613d78565b336000908152600f60205260409020546114575760405162461bcd60e51b815260040161085590613f29565b6080820151336000908152600f6020526040902054146114895760405162461bcd60e51b815260040161085590614496565b7f000000000000000000000000000000000000000000000000000000000000000034146114c85760405162461bcd60e51b815260040161085590613fdd565b81515160ff7f0000000000000000000000000000000000000000000000000000000000000000161461150c5760405162461bcd60e51b815260040161085590614155565b6007548260200151146115315760405162461bcd60e51b815260040161085590614029565b6080820151336000908152600f6020526040902054146115635760405162461bcd60e51b8152600401610855906145a9565b7f0000000000000000000000000000000000000000000000000000000000000000826040015111156115a75760405162461bcd60e51b815260040161085590614572565b600d546115b49034612d01565b600d556115bf613273565b336000908152600f60205260409081902054825260a084015182820152600a548482015160075492519192909183907fb2bf4a676a6a5ef7e686a52ccf9f83f83acb1cac5d2eef1e090206a688c7777e9061161b908990614638565b60405180910390a4611637338386604001518460006002612d14565b6000838152600b60205260408120829055600a80549161111f83614907565b6000611661826107a3565b6000818152600b6020526040902054909150156116905760405162461bcd60e51b815260040161085590613d78565b6007548260200151146116b55760405162461bcd60e51b8152600401610855906141a4565b7f0000000000000000000000000000000000000000000000000000000000000000826040015111156116f95760405162461bcd60e51b815260040161085590614572565b6000600a5490508260400151600754827ff897f63ef79d1e56ab9f314e1e74d030bcd34a4f0d09ed2834f1efeebf9a4ed98660405161173891906145fe565b60405180910390a46000828152600b60205260408120829055600a80549161175f83614907565b9190505550505050565b6040805160128082526102608201909252600091829190602082016102408036833701905050905060005b7f000000000000000000000000000000000000000000000000000000000000000060ff168160ff16101561182f578351805160ff83169081106117e757634e487b7160e01b600052603260045260246000fd5b6020026020010151828260ff168151811061181257634e487b7160e01b600052603260045260246000fd5b60209081029190910101528061182781614922565b915050611794565b508260200151817f000000000000000000000000000000000000000000000000000000000000000060ff168151811061187857634e487b7160e01b600052603260045260246000fd5b60209081029190910101526040830151816118b47f00000000000000000000000000000000000000000000000000000000000000006001614883565b60ff16815181106118d557634e487b7160e01b600052603260045260246000fd5b60209081029190910101526060830151816119117f00000000000000000000000000000000000000000000000000000000000000006002614883565b60ff168151811061193257634e487b7160e01b600052603260045260246000fd5b602090810291909101015260808301518161196e7f00000000000000000000000000000000000000000000000000000000000000006003614883565b60ff168151811061198f57634e487b7160e01b600052603260045260246000fd5b602090810291909101015260a0830151816119cb7f00000000000000000000000000000000000000000000000000000000000000006004614883565b60ff16815181106119ec57634e487b7160e01b600052603260045260246000fd5b602090810291909101015260c083015181611a287f00000000000000000000000000000000000000000000000000000000000000006005614883565b60ff1681518110611a4957634e487b7160e01b600052603260045260246000fd5b602090810291909101015260e083015181611a857f00000000000000000000000000000000000000000000000000000000000000006006614883565b60ff1681518110611aa657634e487b7160e01b600052603260045260246000fd5b602090810291909101015261010083015181611ae37f00000000000000000000000000000000000000000000000000000000000000006007614883565b60ff1681518110611b0457634e487b7160e01b600052603260045260246000fd5b60200260200101818152505060005b81518160ff161015611b88576000805160206149a5833981519152828260ff1681518110611b5157634e487b7160e01b600052603260045260246000fd5b602002602001015110611b765760405162461bcd60e51b8152600401610855906144cd565b80611b8081614922565b915050611b13565b50611b91613239565b611b9f846101200151612bb4565b60408085018290526020850183905283855260055490516361971b8760e11b81526001600160a01b039091169363c32e370e93610b399391929091908890600401613c0c565b611c258787878080601f016020809104026020016040519081016040528093929190818152602001838380828437600092019190915250612e2392505050565b6001600160a01b0387166000908152600f6020526040902054611c5a5760405162461bcd60e51b815260040161085590613f29565b6001600160a01b0387166000908152600f6020526040902054843514611c925760405162461bcd60e51b815260040161085590614496565b7f00000000000000000000000000000000000000000000000000000000000000003414611cd15760405162461bcd60e51b815260040161085590613fdd565b8115801590611ce15750600a5482105b8015611cee5750600a5481105b611d0a5760405162461bcd60e51b81526004016108559061441d565b60808401351580611d1f575083608001356001145b611d3b5760405162461bcd60e51b815260040161085590613fa6565b7f0000000000000000000000000000000000000000000000000000000000000000831115611d7b5760405162461bcd60e51b815260040161085590614572565b600d54611d889034612d01565b600d55611d9e8761099936879003870187613683565b50505050505050565b60075481565b7f000000000000000000000000000000000000000000000000000000000000000081565b600080611dff7f000000000000000000000000000000000000000000000000000000000000000060026148c7565b611e0a906006614883565b60ff1667ffffffffffffffff811115611e3357634e487b7160e01b600052604160045260246000fd5b604051908082528060200260200182016040528015611e5c578160200160208202803683370190505b509050826000015181600081518110611e8557634e487b7160e01b600052603260045260246000fd5b60200260200101818152505060005b7f000000000000000000000000000000000000000000000000000000000000000060ff168160ff161015611f3d5783602001518160ff1681518110611ee957634e487b7160e01b600052603260045260246000fd5b602002602001015182826001611eff9190614883565b60ff1681518110611f2057634e487b7160e01b600052603260045260246000fd5b602090810291909101015280611f3581614922565b915050611e94565b50604083015181611f6f7f00000000000000000000000000000000000000000000000000000000000000006001614883565b60ff1681518110611f9057634e487b7160e01b600052603260045260246000fd5b6020026020010181815250508260600151600081518110611fc157634e487b7160e01b600052603260045260246000fd5b6020026020010151817f00000000000000000000000000000000000000000000000000000000000000006002611ff79190614883565b60ff168151811061201857634e487b7160e01b600052603260045260246000fd5b602002602001018181525050826060015160018151811061204957634e487b7160e01b600052603260045260246000fd5b6020026020010151817f0000000000000000000000000000000000000000000000000000000000000000600361207f9190614883565b60ff16815181106120a057634e487b7160e01b600052603260045260246000fd5b60209081029190910101526080830151816120dc7f00000000000000000000000000000000000000000000000000000000000000006004614883565b60ff16815181106120fd57634e487b7160e01b600052603260045260246000fd5b60200260200101818152505060005b7f000000000000000000000000000000000000000000000000000000000000000060ff168160ff1610156121e0578360a001518160ff168151811061216157634e487b7160e01b600052603260045260246000fd5b602002602001015182827f000000000000000000000000000000000000000000000000000000000000000060056121989190614883565b6121a29190614883565b60ff16815181106121c357634e487b7160e01b600052603260045260246000fd5b6020908102919091010152806121d881614922565b91505061210c565b5060c0830151816122127f000000000000000000000000000000000000000000000000000000000000000060026148c7565b61221d906005614883565b60ff168151811061223e57634e487b7160e01b600052603260045260246000fd5b60200260200101818152505060005b81518160ff1610156122c2576000805160206149a5833981519152828260ff168151811061228b57634e487b7160e01b600052603260045260246000fd5b6020026020010151106122b05760405162461bcd60e51b8152600401610855906144cd565b806122ba81614922565b91505061224d565b506122cb613239565b6122d88460e00151612bb4565b6040808501829052602085018390528385526004805491516361971b8760e11b81526001600160a01b039092169463c32e370e94610b399491939092899101613c0c565b7f000000000000000000000000000000000000000000000000000000000000000081565b60105481565b60095481565b6001600160a01b0383166000908152600f6020526040902054156123825760405162461bcd60e51b815260040161085590613d32565b7f0000000000000000000000000000000000000000000000000000000000000000601054106123c35760405162461bcd60e51b815260040161085590614266565b6124038383838080601f016020809104026020016040519081016040528093929190818152602001838380828437600092019190915250612e2392505050565b601080546001600160a01b0385166000908152600f6020526040812082905590919061175f83614907565b6000848484846040516020016124479493929190613b7f565b604051602081830303815290604052805190602001209050949350505050565b80516020808301516040808501516060860151608087015160a088015160c089015160e08a015195516000996107cc999098979101613afb565b336000818152600e602052604081208054919055906124c09082612eb5565b50565b336000908152600f60205260409020546124ef5760405162461bcd60e51b815260040161085590613f29565b33600090815260116020526040902055565b6040805160038082526080820190925260009182919060208201606080368337019050509050858160008151811061254957634e487b7160e01b600052603260045260246000fd5b602002602001018181525050848160018151811061257757634e487b7160e01b600052603260045260246000fd5b60200260200101818152505083816002815181106125a557634e487b7160e01b600052603260045260246000fd5b60200260200101818152505060005b81518160ff161015612629576000805160206149a5833981519152828260ff16815181106125f257634e487b7160e01b600052603260045260246000fd5b6020026020010151106126175760405162461bcd60e51b8152600401610855906144cd565b8061262181614922565b9150506125b4565b50612632613239565b604080516101008181019092526126619186906008908390839080828437600092019190915250612bb4915050565b60408085018290526020850183905283855260035490516361971b8760e11b81526001600160a01b039091169363c32e370e9361138b9391929091908890600401613c0c565b7f000000000000000000000000000000000000000000000000000000000000000081565b600d8054600091829055906124c09082612eb5565b60125460ff808216916101008104821691620100009091041683565b80516020808301516040808501516060860151608087015160a088015160c089015160e08a01516101008b01516101208c0151975160009b6107cc9b909a999101613a6c565b60116020526000908152604090205481565b600061278b85858585600880602002604051908101604052809291908260086020028082843760009201919091525061242e915050565b6000818152600b6020526040902054909150156127ba5760405162461bcd60e51b815260040161085590613d78565b6000600a5490508386827fc70a0250765c7e3a778b8771883540e979ac92fa4002835744533497db87064688876040516127f59291906147c1565b60405180910390a46000828152600b60205260408120829055600a80549161281c83614907565b9190505550505050505050565b600061283482612a29565b6000818152600b6020526040902054909150156128635760405162461bcd60e51b815260040161085590613d78565b336000908152600f602052604090205461288f5760405162461bcd60e51b815260040161085590613f29565b6060820151336000908152600f6020526040902054146128c15760405162461bcd60e51b815260040161085590614496565b7f000000000000000000000000000000000000000000000000000000000000000034146129005760405162461bcd60e51b815260040161085590613fdd565b6007548251146129225760405162461bcd60e51b815260040161085590613e3e565b7f0000000000000000000000000000000000000000000000000000000000000000826020015111156129665760405162461bcd60e51b815260040161085590614572565b600d546129739034612d01565b600d5561297e613273565b336000818152600f602090815260408083205485529282526011815290829020548382015260016080840152600a549085015160075492519192909183907f58b1080086db5bb58e2e8e2f28dc2a26b705277257655e9296c7ebfcfb817136906129e99089906146c5565b60405180910390a4611637338386602001518460006001612d14565b7f000000000000000000000000000000000000000000000000000000000000000081565b80516020808301516040808501516060860151608087015160a088015193516000976107cc979096959101613baa565b600e6020526000908152604090205481565b60005a90507f000000000000000000000000000000000000000000000000000000000000000060085442612a9f91906148f0565b1015612abd5760405162461bcd60e51b815260040161085590613f6f565b6007546000805160206149858339815191526003604051612ade9190613ce1565b60405180910390a26007546040517f751bb1ba7b27b3979a32844d4d05aa16a46a771b751593704834a80311e3a9b990600090a24260085560078054906000612b2683614907565b91905055506000612b385a8390612f51565b9050612b5d612b47823a612f5d565b336000908152600e602052604090205490612d01565b336000908152600e60205260409020555050565b7f000000000000000000000000000000000000000000000000000000000000000081565b6000848484846040516020016124479493929190613b53565b60085481565b612bbc6132a2565b612bc46132c0565b612bcc6132a2565b50506040805180820182528351815260208085015181830152825160808082018552868501518286019081526060808901519084015282528451808601865290870151815260a08701518184015281830152835180850190945260c0860151845260e0909501519083015293909150565b6000612c4b85858585612b95565b6000818152600b602052604090205490915015612c7a5760405162461bcd60e51b815260040161085590613d78565b6000600a54905083817ff32686467e2fc0ec47df070bcf076510ff790a7ec36e2c65de53ce0d17906b69888887604051612cb6939291906147eb565b60405180910390a36000828152600b60205260408120829055600a80549161281c83614907565b7f000000000000000000000000000000000000000000000000000000000000000081565b6000612d0d828461486b565b9392505050565b6000805160206149a5833981519152856020015110612d455760405162461bcd60e51b815260040161085590614305565b6000805160206149a5833981519152856040015110612d765760405162461bcd60e51b815260040161085590614454565b6000805160206149a5833981519152856060015110612da75760405162461bcd60e51b815260040161085590613dfa565b6007546000805160206149858339815191526002604051612dc89190613ce1565b60405180910390a2856001600160a01b0316846007547f59baeb298d5f1f7ee5d41668cb8169a0d0b7fff584ab2e311fd1f2de985cda2084898888604051612e139493929190613c85565b60405180910390a4505050505050565b60008230604051602001612e38929190613a45565b60405160208183030381529060405280519060200120604051602001612e5e9190613ac7565b604051602081830303815290604052805190602001209050826001600160a01b0316612e8a8284612f69565b6001600160a01b031614612eb05760405162461bcd60e51b815260040161085590613edf565b505050565b80471015612ed55760405162461bcd60e51b81526004016108559061411e565b6000826001600160a01b031682604051612eee90613af8565b60006040518083038185875af1925050503d8060008114612f2b576040519150601f19603f3d011682016040523d82523d6000602084013e612f30565b606091505b5050905080612eb05760405162461bcd60e51b81526004016108559061407f565b6000612d0d82846148f0565b6000612d0d82846148a8565b6000806000612f788585612f8d565b91509150612f8581612ffd565b509392505050565b600080825160411415612fc45760208301516040840151606085015160001a612fb88782858561312a565b94509450505050612ff6565b825160401415612fee5760208301516040840151612fe386838361320a565b935093505050612ff6565b506000905060025b9250929050565b600081600481111561301f57634e487b7160e01b600052602160045260246000fd5b141561302a576124c0565b600181600481111561304c57634e487b7160e01b600052602160045260246000fd5b141561306a5760405162461bcd60e51b815260040161085590613cfb565b600281600481111561308c57634e487b7160e01b600052602160045260246000fd5b14156130aa5760405162461bcd60e51b815260040161085590613dc3565b60038160048111156130cc57634e487b7160e01b600052602160045260246000fd5b14156130ea5760405162461bcd60e51b8152600401610855906140dc565b600481600481111561310c57634e487b7160e01b600052602160045260246000fd5b14156124c05760405162461bcd60e51b815260040161085590614347565b6000807f7fffffffffffffffffffffffffffffff5d576e7357a4501ddfe92f46681b20a08311156131615750600090506003613201565b8460ff16601b1415801561317957508460ff16601c14155b1561318a5750600090506004613201565b6000600187878787604051600081526020016040526040516131af9493929190613c67565b6020604051602081039080840390855afa1580156131d1573d6000803e3d6000fd5b5050604051601f1901519150506001600160a01b0381166131fa57600060019250925050613201565b9150600090505b94509492505050565b6000806001600160ff1b03831660ff84901c601b0161322b8782888561312a565b935093505050935093915050565b604051806080016040528061324c6132a2565b81526020016132596132c0565b81526020016132666132a2565b8152600060209091015290565b6040518060a0016040528060008152602001600081526020016000815260200160008152602001600081525090565b60405180604001604052806002906020820280368337509192915050565b60405180604001604052806002905b6132d76132a2565b8152602001906001900390816132cf5790505090565b80356001600160a01b03811681146107e557600080fd5b600082601f830112613314578081fd5b6101006133208161483a565b8084868487011115613330578485fd5b8493505b600884101561335457803583526001939093019260209283019201613334565b5095945050505050565b600082601f83011261336e578081fd5b8135602067ffffffffffffffff82111561338a5761338a61496e565b80820261339882820161483a565b8381528281019086840183880185018910156133b2578687fd5b8693505b858410156133d45780358352600193909301929184019184016133b6565b50979650505050505050565b60008083601f8401126133f1578182fd5b50813567ffffffffffffffff811115613408578182fd5b602083019150836020828501011115612ff657600080fd5b600060a08284031215613431578081fd5b50919050565b60006101e08284031215613449578081fd5b61345461010061483a565b905081358152602082013567ffffffffffffffff8082111561347557600080fd5b6134818583860161335e565b60208401526040840135604084015260608401359150808211156134a457600080fd5b6134b08583860161335e565b60608401526080840135608084015260a08401359150808211156134d357600080fd5b506134e08482850161335e565b60a08301525060c082013560c08201526134fd8360e08401613304565b60e082015292915050565b600060208284031215613519578081fd5b612d0d826132ed565b600080600060408486031215613536578182fd5b61353f846132ed565b9250602084013567ffffffffffffffff81111561355a578283fd5b613566868287016133e0565b9497909650939450505050565b6000806000806000806000610140888a03121561358e578283fd5b613597886132ed565b9650602088013567ffffffffffffffff8111156135b2578384fd5b6135be8a828b016133e0565b90975095506135d290508960408a01613420565b9699959850939660e0810135956101008201359550610120909101359350915050565b60006101008284031215613607578081fd5b612d0d8383613304565b600060208284031215613622578081fd5b81518015158114612d0d578182fd5b600060208284031215613642578081fd5b5035919050565b600080600080610100858703121561365f578182fd5b6136698686613420565b9660a0860135965060c08601359560e00135945092505050565b600060a08284031215613694578081fd5b61369e60a061483a565b82358152602083013560208201526040830135604082015260608301356060820152608083013560808201528091505092915050565b600061016082840312156136e6578081fd5b6136f0608061483a565b8235815260208301356020820152604083013560408201526137158460608501613304565b60608201529392505050565b600060208284031215613732578081fd5b813567ffffffffffffffff80821115613749578283fd5b90830190610220828603121561375d578283fd5b61376861014061483a565b823582811115613776578485fd5b6137828782860161335e565b8252506020830135602082015260408301356040820152606083013560608201526080830135608082015260a083013560a082015260c083013560c082015260e083013560e08201526101009150818301358282015261012091506137e986838501613304565b91810191909152949350505050565b60006101a0828403121561380a578081fd5b61381460c061483a565b823581526020830135602082015260408301356040820152606083013560608201526080830135608082015261384d8460a08501613304565b60a08201529392505050565b60006020828403121561386a578081fd5b813567ffffffffffffffff811115613880578182fd5b6113e984828501613437565b6000806040838503121561389e578182fd5b823567ffffffffffffffff808211156138b5578384fd5b6138c186838701613437565b935060208501359150808211156138d6578283fd5b506138e38582860161335e565b9150509250929050565b600080600080610160808688031215613904578283fd5b853594506020860135935060408601359250868187011115613924578182fd5b509295919450926060019150565b6000806000806101608587031215613948578182fd5b8435935060208501359250604085013591506139678660608701613304565b905092959194509250565b8060005b60028110156109a35761398a8483516139a0565b6040939093019260209190910190600101613976565b8060005b60028110156109a35781518452602093840193909101906001016139a4565b8060005b60088110156109a35781518452602093840193909101906001016139c7565b6000815180845260208085019450808401835b83811015613a15578151875295820195908201906001016139f9565b509495945050505050565b80516000906020808401838315613a15578151875295820195908201906001016139f9565b6bffffffffffffffffffffffff19606093841b811682529190921b16601482015260280190565b6000613a78828d613a20565b8b81528a60208201528960408201528860608201528760808201528660a08201528560c08201528460e0820152613ab36101008201856139c3565b610200019c9b505050505050505050505050565b7f19457468657265756d205369676e6564204d6573736167653a0a3332000000008152601c810191909152603c0190565b90565b6000898252613b0d602083018a613a20565b888152613b1d6020820189613a20565b9050868152613b2f6020820187613a20565b9050848152613b4160208201856139c3565b610120019a9950505050505050505050565b600085825284602083015283604083015261010083606084013761016091909101908152949350505050565b6000858252846020830152836040830152613b9d60608301846139c3565b5061016001949350505050565b6000878252866020830152856040830152846060830152836080830152613bd460a08301846139c3565b506101a0019695505050505050565b6101008101613bf282866139a0565b613bff6040830185613972565b6113e960c08301846139a0565b6000610120613c1b83886139a0565b613c286040840187613972565b613c3560c08401866139a0565b80610100840152613c48818401856139e6565b979650505050505050565b901515815260200190565b90815260200190565b93845260ff9290921660208401526040830152606082015260800190565b610100810160038610613c9a57613c9a614958565b85825284516020830152602085015160408301526040850151606083015260608501516080830152608085015160a08301528360c08301528260e083015295945050505050565b6020810160048310613cf557613cf5614958565b91905290565b60208082526018908201527f45434453413a20696e76616c6964207369676e61747572650000000000000000604082015260600190565b60208082526026908201527f556e697265703a2061747465737465722068617320616c72656164792073696760408201526506e65642075760d41b606082015260800190565b6020808252602b908201527f556e697265703a207468652070726f6f6620686173206265656e207375626d6960408201526a74746564206265666f726560a81b606082015260800190565b6020808252601f908201527f45434453413a20696e76616c6964207369676e6174757265206c656e67746800604082015260600190565b60208082526024908201527f556e697265703a20696e76616c6964206174746573746174696f6e20677261666040820152636669746960e01b606082015260800190565b60208082526034908201527f556e697265703a207375626d697420616e2061697264726f702070726f6f66206040820152730eed2e8d040d2dcc6dee4e4cac6e840cae0dec6d60631b606082015260800190565b6020808252602d908201527f556e697265703a20696e76616c6964206e756d626572206f6620626c696e646560408201526c6420757365722073746174657360981b606082015260800190565b6020808252602a908201527f556e697265703a20696e76616c6964206174746573746572207369676e207570604082015269207369676e617475726560b01b606082015260800190565b60208082526026908201527f556e697265703a20617474657374657220686173206e6f74207369676e6564206040820152651d5c081e595d60d21b606082015260800190565b6020808252601b908201527f556e697265703a2065706f6368206e6f742079657420656e6465640000000000604082015260600190565b6020808252601c908201527f556e697265703a20696e76616c6964207369676e20757020666c616700000000604082015260600190565b6020808252602c908201527f556e697265703a206e6f20617474657374696e6720666565206f7220696e636f60408201526b1c9c9958dd08185b5bdd5b9d60a21b606082015260800190565b60208082526036908201527f556e697265703a207375626d697420612072657075746174696f6e2070726f6f6040820152750cc40eed2e8d040d2dcc6dee4e4cac6e840cae0dec6d60531b606082015260800190565b6020808252603a908201527f416464726573733a20756e61626c6520746f2073656e642076616c75652c207260408201527f6563697069656e74206d61792068617665207265766572746564000000000000606082015260800190565b60208082526022908201527f45434453413a20696e76616c6964207369676e6174757265202773272076616c604082015261756560f01b606082015260800190565b6020808252601d908201527f416464726573733a20696e73756666696369656e742062616c616e6365000000604082015260600190565b6020808252602f908201527f556e697265703a20696e76616c6964206e756d626572206f662072657075746160408201526e74696f6e206e756c6c69666965727360881b606082015260800190565b60208082526036908201527f556e697265703a207375626d697420616e2065706f6368206b65792070726f6f6040820152750cc40eed2e8d040d2dcc6dee4e4cac6e840cae0dec6d60531b606082015260800190565b60208082526046908201527f43616e206e6f74207472616e736974696f6e2066726f6d2065706f636820746860408201527f617427732067726561746572206f7220657175616c20746f2063757272656e74606082015265040cae0dec6d60d31b608082015260a00190565b60208082526032908201527f556e697265703a206d6178696d756d206e756d626572206f6620617474657374604082015271195c881cda59db9d5c1cc81c995858da195960721b606082015260800190565b6020808252602d908201527f556e697265703a20696e76616c6964206e756d626572206f6620626c696e646560408201526c64206861736820636861696e7360981b606082015260800190565b60208082526022908201527f556e697265703a20696e76616c6964206174746573746174696f6e20706f7352604082015261065760f41b606082015260800190565b60208082526022908201527f45434453413a20696e76616c6964207369676e6174757265202776272076616c604082015261756560f01b606082015260800190565b60208082526026908201527f556e697265703a2074686520757365722068617320616c72656164792073696760408201526506e65642075760d41b606082015260800190565b6020808252602e908201527f556e697265703a206d6178696d756d206e756d626572206f662075736572207360408201526d1a59db9d5c1cc81c995858da195960921b606082015260800190565b6020808252601b908201527f556e697265703a20696e76616c69642070726f6f6620696e6465780000000000604082015260600190565b60208082526022908201527f556e697265703a20696e76616c6964206174746573746174696f6e206e656752604082015261065760f41b606082015260800190565b6020808252601d908201527f556e697265703a206d69736d6174636865642061747465737465724964000000604082015260600190565b6020808252603c908201527f556e697265703a2065616368207075626c6963207369676e616c206d7573742060408201527f6265206c742074686520736e61726b207363616c6172206669656c6400000000606082015260800190565b60208082526028908201527f556e697265703a20696e76616c6964206e756d626572206f662065706b206e756040820152676c6c69666965727360c01b606082015260800190565b6020808252601f908201527f556e697265703a20696e76616c69642065706f6368206b65792072616e676500604082015260600190565b60208082526035908201527f556e697265703a20696e636f727265637420617474657374657220494420696e604082015274103a3432903932b83aba30ba34b7b710383937b7b360591b606082015260800190565b600061016082019050825182526020830151602083015260408301516040830152606083015161463160608401826139c3565b5092915050565b600060208252825161022060208401526146566102408401826139e6565b9050602084015160408401526040840151606084015260608401516080840152608084015160a084015260a084015160c084015260c084015160e084015260e0840151610100818186015280860151915050610120818186015280860151915050612f856101408501826139c3565b60006101a082019050825182526020830151602083015260408301516040830152606083015160608301526080830151608083015260a083015161463160a08401826139c3565b6000604082528351604083015260208401516101e060608401526147346102208401826139e6565b9050604085015160808401526060850151603f19808584030160a086015261475c83836139e6565b9250608087015160c086015260a08701519150808584030160e08601525061478482826139e6565b91505060c085015161010084015260e08501516147a56101208501826139c3565b5082810360208401526147b881856139e6565b95945050505050565b8281526101208101610100836020840137600081529392505050565b918252602082015260400190565b83815260208101839052610140810161010083604084013760008152949350505050565b60ff91909116815260200190565b60ff93841681529183166020830152909116604082015260600190565b604051601f8201601f1916810167ffffffffffffffff811182821017156148635761486361496e565b604052919050565b6000821982111561487e5761487e614942565b500190565b600060ff821660ff84168060ff038211156148a0576148a0614942565b019392505050565b60008160001904831182151516156148c2576148c2614942565b500290565b600060ff821660ff84168160ff04811182151516156148e8576148e8614942565b029392505050565b60008282101561490257614902614942565b500390565b600060001982141561491b5761491b614942565b5060010190565b600060ff821660ff81141561493957614939614942565b60010192915050565b634e487b7160e01b600052601160045260246000fd5b634e487b7160e01b600052602160045260246000fd5b634e487b7160e01b600052604160045260246000fdfea3019980c7e9844ee00c3f7584f329ac6dae8bcc2e08a756cf9651c8d2e96a6d30644e72e131a029b85045b68181585d2833e84879b9709143e1f593f0000001a264697066735822122050a21dec1d49977e41d11ca198f8243f72b5df38b02424e1416f50f98bae52f864736f6c63430008010033",
  "linkReferences": {},
  "deployedLinkReferences": {}
}