{
    "_format": "hh-sol-artifact-1",
    "contractName": "ProcessAttestationsVerifier",
    "sourceName": "contracts/ProcessAttestationsVerifier.sol",
    "abi": [
        {
            "inputs": [
                {
                    "internalType": "uint256[2]",
                    "name": "a",
                    "type": "uint256[2]"
                },
                {
                    "internalType": "uint256[2][2]",
                    "name": "b",
                    "type": "uint256[2][2]"
                },
                {
                    "internalType": "uint256[2]",
                    "name": "c",
                    "type": "uint256[2]"
                },
                {
                    "internalType": "uint256[]",
                    "name": "input",
                    "type": "uint256[]"
                }
            ],
            "name": "verifyProof",
            "outputs": [
                {
                    "internalType": "bool",
                    "name": "",
                    "type": "bool"
                }
            ],
            "stateMutability": "view",
            "type": "function"
        }
    ],
    "bytecode": "0x608060405234801561001057600080fd5b506112e8806100206000396000f3fe608060405234801561001057600080fd5b506004361061002b5760003560e01c8063c32e370e14610030575b600080fd5b61004361003e366004610e41565b610059565b6040516100509190610f0a565b60405180910390f35b6000610063610c10565b6040805180820182528751815260208089015181830152908352815160808101835287515181840190815288518301516060830152815282518084018452888301805151825251830151818401528183015283820152815180830183528651815286820151918101919091529082015260006100dd6103e2565b6040805180820190915260008082526020820152835151919250906000805160206112938339815191521161012d5760405162461bcd60e51b815260040161012490610f4c565b60405180910390fd5b8251602001516000805160206112938339815191521161015f5760405162461bcd60e51b8152600401610124906110c2565b60208301515151600080516020611293833981519152116101925760405162461bcd60e51b815260040161012490610f15565b602083810151015151600080516020611293833981519152116101c75760405162461bcd60e51b81526004016101249061108b565b602083810151510151600080516020611293833981519152116101fc5760405162461bcd60e51b815260040161012490610fba565b6020838101518101510151600080516020611293833981519152116102335760405162461bcd60e51b815260040161012490610f83565b604083015151600080516020611293833981519152116102655760405162461bcd60e51b815260040161012490611125565b6000805160206112938339815191528360400151602001511061029a5760405162461bcd60e51b81526004016101249061101d565b60005b600381101561038e577f30644e72e131a029b85045b68181585d2833e84879b9709143e1f593f00000018682815181106102e757634e487b7160e01b600052603260045260246000fd5b60200260200101511061030c5760405162461bcd60e51b815260040161012490611054565b61037a82610375856080015184600161032591906111dd565b6004811061034357634e487b7160e01b600052603260045260246000fd5b602002015189858151811061036857634e487b7160e01b600052603260045260246000fd5b602002602001015161073f565b6107aa565b9150806103868161122b565b91505061029d565b506080820151516103a09082906107aa565b90506103d66103b28460000151610811565b8460200151846000015185602001518587604001518960400151896060015161089e565b98975050505050505050565b6103ea610c42565b6040805180820182527f2d4d9aa7e302d9df41749d5507949d05dbea33fbb16c643b22f599a2be6df2e281527f14bedd503c37ceb061d8ec60209fe345ce89830a19230301f076caff004d19266020808301919091529083528151608080820184527f0967032fcbf776d1afc985f88877f182d38480a653f2decaa9794cbc3bf3060c8285019081527f0e187847ad4c798374d0d6732bf501847dd68bc0e071241e0213bc7fc13db7ab606080850191909152908352845180860186527f304cfbd1e08a704a99f5e847d93f8c3caafddec46b7a0d379da69a4d112346a781527f1739c1b1a457a8c7313123d24d2f9192f896b7c63eea05a9d57f06547ad0cec8818601528385015285840192909252835180820185527f198e9393920d483a7260bfb731fb5d25f1aa493335a9e71297e485b7aef312c28186018181527f1800deef121f1e76426a00665e5c4479674322d4f75edadd46debd5cd992f6ed838601819052908352865180880188527f090689d0585ff075ec9e99ad690c3395bc4b313370b38ef355acdadcd122975b8082527f12c85ea5db8c6deb4aab71808dcb408fe3d1e7690c43d37b4ce6cc0166fa7daa8289018190528589019290925289890194909452875180860189528089019384528087019290925291815286518088018852928352828601919091528085019190915282860152835180850185527f1a3a34881394f24fc6fbe75b9d3c0685a8c348b781ad1d0c350b072c54f419e981527f2c4df3c6ea72920a1b507805136fdd1cd8a55d848b0bc4ee84f1b01cecc4d99581850152908501805191909152835180850185527f0a2dac362d7f7ad7a20dbb9c9167727af96d2015a1d0e7c684d1b3c40a2791c981527f01b23e132d18a14b00dbc7aeb3b697eda3d672b9f145cb48148a89ccf6e862d9818501528151840152835180850185527f0a3b93814f8b78ea3341815654c8f6a17582542cd4fbbb054a745cf1429aa6e381527f192954ce8faaf2c67257573dc6787ff5ba8500aa965034f6be77a69d85df90ac81850152815185015283518085019094527f084e4ea026d3031cc64b481354872de68e6e3fb5240d6c835485f06c81106bce84527f07219f81d1a9937172ebedea44a821a9f227e7e65a6c4591d1351a56c170a99f928401929092529051015290565b610747610c89565b61074f610ca3565b835181526020808501519082015260408101839052600060608360808460076107d05a03fa905080801561078257610784565bfe5b50806107a25760405162461bcd60e51b815260040161012490610ff1565b505092915050565b6107b2610c89565b6107ba610cc1565b8351815260208085015181830152835160408301528301516060808301919091526000908360c08460066107d05a03fa90508080156107825750806107a25760405162461bcd60e51b8152600401610124906110f9565b610819610c89565b815115801561082a57506020820151155b1561084957506040805180820190915260008082526020820152610899565b604051806040016040528083600001518152602001600080516020611293833981519152846020015161087c9190611246565b61089490600080516020611293833981519152611214565b905290505b919050565b60408051608080820183528a825260208083018a90528284018890526060808401879052845192830185528b83528282018a9052828501889052820185905283516018808252610320820190955260009491859190839082016103008036833701905050905060005b6004811015610bb657600061091d8260066111f5565b905085826004811061093f57634e487b7160e01b600052603260045260246000fd5b602002015151836109518360006111dd565b8151811061096f57634e487b7160e01b600052603260045260246000fd5b60200260200101818152505085826004811061099b57634e487b7160e01b600052603260045260246000fd5b602002015160200151838260016109b291906111dd565b815181106109d057634e487b7160e01b600052603260045260246000fd5b6020026020010181815250508482600481106109fc57634e487b7160e01b600052603260045260246000fd5b6020020151515183610a0f8360026111dd565b81518110610a2d57634e487b7160e01b600052603260045260246000fd5b602002602001018181525050848260048110610a5957634e487b7160e01b600052603260045260246000fd5b6020020151516001602002015183610a728360036111dd565b81518110610a9057634e487b7160e01b600052603260045260246000fd5b602002602001018181525050848260048110610abc57634e487b7160e01b600052603260045260246000fd5b602002015160200151600060028110610ae557634e487b7160e01b600052603260045260246000fd5b602002015183610af68360046111dd565b81518110610b1457634e487b7160e01b600052603260045260246000fd5b602002602001018181525050848260048110610b4057634e487b7160e01b600052603260045260246000fd5b602002015160200151600160028110610b6957634e487b7160e01b600052603260045260246000fd5b602002015183610b7a8360056111dd565b81518110610b9857634e487b7160e01b600052603260045260246000fd5b60209081029190910101525080610bae8161122b565b915050610907565b50610bbf610cdf565b6000602082602086026020860160086107d05a03fa9050808015610782575080610bfb5760405162461bcd60e51b81526004016101249061115c565b505115159d9c50505050505050505050505050565b6040518060600160405280610c23610c89565b8152602001610c30610cfd565b8152602001610c3d610c89565b905290565b6040518060a00160405280610c55610c89565b8152602001610c62610cfd565b8152602001610c6f610cfd565b8152602001610c7c610cfd565b8152602001610c3d610d1d565b604051806040016040528060008152602001600081525090565b60405180606001604052806003906020820280368337509192915050565b60405180608001604052806004906020820280368337509192915050565b60405180602001604052806001906020820280368337509192915050565b6040518060400160405280610d10610d4a565b8152602001610c3d610d4a565b60405180608001604052806004905b610d34610c89565b815260200190600190039081610d2c5790505090565b60405180604001604052806002906020820280368337509192915050565b600082601f830112610d78578081fd5b610d82604061118b565b808385604086011115610d93578384fd5b835b6002811015610db4578135845260209384019390910190600101610d95565b509095945050505050565b600082601f830112610dcf578081fd5b8135602067ffffffffffffffff821115610deb57610deb61127c565b808202610df982820161118b565b838152828101908684018388018501891015610e13578687fd5b8693505b85841015610e35578035835260019390930192918401918401610e17565b50979650505050505050565b6000806000806101208587031215610e57578384fd5b610e618686610d68565b9350604086605f870112610e73578384fd5b6002610e86610e81826111bc565b61118b565b8083890160c08a018b811115610e9a578889fd5b885b85811015610ec257610eae8d84610d68565b855260209094019391860191600101610e9c565b50829850610ed08c82610d68565b975050505050505061010085013567ffffffffffffffff811115610ef2578182fd5b610efe87828801610dbf565b91505092959194509250565b901515815260200190565b60208082526018908201527f76657269666965722d6258302d6774652d7072696d652d710000000000000000604082015260600190565b60208082526017908201527f76657269666965722d61582d6774652d7072696d652d71000000000000000000604082015260600190565b60208082526018908201527f76657269666965722d6259312d6774652d7072696d652d710000000000000000604082015260600190565b60208082526018908201527f76657269666965722d6258312d6774652d7072696d652d710000000000000000604082015260600190565b6020808252601290820152711c185a5c9a5b99cb5b5d5b0b59985a5b195960721b604082015260600190565b60208082526017908201527f76657269666965722d63592d6774652d7072696d652d71000000000000000000604082015260600190565b6020808252601f908201527f76657269666965722d6774652d736e61726b2d7363616c61722d6669656c6400604082015260600190565b60208082526018908201527f76657269666965722d6259302d6774652d7072696d652d710000000000000000604082015260600190565b60208082526017908201527f76657269666965722d61592d6774652d7072696d652d71000000000000000000604082015260600190565b6020808252601290820152711c185a5c9a5b99cb5859190b59985a5b195960721b604082015260600190565b60208082526017908201527f76657269666965722d63582d6774652d7072696d652d71000000000000000000604082015260600190565b6020808252601590820152741c185a5c9a5b99cb5bdc18dbd9194b59985a5b1959605a1b604082015260600190565b604051601f8201601f1916810167ffffffffffffffff811182821017156111b4576111b461127c565b604052919050565b600067ffffffffffffffff8211156111d6576111d661127c565b5060200290565b600082198211156111f0576111f0611266565b500190565b600081600019048311821515161561120f5761120f611266565b500290565b60008282101561122657611226611266565b500390565b600060001982141561123f5761123f611266565b5060010190565b60008261126157634e487b7160e01b81526012600452602481fd5b500690565b634e487b7160e01b600052601160045260246000fd5b634e487b7160e01b600052604160045260246000fdfe30644e72e131a029b85045b68181585d97816a916871ca8d3c208c16d87cfd47a2646970667358221220b254fc70b64344c745016c0d20292e804e1d9b0fb055d87d83c4a9c261e3d7fd64736f6c63430008010033",
    "linkReferences": {},
    "deployedLinkReferences": {}
}