{
  "_format": "hh-sol-artifact-1",
  "contractName": "Unirep",
  "sourceName": "contracts/Unirep.sol",
  "abi": [
    {
      "inputs": [
        {
          "components": [
            {
              "internalType": "uint8",
              "name": "globalStateTreeDepth",
              "type": "uint8"
            },
            {
              "internalType": "uint8",
              "name": "userStateTreeDepth",
              "type": "uint8"
            },
            {
              "internalType": "uint8",
              "name": "epochTreeDepth",
              "type": "uint8"
            }
          ],
          "internalType": "struct UnirepObjs.TreeDepths",
          "name": "_treeDepths",
          "type": "tuple"
        },
        {
          "components": [
            {
              "internalType": "uint256",
              "name": "maxUsers",
              "type": "uint256"
            },
            {
              "internalType": "uint256",
              "name": "maxAttesters",
              "type": "uint256"
            }
          ],
          "internalType": "struct UnirepObjs.MaxValues",
          "name": "_maxValues",
          "type": "tuple"
        },
        {
          "internalType": "contract EpochKeyValidityVerifier",
          "name": "_epkValidityVerifier",
          "type": "address"
        },
        {
          "internalType": "contract StartTransitionVerifier",
          "name": "_startTransitionVerifier",
          "type": "address"
        },
        {
          "internalType": "contract ProcessAttestationsVerifier",
          "name": "_processAttestationsVerifier",
          "type": "address"
        },
        {
          "internalType": "contract UserStateTransitionVerifier",
          "name": "_userStateTransitionVerifier",
          "type": "address"
        },
        {
          "internalType": "contract ReputationVerifier",
          "name": "_reputationVerifier",
          "type": "address"
        },
        {
          "internalType": "contract UserSignUpVerifier",
          "name": "_userSignUpVerifier",
          "type": "address"
        },
        {
          "internalType": "uint8",
          "name": "_numEpochKeyNoncePerEpoch",
          "type": "uint8"
        },
        {
          "internalType": "uint8",
          "name": "_maxReputationBudget",
          "type": "uint8"
        },
        {
          "internalType": "uint256",
          "name": "_epochLength",
          "type": "uint256"
        },
        {
          "internalType": "uint256",
          "name": "_attestingFee",
          "type": "uint256"
        }
      ],
      "stateMutability": "nonpayable",
      "type": "constructor"
    },
    {
      "anonymous": false,
      "inputs": [
        {
          "indexed": true,
          "internalType": "uint256",
          "name": "_epoch",
          "type": "uint256"
        },
        {
          "indexed": true,
          "internalType": "uint256",
          "name": "_epochKey",
          "type": "uint256"
        },
        {
          "indexed": true,
          "internalType": "address",
          "name": "_attester",
          "type": "address"
        },
        {
          "indexed": false,
          "internalType": "enum Unirep.AttestationEvent",
          "name": "_event",
          "type": "uint8"
        },
        {
          "components": [
            {
              "internalType": "uint256",
              "name": "attesterId",
              "type": "uint256"
            },
            {
              "internalType": "uint256",
              "name": "posRep",
              "type": "uint256"
            },
            {
              "internalType": "uint256",
              "name": "negRep",
              "type": "uint256"
            },
            {
              "internalType": "uint256",
              "name": "graffiti",
              "type": "uint256"
            },
            {
              "internalType": "uint256",
              "name": "signUp",
              "type": "uint256"
            }
          ],
          "indexed": false,
          "internalType": "struct UnirepObjs.Attestation",
          "name": "_attestation",
          "type": "tuple"
        },
        {
          "indexed": false,
          "internalType": "uint256",
          "name": "toProofIndex",
          "type": "uint256"
        },
        {
          "indexed": false,
          "internalType": "uint256",
          "name": "fromProofIndex",
          "type": "uint256"
        }
      ],
      "name": "AttestationSubmitted",
      "type": "event"
    },
    {
      "anonymous": false,
      "inputs": [
        {
          "indexed": true,
          "internalType": "uint256",
          "name": "_epoch",
          "type": "uint256"
        }
      ],
      "name": "EpochEnded",
      "type": "event"
    },
    {
      "anonymous": false,
      "inputs": [
        {
          "indexed": true,
          "internalType": "uint256",
          "name": "_proofIndex",
          "type": "uint256"
        },
        {
          "indexed": true,
          "internalType": "uint256",
          "name": "_epoch",
          "type": "uint256"
        },
        {
          "indexed": true,
          "internalType": "uint256",
          "name": "_epochKey",
          "type": "uint256"
        },
        {
          "components": [
            {
              "internalType": "uint256",
              "name": "globalStateTree",
              "type": "uint256"
            },
            {
              "internalType": "uint256",
              "name": "epoch",
              "type": "uint256"
            },
            {
              "internalType": "uint256",
              "name": "epochKey",
              "type": "uint256"
            },
            {
              "internalType": "uint256[8]",
              "name": "proof",
              "type": "uint256[8]"
            }
          ],
          "indexed": false,
          "internalType": "struct UnirepObjs.EpochKeyProof",
          "name": "_proof",
          "type": "tuple"
        }
      ],
      "name": "IndexedEpochKeyProof",
      "type": "event"
    },
    {
      "anonymous": false,
      "inputs": [
        {
          "indexed": true,
          "internalType": "uint256",
          "name": "_proofIndex",
          "type": "uint256"
        },
        {
          "indexed": true,
          "internalType": "uint256",
          "name": "_inputBlindedUserState",
          "type": "uint256"
        },
        {
          "indexed": false,
          "internalType": "uint256",
          "name": "_outputBlindedUserState",
          "type": "uint256"
        },
        {
          "indexed": false,
          "internalType": "uint256",
          "name": "_outputBlindedHashChain",
          "type": "uint256"
        },
        {
          "indexed": false,
          "internalType": "uint256[8]",
          "name": "_proof",
          "type": "uint256[8]"
        }
      ],
      "name": "IndexedProcessedAttestationsProof",
      "type": "event"
    },
    {
      "anonymous": false,
      "inputs": [
        {
          "indexed": true,
          "internalType": "uint256",
          "name": "_proofIndex",
          "type": "uint256"
        },
        {
          "indexed": true,
          "internalType": "uint256",
          "name": "_epoch",
          "type": "uint256"
        },
        {
          "indexed": true,
          "internalType": "uint256",
          "name": "_epochKey",
          "type": "uint256"
        },
        {
          "components": [
            {
              "internalType": "uint256[]",
              "name": "repNullifiers",
              "type": "uint256[]"
            },
            {
              "internalType": "uint256",
              "name": "epoch",
              "type": "uint256"
            },
            {
              "internalType": "uint256",
              "name": "epochKey",
              "type": "uint256"
            },
            {
              "internalType": "uint256",
              "name": "globalStateTree",
              "type": "uint256"
            },
            {
              "internalType": "uint256",
              "name": "attesterId",
              "type": "uint256"
            },
            {
              "internalType": "uint256",
              "name": "proveReputationAmount",
              "type": "uint256"
            },
            {
              "internalType": "uint256",
              "name": "minRep",
              "type": "uint256"
            },
            {
              "internalType": "uint256",
              "name": "proveGraffiti",
              "type": "uint256"
            },
            {
              "internalType": "uint256",
              "name": "graffitiPreImage",
              "type": "uint256"
            },
            {
              "internalType": "uint256[8]",
              "name": "proof",
              "type": "uint256[8]"
            }
          ],
          "indexed": false,
          "internalType": "struct UnirepObjs.ReputationProof",
          "name": "_proof",
          "type": "tuple"
        }
      ],
      "name": "IndexedReputationProof",
      "type": "event"
    },
    {
      "anonymous": false,
      "inputs": [
        {
          "indexed": true,
          "internalType": "uint256",
          "name": "_proofIndex",
          "type": "uint256"
        },
        {
          "indexed": true,
          "internalType": "uint256",
          "name": "_blindedUserState",
          "type": "uint256"
        },
        {
          "indexed": true,
          "internalType": "uint256",
          "name": "_globalStateTree",
          "type": "uint256"
        },
        {
          "indexed": false,
          "internalType": "uint256",
          "name": "_blindedHashChain",
          "type": "uint256"
        },
        {
          "indexed": false,
          "internalType": "uint256[8]",
          "name": "_proof",
          "type": "uint256[8]"
        }
      ],
      "name": "IndexedStartedTransitionProof",
      "type": "event"
    },
    {
      "anonymous": false,
      "inputs": [
        {
          "indexed": true,
          "internalType": "uint256",
          "name": "_proofIndex",
          "type": "uint256"
        },
        {
          "indexed": true,
          "internalType": "uint256",
          "name": "_epoch",
          "type": "uint256"
        },
        {
          "indexed": true,
          "internalType": "uint256",
          "name": "_epochKey",
          "type": "uint256"
        },
        {
          "components": [
            {
              "internalType": "uint256",
              "name": "epoch",
              "type": "uint256"
            },
            {
              "internalType": "uint256",
              "name": "epochKey",
              "type": "uint256"
            },
            {
              "internalType": "uint256",
              "name": "globalStateTree",
              "type": "uint256"
            },
            {
              "internalType": "uint256",
              "name": "attesterId",
              "type": "uint256"
            },
            {
              "internalType": "uint256",
              "name": "userHasSignedUp",
              "type": "uint256"
            },
            {
              "internalType": "uint256[8]",
              "name": "proof",
              "type": "uint256[8]"
            }
          ],
          "indexed": false,
          "internalType": "struct UnirepObjs.SignUpProof",
          "name": "_proof",
          "type": "tuple"
        }
      ],
      "name": "IndexedUserSignedUpProof",
      "type": "event"
    },
    {
      "anonymous": false,
      "inputs": [
        {
          "indexed": true,
          "internalType": "uint256",
          "name": "_proofIndex",
          "type": "uint256"
        },
        {
          "components": [
            {
              "internalType": "uint256",
              "name": "newGlobalStateTreeLeaf",
              "type": "uint256"
            },
            {
              "internalType": "uint256[]",
              "name": "epkNullifiers",
              "type": "uint256[]"
            },
            {
              "internalType": "uint256",
              "name": "transitionFromEpoch",
              "type": "uint256"
            },
            {
              "internalType": "uint256[]",
              "name": "blindedUserStates",
              "type": "uint256[]"
            },
            {
              "internalType": "uint256",
              "name": "fromGlobalStateTree",
              "type": "uint256"
            },
            {
              "internalType": "uint256[]",
              "name": "blindedHashChains",
              "type": "uint256[]"
            },
            {
              "internalType": "uint256",
              "name": "fromEpochTree",
              "type": "uint256"
            },
            {
              "internalType": "uint256[8]",
              "name": "proof",
              "type": "uint256[8]"
            }
          ],
          "indexed": false,
          "internalType": "struct UnirepObjs.UserTransitionProof",
          "name": "_proof",
          "type": "tuple"
        },
        {
          "indexed": false,
          "internalType": "uint256[]",
          "name": "_proofIndexRecords",
          "type": "uint256[]"
        }
      ],
      "name": "IndexedUserStateTransitionProof",
      "type": "event"
    },
    {
      "anonymous": false,
      "inputs": [
        {
          "indexed": true,
          "internalType": "uint256",
          "name": "_epoch",
          "type": "uint256"
        },
        {
          "indexed": false,
          "internalType": "enum Unirep.Event",
          "name": "_event",
          "type": "uint8"
        }
      ],
      "name": "Sequencer",
      "type": "event"
    },
    {
      "anonymous": false,
      "inputs": [
        {
          "indexed": true,
          "internalType": "uint256",
          "name": "_epoch",
          "type": "uint256"
        },
        {
          "indexed": true,
          "internalType": "uint256",
          "name": "_identityCommitment",
          "type": "uint256"
        },
        {
          "indexed": false,
          "internalType": "uint256",
          "name": "_attesterId",
          "type": "uint256"
        },
        {
          "indexed": false,
          "internalType": "uint256",
          "name": "_airdropAmount",
          "type": "uint256"
        }
      ],
      "name": "UserSignedUp",
      "type": "event"
    },
    {
      "anonymous": false,
      "inputs": [
        {
          "indexed": true,
          "internalType": "uint256",
          "name": "_epoch",
          "type": "uint256"
        },
        {
          "indexed": true,
          "internalType": "uint256",
          "name": "_hashedLeaf",
          "type": "uint256"
        },
        {
          "indexed": false,
          "internalType": "uint256",
          "name": "_proofIndex",
          "type": "uint256"
        }
      ],
      "name": "UserStateTransitioned",
      "type": "event"
    },
    {
      "inputs": [
        {
          "internalType": "address",
          "name": "",
          "type": "address"
        }
      ],
      "name": "airdropAmount",
      "outputs": [
        {
          "internalType": "uint256",
          "name": "",
          "type": "uint256"
        }
      ],
      "stateMutability": "view",
      "type": "function"
    },
    {
      "inputs": [
        {
          "components": [
            {
              "internalType": "uint256",
              "name": "epoch",
              "type": "uint256"
            },
            {
              "internalType": "uint256",
              "name": "epochKey",
              "type": "uint256"
            },
            {
              "internalType": "uint256",
              "name": "globalStateTree",
              "type": "uint256"
            },
            {
              "internalType": "uint256",
              "name": "attesterId",
              "type": "uint256"
            },
            {
              "internalType": "uint256",
              "name": "userHasSignedUp",
              "type": "uint256"
            },
            {
              "internalType": "uint256[8]",
              "name": "proof",
              "type": "uint256[8]"
            }
          ],
          "internalType": "struct UnirepObjs.SignUpProof",
          "name": "_input",
          "type": "tuple"
        }
      ],
      "name": "airdropEpochKey",
      "outputs": [],
      "stateMutability": "payable",
      "type": "function"
    },
    {
      "inputs": [],
      "name": "attesterSignUp",
      "outputs": [],
      "stateMutability": "nonpayable",
      "type": "function"
    },
    {
      "inputs": [
        {
          "internalType": "address",
          "name": "attester",
          "type": "address"
        },
        {
          "internalType": "bytes",
          "name": "signature",
          "type": "bytes"
        }
      ],
      "name": "attesterSignUpViaRelayer",
      "outputs": [],
      "stateMutability": "nonpayable",
      "type": "function"
    },
    {
      "inputs": [
        {
          "internalType": "address",
          "name": "",
          "type": "address"
        }
      ],
      "name": "attesters",
      "outputs": [
        {
          "internalType": "uint256",
          "name": "",
          "type": "uint256"
        }
      ],
      "stateMutability": "view",
      "type": "function"
    },
    {
      "inputs": [],
      "name": "attestingFee",
      "outputs": [
        {
          "internalType": "uint256",
          "name": "",
          "type": "uint256"
        }
      ],
      "stateMutability": "view",
      "type": "function"
    },
    {
      "inputs": [],
      "name": "beginEpochTransition",
      "outputs": [],
      "stateMutability": "nonpayable",
      "type": "function"
    },
    {
      "inputs": [],
      "name": "burnAttestingFee",
      "outputs": [],
      "stateMutability": "nonpayable",
      "type": "function"
    },
    {
      "inputs": [],
      "name": "collectEpochTransitionCompensation",
      "outputs": [],
      "stateMutability": "nonpayable",
      "type": "function"
    },
    {
      "inputs": [],
      "name": "collectedAttestingFee",
      "outputs": [
        {
          "internalType": "uint256",
          "name": "",
          "type": "uint256"
        }
      ],
      "stateMutability": "view",
      "type": "function"
    },
    {
      "inputs": [],
      "name": "currentEpoch",
      "outputs": [
        {
          "internalType": "uint256",
          "name": "",
          "type": "uint256"
        }
      ],
      "stateMutability": "view",
      "type": "function"
    },
    {
      "inputs": [],
      "name": "epochLength",
      "outputs": [
        {
          "internalType": "uint256",
          "name": "",
          "type": "uint256"
        }
      ],
      "stateMutability": "view",
      "type": "function"
    },
    {
      "inputs": [
        {
          "internalType": "address",
          "name": "",
          "type": "address"
        }
      ],
      "name": "epochTransitionCompensation",
      "outputs": [
        {
          "internalType": "uint256",
          "name": "",
          "type": "uint256"
        }
      ],
      "stateMutability": "view",
      "type": "function"
    },
    {
      "inputs": [
        {
          "internalType": "bytes32",
          "name": "",
          "type": "bytes32"
        }
      ],
      "name": "getProofIndex",
      "outputs": [
        {
          "internalType": "uint256",
          "name": "",
          "type": "uint256"
        }
      ],
      "stateMutability": "view",
      "type": "function"
    },
    {
      "inputs": [
        {
          "internalType": "uint256",
          "name": "",
          "type": "uint256"
        }
      ],
      "name": "hasUserSignedUp",
      "outputs": [
        {
          "internalType": "bool",
          "name": "",
          "type": "bool"
        }
      ],
      "stateMutability": "view",
      "type": "function"
    },
    {
      "inputs": [
        {
          "components": [
            {
              "internalType": "uint256",
              "name": "globalStateTree",
              "type": "uint256"
            },
            {
              "internalType": "uint256",
              "name": "epoch",
              "type": "uint256"
            },
            {
              "internalType": "uint256",
              "name": "epochKey",
              "type": "uint256"
            },
            {
              "internalType": "uint256[8]",
              "name": "proof",
              "type": "uint256[8]"
            }
          ],
          "internalType": "struct UnirepObjs.EpochKeyProof",
          "name": "_input",
          "type": "tuple"
        }
      ],
      "name": "hashEpochKeyProof",
      "outputs": [
        {
          "internalType": "bytes32",
          "name": "",
          "type": "bytes32"
        }
      ],
      "stateMutability": "pure",
      "type": "function"
    },
    {
      "inputs": [
        {
          "internalType": "uint256",
          "name": "_outputBlindedUserState",
          "type": "uint256"
        },
        {
          "internalType": "uint256",
          "name": "_outputBlindedHashChain",
          "type": "uint256"
        },
        {
          "internalType": "uint256",
          "name": "_inputBlindedUserState",
          "type": "uint256"
        },
        {
          "internalType": "uint256[8]",
          "name": "_proof",
          "type": "uint256[8]"
        }
      ],
      "name": "hashProcessAttestationsProof",
      "outputs": [
        {
          "internalType": "bytes32",
          "name": "",
          "type": "bytes32"
        }
      ],
      "stateMutability": "pure",
      "type": "function"
    },
    {
      "inputs": [
        {
          "components": [
            {
              "internalType": "uint256[]",
              "name": "repNullifiers",
              "type": "uint256[]"
            },
            {
              "internalType": "uint256",
              "name": "epoch",
              "type": "uint256"
            },
            {
              "internalType": "uint256",
              "name": "epochKey",
              "type": "uint256"
            },
            {
              "internalType": "uint256",
              "name": "globalStateTree",
              "type": "uint256"
            },
            {
              "internalType": "uint256",
              "name": "attesterId",
              "type": "uint256"
            },
            {
              "internalType": "uint256",
              "name": "proveReputationAmount",
              "type": "uint256"
            },
            {
              "internalType": "uint256",
              "name": "minRep",
              "type": "uint256"
            },
            {
              "internalType": "uint256",
              "name": "proveGraffiti",
              "type": "uint256"
            },
            {
              "internalType": "uint256",
              "name": "graffitiPreImage",
              "type": "uint256"
            },
            {
              "internalType": "uint256[8]",
              "name": "proof",
              "type": "uint256[8]"
            }
          ],
          "internalType": "struct UnirepObjs.ReputationProof",
          "name": "_input",
          "type": "tuple"
        }
      ],
      "name": "hashReputationProof",
      "outputs": [
        {
          "internalType": "bytes32",
          "name": "",
          "type": "bytes32"
        }
      ],
      "stateMutability": "pure",
      "type": "function"
    },
    {
      "inputs": [
        {
          "components": [
            {
              "internalType": "uint256",
              "name": "epoch",
              "type": "uint256"
            },
            {
              "internalType": "uint256",
              "name": "epochKey",
              "type": "uint256"
            },
            {
              "internalType": "uint256",
              "name": "globalStateTree",
              "type": "uint256"
            },
            {
              "internalType": "uint256",
              "name": "attesterId",
              "type": "uint256"
            },
            {
              "internalType": "uint256",
              "name": "userHasSignedUp",
              "type": "uint256"
            },
            {
              "internalType": "uint256[8]",
              "name": "proof",
              "type": "uint256[8]"
            }
          ],
          "internalType": "struct UnirepObjs.SignUpProof",
          "name": "_input",
          "type": "tuple"
        }
      ],
      "name": "hashSignUpProof",
      "outputs": [
        {
          "internalType": "bytes32",
          "name": "",
          "type": "bytes32"
        }
      ],
      "stateMutability": "pure",
      "type": "function"
    },
    {
      "inputs": [
        {
          "internalType": "uint256",
          "name": "_blindedUserState",
          "type": "uint256"
        },
        {
          "internalType": "uint256",
          "name": "_blindedHashChain",
          "type": "uint256"
        },
        {
          "internalType": "uint256",
          "name": "_globalStateTree",
          "type": "uint256"
        },
        {
          "internalType": "uint256[8]",
          "name": "_proof",
          "type": "uint256[8]"
        }
      ],
      "name": "hashStartTransitionProof",
      "outputs": [
        {
          "internalType": "bytes32",
          "name": "",
          "type": "bytes32"
        }
      ],
      "stateMutability": "pure",
      "type": "function"
    },
    {
      "inputs": [
        {
          "components": [
            {
              "internalType": "uint256",
              "name": "newGlobalStateTreeLeaf",
              "type": "uint256"
            },
            {
              "internalType": "uint256[]",
              "name": "epkNullifiers",
              "type": "uint256[]"
            },
            {
              "internalType": "uint256",
              "name": "transitionFromEpoch",
              "type": "uint256"
            },
            {
              "internalType": "uint256[]",
              "name": "blindedUserStates",
              "type": "uint256[]"
            },
            {
              "internalType": "uint256",
              "name": "fromGlobalStateTree",
              "type": "uint256"
            },
            {
              "internalType": "uint256[]",
              "name": "blindedHashChains",
              "type": "uint256[]"
            },
            {
              "internalType": "uint256",
              "name": "fromEpochTree",
              "type": "uint256"
            },
            {
              "internalType": "uint256[8]",
              "name": "proof",
              "type": "uint256[8]"
            }
          ],
          "internalType": "struct UnirepObjs.UserTransitionProof",
          "name": "_input",
          "type": "tuple"
        }
      ],
      "name": "hashUserStateTransitionProof",
      "outputs": [
        {
          "internalType": "bytes32",
          "name": "",
          "type": "bytes32"
        }
      ],
      "stateMutability": "pure",
      "type": "function"
    },
    {
      "inputs": [],
      "name": "latestEpochTransitionTime",
      "outputs": [
        {
          "internalType": "uint256",
          "name": "",
          "type": "uint256"
        }
      ],
      "stateMutability": "view",
      "type": "function"
    },
    {
      "inputs": [],
      "name": "maxAttesters",
      "outputs": [
        {
          "internalType": "uint256",
          "name": "",
          "type": "uint256"
        }
      ],
      "stateMutability": "view",
      "type": "function"
    },
    {
      "inputs": [],
      "name": "maxEpochKey",
      "outputs": [
        {
          "internalType": "uint256",
          "name": "",
          "type": "uint256"
        }
      ],
      "stateMutability": "view",
      "type": "function"
    },
    {
      "inputs": [],
      "name": "maxReputationBudget",
      "outputs": [
        {
          "internalType": "uint8",
          "name": "",
          "type": "uint8"
        }
      ],
      "stateMutability": "view",
      "type": "function"
    },
    {
      "inputs": [],
      "name": "maxUsers",
      "outputs": [
        {
          "internalType": "uint256",
          "name": "",
          "type": "uint256"
        }
      ],
      "stateMutability": "view",
      "type": "function"
    },
    {
      "inputs": [],
      "name": "nextAttesterId",
      "outputs": [
        {
          "internalType": "uint256",
          "name": "",
          "type": "uint256"
        }
      ],
      "stateMutability": "view",
      "type": "function"
    },
    {
      "inputs": [],
      "name": "numEpochKeyNoncePerEpoch",
      "outputs": [
        {
          "internalType": "uint8",
          "name": "",
          "type": "uint8"
        }
      ],
      "stateMutability": "view",
      "type": "function"
    },
    {
      "inputs": [],
      "name": "numUserSignUps",
      "outputs": [
        {
          "internalType": "uint256",
          "name": "",
          "type": "uint256"
        }
      ],
      "stateMutability": "view",
      "type": "function"
    },
    {
      "inputs": [
        {
          "internalType": "uint256",
          "name": "_outputBlindedUserState",
          "type": "uint256"
        },
        {
          "internalType": "uint256",
          "name": "_outputBlindedHashChain",
          "type": "uint256"
        },
        {
          "internalType": "uint256",
          "name": "_inputBlindedUserState",
          "type": "uint256"
        },
        {
          "internalType": "uint256[8]",
          "name": "_proof",
          "type": "uint256[8]"
        }
      ],
      "name": "processAttestations",
      "outputs": [],
      "stateMutability": "nonpayable",
      "type": "function"
    },
    {
      "inputs": [
        {
          "internalType": "uint256",
          "name": "_airdropAmount",
          "type": "uint256"
        }
      ],
      "name": "setAirdropAmount",
      "outputs": [],
      "stateMutability": "nonpayable",
      "type": "function"
    },
    {
      "inputs": [
        {
          "components": [
            {
              "internalType": "uint256[]",
              "name": "repNullifiers",
              "type": "uint256[]"
            },
            {
              "internalType": "uint256",
              "name": "epoch",
              "type": "uint256"
            },
            {
              "internalType": "uint256",
              "name": "epochKey",
              "type": "uint256"
            },
            {
              "internalType": "uint256",
              "name": "globalStateTree",
              "type": "uint256"
            },
            {
              "internalType": "uint256",
              "name": "attesterId",
              "type": "uint256"
            },
            {
              "internalType": "uint256",
              "name": "proveReputationAmount",
              "type": "uint256"
            },
            {
              "internalType": "uint256",
              "name": "minRep",
              "type": "uint256"
            },
            {
              "internalType": "uint256",
              "name": "proveGraffiti",
              "type": "uint256"
            },
            {
              "internalType": "uint256",
              "name": "graffitiPreImage",
              "type": "uint256"
            },
            {
              "internalType": "uint256[8]",
              "name": "proof",
              "type": "uint256[8]"
            }
          ],
          "internalType": "struct UnirepObjs.ReputationProof",
          "name": "_input",
          "type": "tuple"
        }
      ],
      "name": "spendReputation",
      "outputs": [],
      "stateMutability": "payable",
      "type": "function"
    },
    {
      "inputs": [
        {
          "internalType": "uint256",
          "name": "_blindedUserState",
          "type": "uint256"
        },
        {
          "internalType": "uint256",
          "name": "_blindedHashChain",
          "type": "uint256"
        },
        {
          "internalType": "uint256",
          "name": "_globalStateTree",
          "type": "uint256"
        },
        {
          "internalType": "uint256[8]",
          "name": "_proof",
          "type": "uint256[8]"
        }
      ],
      "name": "startUserStateTransition",
      "outputs": [],
      "stateMutability": "nonpayable",
      "type": "function"
    },
    {
      "inputs": [
        {
          "components": [
            {
              "internalType": "uint256",
              "name": "attesterId",
              "type": "uint256"
            },
            {
              "internalType": "uint256",
              "name": "posRep",
              "type": "uint256"
            },
            {
              "internalType": "uint256",
              "name": "negRep",
              "type": "uint256"
            },
            {
              "internalType": "uint256",
              "name": "graffiti",
              "type": "uint256"
            },
            {
              "internalType": "uint256",
              "name": "signUp",
              "type": "uint256"
            }
          ],
          "internalType": "struct UnirepObjs.Attestation",
          "name": "attestation",
          "type": "tuple"
        },
        {
          "internalType": "uint256",
          "name": "epochKey",
          "type": "uint256"
        },
        {
          "internalType": "uint256",
          "name": "toProofIndex",
          "type": "uint256"
        },
        {
          "internalType": "uint256",
          "name": "fromProofIndex",
          "type": "uint256"
        }
      ],
      "name": "submitAttestation",
      "outputs": [],
      "stateMutability": "payable",
      "type": "function"
    },
    {
      "inputs": [
        {
          "internalType": "address",
          "name": "attester",
          "type": "address"
        },
        {
          "internalType": "bytes",
          "name": "signature",
          "type": "bytes"
        },
        {
          "components": [
            {
              "internalType": "uint256",
              "name": "attesterId",
              "type": "uint256"
            },
            {
              "internalType": "uint256",
              "name": "posRep",
              "type": "uint256"
            },
            {
              "internalType": "uint256",
              "name": "negRep",
              "type": "uint256"
            },
            {
              "internalType": "uint256",
              "name": "graffiti",
              "type": "uint256"
            },
            {
              "internalType": "uint256",
              "name": "signUp",
              "type": "uint256"
            }
          ],
          "internalType": "struct UnirepObjs.Attestation",
          "name": "attestation",
          "type": "tuple"
        },
        {
          "internalType": "uint256",
          "name": "epochKey",
          "type": "uint256"
        },
        {
          "internalType": "uint256",
          "name": "toProofIndex",
          "type": "uint256"
        },
        {
          "internalType": "uint256",
          "name": "fromProofIndex",
          "type": "uint256"
        }
      ],
      "name": "submitAttestationViaRelayer",
      "outputs": [],
      "stateMutability": "payable",
      "type": "function"
    },
    {
      "inputs": [
        {
          "components": [
            {
              "internalType": "uint256",
              "name": "globalStateTree",
              "type": "uint256"
            },
            {
              "internalType": "uint256",
              "name": "epoch",
              "type": "uint256"
            },
            {
              "internalType": "uint256",
              "name": "epochKey",
              "type": "uint256"
            },
            {
              "internalType": "uint256[8]",
              "name": "proof",
              "type": "uint256[8]"
            }
          ],
          "internalType": "struct UnirepObjs.EpochKeyProof",
          "name": "_input",
          "type": "tuple"
        }
      ],
      "name": "submitEpochKeyProof",
      "outputs": [],
      "stateMutability": "nonpayable",
      "type": "function"
    },
    {
      "inputs": [],
      "name": "treeDepths",
      "outputs": [
        {
          "internalType": "uint8",
          "name": "globalStateTreeDepth",
          "type": "uint8"
        },
        {
          "internalType": "uint8",
          "name": "userStateTreeDepth",
          "type": "uint8"
        },
        {
          "internalType": "uint8",
          "name": "epochTreeDepth",
          "type": "uint8"
        }
      ],
      "stateMutability": "view",
      "type": "function"
    },
    {
      "inputs": [
        {
          "internalType": "uint256[8]",
          "name": "_proof",
          "type": "uint256[8]"
        }
      ],
      "name": "unpackProof",
      "outputs": [
        {
          "internalType": "uint256[2]",
          "name": "",
          "type": "uint256[2]"
        },
        {
          "internalType": "uint256[2][2]",
          "name": "",
          "type": "uint256[2][2]"
        },
        {
          "internalType": "uint256[2]",
          "name": "",
          "type": "uint256[2]"
        }
      ],
      "stateMutability": "pure",
      "type": "function"
    },
    {
      "inputs": [
        {
          "components": [
            {
              "internalType": "uint256",
              "name": "newGlobalStateTreeLeaf",
              "type": "uint256"
            },
            {
              "internalType": "uint256[]",
              "name": "epkNullifiers",
              "type": "uint256[]"
            },
            {
              "internalType": "uint256",
              "name": "transitionFromEpoch",
              "type": "uint256"
            },
            {
              "internalType": "uint256[]",
              "name": "blindedUserStates",
              "type": "uint256[]"
            },
            {
              "internalType": "uint256",
              "name": "fromGlobalStateTree",
              "type": "uint256"
            },
            {
              "internalType": "uint256[]",
              "name": "blindedHashChains",
              "type": "uint256[]"
            },
            {
              "internalType": "uint256",
              "name": "fromEpochTree",
              "type": "uint256"
            },
            {
              "internalType": "uint256[8]",
              "name": "proof",
              "type": "uint256[8]"
            }
          ],
          "internalType": "struct UnirepObjs.UserTransitionProof",
          "name": "_proof",
          "type": "tuple"
        },
        {
          "internalType": "uint256[]",
          "name": "proofIndexRecords",
          "type": "uint256[]"
        }
      ],
      "name": "updateUserStateRoot",
      "outputs": [],
      "stateMutability": "nonpayable",
      "type": "function"
    },
    {
      "inputs": [
        {
          "internalType": "uint256",
          "name": "_identityCommitment",
          "type": "uint256"
        }
      ],
      "name": "userSignUp",
      "outputs": [],
      "stateMutability": "nonpayable",
      "type": "function"
    },
    {
      "inputs": [
        {
          "components": [
            {
              "internalType": "uint256",
              "name": "globalStateTree",
              "type": "uint256"
            },
            {
              "internalType": "uint256",
              "name": "epoch",
              "type": "uint256"
            },
            {
              "internalType": "uint256",
              "name": "epochKey",
              "type": "uint256"
            },
            {
              "internalType": "uint256[8]",
              "name": "proof",
              "type": "uint256[8]"
            }
          ],
          "internalType": "struct UnirepObjs.EpochKeyProof",
          "name": "_input",
          "type": "tuple"
        }
      ],
      "name": "verifyEpochKeyValidity",
      "outputs": [
        {
          "internalType": "bool",
          "name": "",
          "type": "bool"
        }
      ],
      "stateMutability": "view",
      "type": "function"
    },
    {
      "inputs": [
        {
          "internalType": "uint256",
          "name": "_outputBlindedUserState",
          "type": "uint256"
        },
        {
          "internalType": "uint256",
          "name": "_outputBlindedHashChain",
          "type": "uint256"
        },
        {
          "internalType": "uint256",
          "name": "_inputBlindedUserState",
          "type": "uint256"
        },
        {
          "internalType": "uint256[8]",
          "name": "_proof",
          "type": "uint256[8]"
        }
      ],
      "name": "verifyProcessAttestationProof",
      "outputs": [
        {
          "internalType": "bool",
          "name": "",
          "type": "bool"
        }
      ],
      "stateMutability": "view",
      "type": "function"
    },
    {
      "inputs": [
        {
          "components": [
            {
              "internalType": "uint256[]",
              "name": "repNullifiers",
              "type": "uint256[]"
            },
            {
              "internalType": "uint256",
              "name": "epoch",
              "type": "uint256"
            },
            {
              "internalType": "uint256",
              "name": "epochKey",
              "type": "uint256"
            },
            {
              "internalType": "uint256",
              "name": "globalStateTree",
              "type": "uint256"
            },
            {
              "internalType": "uint256",
              "name": "attesterId",
              "type": "uint256"
            },
            {
              "internalType": "uint256",
              "name": "proveReputationAmount",
              "type": "uint256"
            },
            {
              "internalType": "uint256",
              "name": "minRep",
              "type": "uint256"
            },
            {
              "internalType": "uint256",
              "name": "proveGraffiti",
              "type": "uint256"
            },
            {
              "internalType": "uint256",
              "name": "graffitiPreImage",
              "type": "uint256"
            },
            {
              "internalType": "uint256[8]",
              "name": "proof",
              "type": "uint256[8]"
            }
          ],
          "internalType": "struct UnirepObjs.ReputationProof",
          "name": "_input",
          "type": "tuple"
        }
      ],
      "name": "verifyReputation",
      "outputs": [
        {
          "internalType": "bool",
          "name": "",
          "type": "bool"
        }
      ],
      "stateMutability": "view",
      "type": "function"
    },
    {
      "inputs": [
        {
          "internalType": "uint256",
          "name": "_blindedUserState",
          "type": "uint256"
        },
        {
          "internalType": "uint256",
          "name": "_blindedHashChain",
          "type": "uint256"
        },
        {
          "internalType": "uint256",
          "name": "_GSTRoot",
          "type": "uint256"
        },
        {
          "internalType": "uint256[8]",
          "name": "_proof",
          "type": "uint256[8]"
        }
      ],
      "name": "verifyStartTransitionProof",
      "outputs": [
        {
          "internalType": "bool",
          "name": "",
          "type": "bool"
        }
      ],
      "stateMutability": "view",
      "type": "function"
    },
    {
      "inputs": [
        {
          "components": [
            {
              "internalType": "uint256",
              "name": "epoch",
              "type": "uint256"
            },
            {
              "internalType": "uint256",
              "name": "epochKey",
              "type": "uint256"
            },
            {
              "internalType": "uint256",
              "name": "globalStateTree",
              "type": "uint256"
            },
            {
              "internalType": "uint256",
              "name": "attesterId",
              "type": "uint256"
            },
            {
              "internalType": "uint256",
              "name": "userHasSignedUp",
              "type": "uint256"
            },
            {
              "internalType": "uint256[8]",
              "name": "proof",
              "type": "uint256[8]"
            }
          ],
          "internalType": "struct UnirepObjs.SignUpProof",
          "name": "_input",
          "type": "tuple"
        }
      ],
      "name": "verifyUserSignUp",
      "outputs": [
        {
          "internalType": "bool",
          "name": "",
          "type": "bool"
        }
      ],
      "stateMutability": "view",
      "type": "function"
    },
    {
      "inputs": [
        {
          "components": [
            {
              "internalType": "uint256",
              "name": "newGlobalStateTreeLeaf",
              "type": "uint256"
            },
            {
              "internalType": "uint256[]",
              "name": "epkNullifiers",
              "type": "uint256[]"
            },
            {
              "internalType": "uint256",
              "name": "transitionFromEpoch",
              "type": "uint256"
            },
            {
              "internalType": "uint256[]",
              "name": "blindedUserStates",
              "type": "uint256[]"
            },
            {
              "internalType": "uint256",
              "name": "fromGlobalStateTree",
              "type": "uint256"
            },
            {
              "internalType": "uint256[]",
              "name": "blindedHashChains",
              "type": "uint256[]"
            },
            {
              "internalType": "uint256",
              "name": "fromEpochTree",
              "type": "uint256"
            },
            {
              "internalType": "uint256[8]",
              "name": "proof",
              "type": "uint256[8]"
            }
          ],
          "internalType": "struct UnirepObjs.UserTransitionProof",
          "name": "_input",
          "type": "tuple"
        }
      ],
      "name": "verifyUserStateTransition",
      "outputs": [
        {
          "internalType": "bool",
          "name": "",
          "type": "bool"
        }
      ],
      "stateMutability": "view",
      "type": "function"
    }
  ],
  "bytecode": "0x6101606040527f30644e72e131a029b85045b68181585d2833e84879b9709143e1f593f0000001620000336101806200049d565b6040516020818303038152906040528051906020012060001c620000589190620006bf565b600055600160075560006009556001600a5560016010553480156200007c57600080fd5b50604051620052a1380380620052a18339810160408190526200009f9162000373565b8b601260008201518160000160006101000a81548160ff021916908360ff16021790555060208201518160000160016101000a81548160ff021916908360ff16021790555060408201518160000160026101000a81548160ff021916908360ff16021790555090505089600160006101000a8154816001600160a01b0302191690836001600160a01b0316021790555088600260006101000a8154816001600160a01b0302191690836001600160a01b0316021790555087600360006101000a8154816001600160a01b0302191690836001600160a01b0316021790555086600460006101000a8154816001600160a01b0302191690836001600160a01b0316021790555085600560006101000a8154816001600160a01b0302191690836001600160a01b0316021790555084600660006101000a8154816001600160a01b0302191690836001600160a01b031602179055508360ff1660c08160ff1660f81b815250508260ff1660e08160ff1660f81b81525050816080818152505042600881905550600060018d6000015160026200023a9190620005ad565b620002469190620006a5565b9050808c600001511115620002785760405162461bcd60e51b81526004016200026f90620004af565b60405180910390fd5b8b516101005260208d015160009060019062000296906002620005ad565b620002a29190620006a5565b9050808d602001511115620002cb5760405162461bcd60e51b81526004016200026f90620004e6565b60208d01516101205260408e0151600190620002e9906002620005ad565b620002f59190620006a5565b60a05250506101405250620006f69950505050505050505050565b80516001600160a01b03811681146200032857600080fd5b919050565b6000604082840312156200033f578081fd5b6200034b604062000528565b9050815181526020820151602082015292915050565b805160ff811681146200032857600080fd5b6000806000806000806000806000806000808c8e036101e081121562000397578889fd5b6060811215620003a5578889fd5b50620003b2606062000528565b620003bd8e62000361565b8152620003cd60208f0162000361565b6020820152620003e060408f0162000361565b60408201529b50620003f68e60608f016200032d565b9a506200040660a08e0162000310565b99506200041660c08e0162000310565b98506200042660e08e0162000310565b9750620004376101008e0162000310565b9650620004486101208e0162000310565b9550620004596101408e0162000310565b94506200046a6101608e0162000361565b93506200047b6101808e0162000361565b92506101a08d015191506101c08d015190509295989b509295989b509295989b565b650556e697265760d41b815260060190565b6020808252601e908201527f556e697265703a20696e76616c6964206d617855736572732076616c75650000604082015260600190565b60208082526022908201527f556e697265703a20696e76616c6964206d61784174746573746572732076616c604082015261756560f01b606082015260800190565b6040518181016001600160401b03811182821017156200055857634e487b7160e01b600052604160045260246000fd5b604052919050565b80825b6001808611620005745750620005a4565b818704821115620005895762000589620006e0565b808616156200059757918102915b9490941c93800262000563565b94509492505050565b6000620005c160001960ff851684620005c8565b9392505050565b600082620005d957506001620005c1565b81620005e857506000620005c1565b81600181146200060157600281146200060c5762000640565b6001915050620005c1565b60ff841115620006205762000620620006e0565b6001841b915084821115620006395762000639620006e0565b50620005c1565b5060208310610133831016604e8410600b841016171562000678575081810a83811115620006725762000672620006e0565b620005c1565b62000687848484600162000560565b8086048211156200069c576200069c620006e0565b02949350505050565b600082821015620006ba57620006ba620006e0565b500390565b600082620006db57634e487b7160e01b81526012600452602481fd5b500690565b634e487b7160e01b600052601160045260246000fd5b60805160a05160c05160f81c60e05160f81c610100516101205161014051614a5c620008456000396000818161088f0152818161148b01528181611c9401528181611daf01526128c2015260008181611159015281816123830152612cde015260008181610bcc0152612b720152600081816114cf01528181611796015281816118380152818161188e015281816118eb01528181611948015281816119a501528181611a0201528181611a5f01528181611abd0152612a06015260008181610f1001528181610f7c01528181611dd901528181611e9501528181611f4801528181611fcb01528181612053015281816120b50152818161210d0152818161216c015281816121eb01526126a801526000818161093801528181611565015281816116b701528181611d3d0152818161231d01526129230152600081816111c30152612a710152614a5c6000f3fe60806040526004361061027d5760003560e01c806398588c1f1161014f578063b876ed71116100c1578063e1b0e8021161007a578063e1b0e802146106f5578063e79e23e91461070a578063e87101b11461072a578063f5ab0dd61461073f578063f73c8ebb1461076e578063fadd942d1461078e5761027d565b8063b876ed7114610658578063bff3df4114610678578063c26396731461068b578063cd5032e2146106a0578063d3aa645b146106c0578063de723886146106e05761027d565b8063a710d60f11610113578063a710d60f1461059d578063a7c264ca146105bd578063a7ebaa75146105df578063ac98e5df146105f4578063ad944e4714610618578063b530dc8c146106385761027d565b806398588c1f146105085780639e2e79dc14610528578063a14a9fe214610548578063a27e572a14610568578063a5500c301461057d5761027d565b806357d775f8116101f357806376671808116101ac578063766718081461047f578063839beeb81461049457806386826c4d146104a95780638728f5b2146104c95780639109d1eb146104de578063918f0c16146104f35761027d565b806357d775f8146103e45780635b3745b5146103f9578063606736fb1461041957806366c0f31f1461042c5780636e85e8141461044c5780636fbbdb361461046c5761027d565b80631e06fc01116102455780631e06fc011461033a578063410a14041461034f578063417b16e31461036f578063456bfc711461038f578063494e2171146103af57806356df4634146103cf5761027d565b806305d9ab821461028257806307d83308146102b8578063131a91ad146102cd578063132331f2146102ed5780631c89e8e81461030d575b600080fd5b34801561028e57600080fd5b506102a261029d366004613707565b6107a3565b6040516102af9190613cc8565b60405180910390f35b3480156102c457600080fd5b506102a26107ea565b3480156102d957600080fd5b506102a26102e8366004613520565b6107f0565b3480156102f957600080fd5b506102a2610308366004613647565b610802565b34801561031957600080fd5b5061032d610328366004613647565b610814565b6040516102af9190613cbd565b61034d61034836600461365f565b610829565b005b34801561035b57600080fd5b5061032d61036a366004613707565b6109a9565b34801561037b57600080fd5b5061034d61038a366004613647565b610b9b565b34801561039b57600080fd5b5061032d6103aa366004613847565b610cbb565b3480156103bb57600080fd5b5061034d6103ca3660046138f7565b610eaf565b3480156103db57600080fd5b5061034d61112a565b3480156103f057600080fd5b506102a26111c1565b34801561040557600080fd5b5061032d610414366004613957565b6111e5565b61034d610427366004613771565b6113f1565b34801561043857600080fd5b5061034d610447366004613707565b611656565b34801561045857600080fd5b5061032d610467366004613771565b611769565b61034d61047a36600461358a565b611be5565b34801561048b57600080fd5b506102a2611da7565b3480156104a057600080fd5b506102a2611dad565b3480156104b557600080fd5b5061032d6104c43660046138c5565b611dd1565b3480156104d557600080fd5b506102a261231b565b3480156104ea57600080fd5b506102a261233f565b3480156104ff57600080fd5b506102a2612345565b34801561051457600080fd5b5061034d61052336600461353a565b61234b565b34801561053457600080fd5b506102a261054336600461399c565b61242d565b34801561055457600080fd5b506102a26105633660046138c5565b612466565b34801561057457600080fd5b5061034d6124a0565b34801561058957600080fd5b5061034d610598366004613647565b6124c2565b3480156105a957600080fd5b5061032d6105b8366004613957565b612500565b3480156105c957600080fd5b506105d26126a6565b6040516102af9190614879565b3480156105eb57600080fd5b5061034d6126ca565b34801561060057600080fd5b506106096126df565b6040516102af93929190614887565b34801561062457600080fd5b506102a2610633366004613771565b6126fb565b34801561064457600080fd5b506102a2610653366004613520565b612741565b34801561066457600080fd5b5061034d610673366004613957565b612753565b61034d610686366004613847565b612828565b34801561069757600080fd5b506105d2612a04565b3480156106ac57600080fd5b506102a26106bb366004613847565b612a28565b3480156106cc57600080fd5b506102a26106db366004613520565b612a58565b3480156106ec57600080fd5b5061034d612a6a565b34801561070157600080fd5b506102a2612b70565b34801561071657600080fd5b506102a2610725366004613957565b612b94565b34801561073657600080fd5b506102a2612bad565b34801561074b57600080fd5b5061075f61075a36600461360b565b612bb3565b6040516102af93929190613c4d565b34801561077a57600080fd5b5061034d610789366004613957565b612c3c565b34801561079a57600080fd5b506102a2612cdc565b600081600001518260200151836040015184606001516040516020016107cc9493929190613be9565b6040516020818303038152906040528051906020012090505b919050565b600d5481565b600f6020526000908152604090205481565b600b6020526000908152604090205481565b600c6020526000908152604090205460ff1681565b336000908152600f602052604090205461085e5760405162461bcd60e51b815260040161085590613f93565b60405180910390fd5b336000908152600f602052604090205484351461088d5760405162461bcd60e51b815260040161085590614500565b7f000000000000000000000000000000000000000000000000000000000000000034146108cc5760405162461bcd60e51b815260040161085590614047565b81158015906108dc5750600a5482105b80156108e95750600a5481105b6109055760405162461bcd60e51b815260040161085590614487565b6080840135158061091a575083608001356001145b6109365760405162461bcd60e51b815260040161085590614010565b7f00000000000000000000000000000000000000000000000000000000000000008311156109765760405162461bcd60e51b8152600401610855906145dc565b600d546109839034612d00565b600d556109a33361099936879003870187613699565b8585856000612d13565b50505050565b60408051600380825260808201909252600091829190602082016060803683370190505090508260000151816000815181106109f557634e487b7160e01b600052603260045260246000fd5b602002602001018181525050826020015181600181518110610a2757634e487b7160e01b600052603260045260246000fd5b602002602001018181525050826040015181600281518110610a5957634e487b7160e01b600052603260045260246000fd5b60200260200101818152505060005b81518160ff161015610add57600080516020614a07833981519152828260ff1681518110610aa657634e487b7160e01b600052603260045260246000fd5b602002602001015110610acb5760405162461bcd60e51b815260040161085590614537565b80610ad581614984565b915050610a68565b50610ae6613238565b610af38460600151612bb3565b60408085018290526020850183905283855260015490516361971b8760e11b81526001600160a01b039091169363c32e370e93610b399391929091908890600401613c76565b60206040518083038186803b158015610b5157600080fd5b505afa158015610b65573d6000803e3d6000fd5b505050506040513d601f19601f82011682018060405250810190610b899190613627565b15156060909101819052915050919050565b6000818152600c602052604090205460ff1615610bca5760405162461bcd60e51b8152600401610855906143f3565b7f000000000000000000000000000000000000000000000000000000000000000060095410610c0b5760405162461bcd60e51b815260040161085590614439565b336000908152600f60209081526040808320546011835281842054858552600c909352908320805460ff19166001179055600980549193610c4b83614969565b91905055506007546000805160206149e78339815191526000604051610c719190613d4b565b60405180910390a2826007547faf92f92b28945d280b51131bc986d2da66b560950f1a5126f12b7f847dae8f7d8484604051610cae929190614847565b60405180910390a3505050565b60408051600580825260c082019092526000918291906020820160a080368337019050509050826000015181600081518110610d0757634e487b7160e01b600052603260045260246000fd5b602002602001018181525050826020015181600181518110610d3957634e487b7160e01b600052603260045260246000fd5b602002602001018181525050826040015181600281518110610d6b57634e487b7160e01b600052603260045260246000fd5b602002602001018181525050826060015181600381518110610d9d57634e487b7160e01b600052603260045260246000fd5b602002602001018181525050826080015181600481518110610dcf57634e487b7160e01b600052603260045260246000fd5b60200260200101818152505060005b81518160ff161015610e5357600080516020614a07833981519152828260ff1681518110610e1c57634e487b7160e01b600052603260045260246000fd5b602002602001015110610e415760405162461bcd60e51b815260040161085590614537565b80610e4b81614984565b915050610dde565b50610e5c613238565b610e698460a00151612bb3565b60408085018290526020850183905283855260065490516361971b8760e11b81526001600160a01b039091169363c32e370e93610b399391929091908890600401613c76565b6000610eba83612466565b6000818152600b602052604090205490915015610ee95760405162461bcd60e51b815260040161085590613de2565b600754836040015110610f0e5760405162461bcd60e51b815260040161085590614264565b7f000000000000000000000000000000000000000000000000000000000000000060ff1683602001515114610f555760405162461bcd60e51b815260040161085590614594565b826060015151600214610f7a5760405162461bcd60e51b815260040161085590613efc565b7f000000000000000000000000000000000000000000000000000000000000000060ff168360a001515114610fc15760405162461bcd60e51b815260040161085590614322565b60005b825181101561105b57828181518110610fed57634e487b7160e01b600052603260045260246000fd5b602002602001015160001415801561102d5750600a5483828151811061102357634e487b7160e01b600052603260045260246000fd5b6020026020010151105b6110495760405162461bcd60e51b815260040161085590614487565b8061105381614969565b915050610fc4565b50600a546007546040516000805160206149e78339815191529061108190600190613d4b565b60405180910390a2807f5b552a9df44a1ab5bbe960f96fe04b35454baded1ca53c89d13903661cf9fee185856040516110bb929190614776565b60405180910390a283516007546040517f5e4945fc83b420d245560b51ac02c824732652e0552b5d8537800db0c690a663906110f8908590613cc8565b60405180910390a36000828152600b60205260408120829055600a80549161111f83614969565b919050555050505050565b336000908152600f6020526040902054156111575760405162461bcd60e51b815260040161085590613d9c565b7f0000000000000000000000000000000000000000000000000000000000000000601054106111985760405162461bcd60e51b8152600401610855906142d0565b60108054336000908152600f602052604081208290559091906111ba83614969565b9190505550565b7f000000000000000000000000000000000000000000000000000000000000000081565b6040805160038082526080820190925260009182919060208201606080368337019050509050858160008151811061122d57634e487b7160e01b600052603260045260246000fd5b602002602001018181525050848160018151811061125b57634e487b7160e01b600052603260045260246000fd5b602002602001018181525050838160028151811061128957634e487b7160e01b600052603260045260246000fd5b60200260200101818152505060005b81518160ff16101561130d57600080516020614a07833981519152828260ff16815181106112d657634e487b7160e01b600052603260045260246000fd5b6020026020010151106112fb5760405162461bcd60e51b815260040161085590614537565b8061130581614984565b915050611298565b50611316613238565b604080516101008181019092526113459186906008908390839080828437600092019190915250612bb3915050565b60408085018290526020850183905283855260025490516361971b8760e11b81526001600160a01b039091169363c32e370e9361138b9391929091908890600401613c76565b60206040518083038186803b1580156113a357600080fd5b505afa1580156113b7573d6000803e3d6000fd5b505050506040513d601f19601f820116820180604052508101906113db9190613627565b151560609091018190529150505b949350505050565b60006113fc826126fb565b6000818152600b60205260409020549091501561142b5760405162461bcd60e51b815260040161085590613de2565b336000908152600f60205260409020546114575760405162461bcd60e51b815260040161085590613f93565b6080820151336000908152600f6020526040902054146114895760405162461bcd60e51b815260040161085590614500565b7f000000000000000000000000000000000000000000000000000000000000000034146114c85760405162461bcd60e51b815260040161085590614047565b81515160ff7f0000000000000000000000000000000000000000000000000000000000000000161461150c5760405162461bcd60e51b8152600401610855906141bf565b6007548260200151146115315760405162461bcd60e51b815260040161085590614093565b6080820151336000908152600f6020526040902054146115635760405162461bcd60e51b815260040161085590614613565b7f0000000000000000000000000000000000000000000000000000000000000000826040015111156115a75760405162461bcd60e51b8152600401610855906145dc565b600d546115b49034612d00565b600d556115bf613272565b336000908152600f60205260409081902054825260a084015182820152600a548482015160075492519192909183907fb2bf4a676a6a5ef7e686a52ccf9f83f83acb1cac5d2eef1e090206a688c7777e9061161b9089906146a2565b60405180910390a4611637338386604001518460006002612d13565b6000838152600b60205260408120829055600a80549161111f83614969565b6000611661826107a3565b6000818152600b6020526040902054909150156116905760405162461bcd60e51b815260040161085590613de2565b6007548260200151146116b55760405162461bcd60e51b81526004016108559061420e565b7f0000000000000000000000000000000000000000000000000000000000000000826040015111156116f95760405162461bcd60e51b8152600401610855906145dc565b6000600a5490508260400151600754827ff897f63ef79d1e56ab9f314e1e74d030bcd34a4f0d09ed2834f1efeebf9a4ed9866040516117389190614668565b60405180910390a46000828152600b60205260408120829055600a80549161175f83614969565b9190505550505050565b6040805160128082526102608201909252600091829190602082016102408036833701905050905060005b7f000000000000000000000000000000000000000000000000000000000000000060ff168160ff16101561182f578351805160ff83169081106117e757634e487b7160e01b600052603260045260246000fd5b6020026020010151828260ff168151811061181257634e487b7160e01b600052603260045260246000fd5b60209081029190910101528061182781614984565b915050611794565b508260200151817f000000000000000000000000000000000000000000000000000000000000000060ff168151811061187857634e487b7160e01b600052603260045260246000fd5b60209081029190910101526040830151816118b47f000000000000000000000000000000000000000000000000000000000000000060016148e5565b60ff16815181106118d557634e487b7160e01b600052603260045260246000fd5b60209081029190910101526060830151816119117f000000000000000000000000000000000000000000000000000000000000000060026148e5565b60ff168151811061193257634e487b7160e01b600052603260045260246000fd5b602090810291909101015260808301518161196e7f000000000000000000000000000000000000000000000000000000000000000060036148e5565b60ff168151811061198f57634e487b7160e01b600052603260045260246000fd5b602090810291909101015260a0830151816119cb7f000000000000000000000000000000000000000000000000000000000000000060046148e5565b60ff16815181106119ec57634e487b7160e01b600052603260045260246000fd5b602090810291909101015260c083015181611a287f000000000000000000000000000000000000000000000000000000000000000060056148e5565b60ff1681518110611a4957634e487b7160e01b600052603260045260246000fd5b602090810291909101015260e083015181611a857f000000000000000000000000000000000000000000000000000000000000000060066148e5565b60ff1681518110611aa657634e487b7160e01b600052603260045260246000fd5b602090810291909101015261010083015181611ae37f000000000000000000000000000000000000000000000000000000000000000060076148e5565b60ff1681518110611b0457634e487b7160e01b600052603260045260246000fd5b60200260200101818152505060005b81518160ff161015611b8857600080516020614a07833981519152828260ff1681518110611b5157634e487b7160e01b600052603260045260246000fd5b602002602001015110611b765760405162461bcd60e51b815260040161085590614537565b80611b8081614984565b915050611b13565b50611b91613238565b611b9f846101200151612bb3565b60408085018290526020850183905283855260055490516361971b8760e11b81526001600160a01b039091169363c32e370e93610b399391929091908890600401613c76565b611c258787878080601f016020809104026020016040519081016040528093929190818152602001838380828437600092019190915250612e2292505050565b6001600160a01b0387166000908152600f6020526040902054611c5a5760405162461bcd60e51b815260040161085590613f93565b6001600160a01b0387166000908152600f6020526040902054843514611c925760405162461bcd60e51b815260040161085590614500565b7f00000000000000000000000000000000000000000000000000000000000000003414611cd15760405162461bcd60e51b815260040161085590614047565b8115801590611ce15750600a5482105b8015611cee5750600a5481105b611d0a5760405162461bcd60e51b815260040161085590614487565b60808401351580611d1f575083608001356001145b611d3b5760405162461bcd60e51b815260040161085590614010565b7f0000000000000000000000000000000000000000000000000000000000000000831115611d7b5760405162461bcd60e51b8152600401610855906145dc565b600d54611d889034612d00565b600d55611d9e8761099936879003870187613699565b50505050505050565b60075481565b7f000000000000000000000000000000000000000000000000000000000000000081565b600080611dff7f00000000000000000000000000000000000000000000000000000000000000006002614929565b611e0a9060066148e5565b60ff166001600160401b03811115611e3257634e487b7160e01b600052604160045260246000fd5b604051908082528060200260200182016040528015611e5b578160200160208202803683370190505b509050826000015181600081518110611e8457634e487b7160e01b600052603260045260246000fd5b60200260200101818152505060005b7f000000000000000000000000000000000000000000000000000000000000000060ff168160ff161015611f3c5783602001518160ff1681518110611ee857634e487b7160e01b600052603260045260246000fd5b602002602001015182826001611efe91906148e5565b60ff1681518110611f1f57634e487b7160e01b600052603260045260246000fd5b602090810291909101015280611f3481614984565b915050611e93565b50604083015181611f6e7f000000000000000000000000000000000000000000000000000000000000000060016148e5565b60ff1681518110611f8f57634e487b7160e01b600052603260045260246000fd5b6020026020010181815250508260600151600081518110611fc057634e487b7160e01b600052603260045260246000fd5b6020026020010151817f00000000000000000000000000000000000000000000000000000000000000006002611ff691906148e5565b60ff168151811061201757634e487b7160e01b600052603260045260246000fd5b602002602001018181525050826060015160018151811061204857634e487b7160e01b600052603260045260246000fd5b6020026020010151817f0000000000000000000000000000000000000000000000000000000000000000600361207e91906148e5565b60ff168151811061209f57634e487b7160e01b600052603260045260246000fd5b60209081029190910101526080830151816120db7f000000000000000000000000000000000000000000000000000000000000000060046148e5565b60ff16815181106120fc57634e487b7160e01b600052603260045260246000fd5b60200260200101818152505060005b7f000000000000000000000000000000000000000000000000000000000000000060ff168160ff1610156121df578360a001518160ff168151811061216057634e487b7160e01b600052603260045260246000fd5b602002602001015182827f0000000000000000000000000000000000000000000000000000000000000000600561219791906148e5565b6121a191906148e5565b60ff16815181106121c257634e487b7160e01b600052603260045260246000fd5b6020908102919091010152806121d781614984565b91505061210b565b5060c0830151816122117f00000000000000000000000000000000000000000000000000000000000000006002614929565b61221c9060056148e5565b60ff168151811061223d57634e487b7160e01b600052603260045260246000fd5b60200260200101818152505060005b81518160ff1610156122c157600080516020614a07833981519152828260ff168151811061228a57634e487b7160e01b600052603260045260246000fd5b6020026020010151106122af5760405162461bcd60e51b815260040161085590614537565b806122b981614984565b91505061224c565b506122ca613238565b6122d78460e00151612bb3565b6040808501829052602085018390528385526004805491516361971b8760e11b81526001600160a01b039092169463c32e370e94610b399491939092899101613c76565b7f000000000000000000000000000000000000000000000000000000000000000081565b60105481565b60095481565b6001600160a01b0383166000908152600f6020526040902054156123815760405162461bcd60e51b815260040161085590613d9c565b7f0000000000000000000000000000000000000000000000000000000000000000601054106123c25760405162461bcd60e51b8152600401610855906142d0565b6124028383838080601f016020809104026020016040519081016040528093929190818152602001838380828437600092019190915250612e2292505050565b601080546001600160a01b0385166000908152600f6020526040812082905590919061175f83614969565b6000848484846040516020016124469493929190613be9565b604051602081830303815290604052805190602001209050949350505050565b80516020808301516040808501516060860151608087015160a088015160c089015160e08a015195516000996107cc999098979101613b65565b336000818152600e602052604081208054919055906124bf9082612eb4565b50565b336000908152600f60205260409020546124ee5760405162461bcd60e51b815260040161085590613f93565b33600090815260116020526040902055565b6040805160038082526080820190925260009182919060208201606080368337019050509050858160008151811061254857634e487b7160e01b600052603260045260246000fd5b602002602001018181525050848160018151811061257657634e487b7160e01b600052603260045260246000fd5b60200260200101818152505083816002815181106125a457634e487b7160e01b600052603260045260246000fd5b60200260200101818152505060005b81518160ff16101561262857600080516020614a07833981519152828260ff16815181106125f157634e487b7160e01b600052603260045260246000fd5b6020026020010151106126165760405162461bcd60e51b815260040161085590614537565b8061262081614984565b9150506125b3565b50612631613238565b604080516101008181019092526126609186906008908390839080828437600092019190915250612bb3915050565b60408085018290526020850183905283855260035490516361971b8760e11b81526001600160a01b039091169363c32e370e9361138b9391929091908890600401613c76565b7f000000000000000000000000000000000000000000000000000000000000000081565b600d8054600091829055906124bf9082612eb4565b60125460ff808216916101008104821691620100009091041683565b80516020808301516040808501516060860151608087015160a088015160c089015160e08a01516101008b01516101208c0151975160009b6107cc9b909a999101613ad6565b60116020526000908152604090205481565b600061278a85858585600880602002604051908101604052809291908260086020028082843760009201919091525061242d915050565b6000818152600b6020526040902054909150156127b95760405162461bcd60e51b815260040161085590613de2565b6000600a5490508386827fc70a0250765c7e3a778b8771883540e979ac92fa4002835744533497db87064688876040516127f492919061482b565b60405180910390a46000828152600b60205260408120829055600a80549161281b83614969565b9190505550505050505050565b600061283382612a28565b6000818152600b6020526040902054909150156128625760405162461bcd60e51b815260040161085590613de2565b336000908152600f602052604090205461288e5760405162461bcd60e51b815260040161085590613f93565b6060820151336000908152600f6020526040902054146128c05760405162461bcd60e51b815260040161085590614500565b7f000000000000000000000000000000000000000000000000000000000000000034146128ff5760405162461bcd60e51b815260040161085590614047565b6007548251146129215760405162461bcd60e51b815260040161085590613ea8565b7f0000000000000000000000000000000000000000000000000000000000000000826020015111156129655760405162461bcd60e51b8152600401610855906145dc565b600d546129729034612d00565b600d5561297d613272565b336000818152600f602090815260408083205485529282526011815290829020548382015260016080840152600a549085015160075492519192909183907f58b1080086db5bb58e2e8e2f28dc2a26b705277257655e9296c7ebfcfb817136906129e890899061472f565b60405180910390a4611637338386602001518460006001612d13565b7f000000000000000000000000000000000000000000000000000000000000000081565b80516020808301516040808501516060860151608087015160a088015193516000976107cc979096959101613c14565b600e6020526000908152604090205481565b60005a90507f000000000000000000000000000000000000000000000000000000000000000060085442612a9e9190614952565b1015612abc5760405162461bcd60e51b815260040161085590613fd9565b6007546000805160206149e78339815191526003604051612add9190613d4b565b60405180910390a26007546040517f751bb1ba7b27b3979a32844d4d05aa16a46a771b751593704834a80311e3a9b990600090a24260085560078054906000612b2583614969565b91905055506000612b375a8390612f50565b9050612b5c612b46823a612f5c565b336000908152600e602052604090205490612d00565b336000908152600e60205260409020555050565b7f000000000000000000000000000000000000000000000000000000000000000081565b6000848484846040516020016124469493929190613bbd565b60085481565b612bbb6132a1565b612bc36132bf565b612bcb6132a1565b50506040805180820182528351815260208085015181830152825160808082018552868501518286019081526060808901519084015282528451808601865290870151815260a08701518184015281830152835180850190945260c0860151845260e0909501519083015293909150565b6000612c4a85858585612b94565b6000818152600b602052604090205490915015612c795760405162461bcd60e51b815260040161085590613de2565b6000600a54905083817ff32686467e2fc0ec47df070bcf076510ff790a7ec36e2c65de53ce0d17906b69888887604051612cb593929190614855565b60405180910390a36000828152600b60205260408120829055600a80549161281b83614969565b7f000000000000000000000000000000000000000000000000000000000000000081565b6000612d0c82846148cd565b9392505050565b600080516020614a07833981519152856020015110612d445760405162461bcd60e51b81526004016108559061436f565b600080516020614a07833981519152856040015110612d755760405162461bcd60e51b8152600401610855906144be565b600080516020614a07833981519152856060015110612da65760405162461bcd60e51b815260040161085590613e64565b6007546000805160206149e78339815191526002604051612dc79190613d4b565b60405180910390a2856001600160a01b0316846007547f59baeb298d5f1f7ee5d41668cb8169a0d0b7fff584ab2e311fd1f2de985cda2084898888604051612e129493929190613cef565b60405180910390a4505050505050565b60008230604051602001612e37929190613aaf565b60405160208183030381529060405280519060200120604051602001612e5d9190613b31565b604051602081830303815290604052805190602001209050826001600160a01b0316612e898284612f68565b6001600160a01b031614612eaf5760405162461bcd60e51b815260040161085590613f49565b505050565b80471015612ed45760405162461bcd60e51b815260040161085590614188565b6000826001600160a01b031682604051612eed90613b62565b60006040518083038185875af1925050503d8060008114612f2a576040519150601f19603f3d011682016040523d82523d6000602084013e612f2f565b606091505b5050905080612eaf5760405162461bcd60e51b8152600401610855906140e9565b6000612d0c8284614952565b6000612d0c828461490a565b6000806000612f778585612f8c565b91509150612f8481612ffc565b509392505050565b600080825160411415612fc35760208301516040840151606085015160001a612fb787828585613129565b94509450505050612ff5565b825160401415612fed5760208301516040840151612fe2868383613209565b935093505050612ff5565b506000905060025b9250929050565b600081600481111561301e57634e487b7160e01b600052602160045260246000fd5b1415613029576124bf565b600181600481111561304b57634e487b7160e01b600052602160045260246000fd5b14156130695760405162461bcd60e51b815260040161085590613d65565b600281600481111561308b57634e487b7160e01b600052602160045260246000fd5b14156130a95760405162461bcd60e51b815260040161085590613e2d565b60038160048111156130cb57634e487b7160e01b600052602160045260246000fd5b14156130e95760405162461bcd60e51b815260040161085590614146565b600481600481111561310b57634e487b7160e01b600052602160045260246000fd5b14156124bf5760405162461bcd60e51b8152600401610855906143b1565b6000807f7fffffffffffffffffffffffffffffff5d576e7357a4501ddfe92f46681b20a08311156131605750600090506003613200565b8460ff16601b1415801561317857508460ff16601c14155b156131895750600090506004613200565b6000600187878787604051600081526020016040526040516131ae9493929190613cd1565b6020604051602081039080840390855afa1580156131d0573d6000803e3d6000fd5b5050604051601f1901519150506001600160a01b0381166131f957600060019250925050613200565b9150600090505b94509492505050565b6000806001600160ff1b03831660ff84901c601b0161322a87828885613129565b935093505050935093915050565b604051806080016040528061324b6132a1565b81526020016132586132bf565b81526020016132656132a1565b8152600060209091015290565b6040518060a0016040528060008152602001600081526020016000815260200160008152602001600081525090565b60405180604001604052806002906020820280368337509192915050565b60405180604001604052806002905b6132d66132a1565b8152602001906001900390816132ce5790505090565b80356001600160a01b03811681146107e557600080fd5b600082601f830112613313578081fd5b6040516101008082018281106001600160401b0382111715613337576133376149d0565b604052818482810187101561334a578485fd5b8492505b600883101561336e5780358252600192909201916020918201910161334e565b509195945050505050565b600082601f830112613389578081fd5b813560206001600160401b038211156133a4576133a46149d0565b8082026133b28282016148a4565b8381528281019086840183880185018910156133cc578687fd5b8693505b858410156133ee5780358352600193909301929184019184016133d0565b50979650505050505050565b60008083601f84011261340b578182fd5b5081356001600160401b03811115613421578182fd5b602083019150836020828501011115612ff557600080fd5b600060a0828403121561344a578081fd5b50919050565b60006101e08284031215613462578081fd5b61346d6101006148a4565b90508135815260208201356001600160401b038082111561348d57600080fd5b61349985838601613379565b60208401526040840135604084015260608401359150808211156134bc57600080fd5b6134c885838601613379565b60608401526080840135608084015260a08401359150808211156134eb57600080fd5b506134f884828501613379565b60a08301525060c082013560c08201526135158360e08401613303565b60e082015292915050565b600060208284031215613531578081fd5b612d0c826132ec565b60008060006040848603121561354e578182fd5b613557846132ec565b925060208401356001600160401b03811115613571578283fd5b61357d868287016133fa565b9497909650939450505050565b6000806000806000806000610140888a0312156135a5578283fd5b6135ae886132ec565b965060208801356001600160401b038111156135c8578384fd5b6135d48a828b016133fa565b90975095506135e890508960408a01613439565b9699959850939660e0810135956101008201359550610120909101359350915050565b6000610100828403121561361d578081fd5b612d0c8383613303565b600060208284031215613638578081fd5b81518015158114612d0c578182fd5b600060208284031215613658578081fd5b5035919050565b6000806000806101008587031215613675578182fd5b61367f8686613439565b9660a0860135965060c08601359560e00135945092505050565b600060a082840312156136aa578081fd5b60405160a081018181106001600160401b03821117156136cc576136cc6149d0565b806040525082358152602083013560208201526040830135604082015260608301356060820152608083013560808201528091505092915050565b60006101608284031215613719578081fd5b604051608081018181106001600160401b038211171561373b5761373b6149d0565b80604052508235815260208301356020820152604083013560408201526137658460608501613303565b60608201529392505050565b600060208284031215613782578081fd5b81356001600160401b0380821115613798578283fd5b9083019061022082860312156137ac578283fd5b6137b76101406148a4565b8235828111156137c5578485fd5b6137d187828601613379565b8252506020830135602082015260408301356040820152606083013560608201526080830135608082015260a083013560a082015260c083013560c082015260e083013560e082015261010091508183013582820152610120915061383886838501613303565b91810191909152949350505050565b60006101a08284031215613859578081fd5b60405160c081018181106001600160401b038211171561387b5761387b6149d0565b806040525082358152602083013560208201526040830135604082015260608301356060820152608083013560808201526138b98460a08501613303565b60a08201529392505050565b6000602082840312156138d6578081fd5b81356001600160401b038111156138eb578182fd5b6113e984828501613450565b60008060408385031215613909578182fd5b82356001600160401b038082111561391f578384fd5b61392b86838701613450565b93506020850135915080821115613940578283fd5b5061394d85828601613379565b9150509250929050565b60008060008061016080868803121561396e578283fd5b85359450602086013593506040860135925086818701111561398e578182fd5b509295919450926060019150565b60008060008061016085870312156139b2578182fd5b8435935060208501359250604085013591506139d18660608701613303565b905092959194509250565b8060005b60028110156109a3576139f4848351613a0a565b60409390930192602091909101906001016139e0565b8060005b60028110156109a3578151845260209384019390910190600101613a0e565b8060005b60088110156109a3578151845260209384019390910190600101613a31565b6000815180845260208085019450808401835b83811015613a7f57815187529582019590820190600101613a63565b509495945050505050565b80516000906020808401838315613a7f57815187529582019590820190600101613a63565b6bffffffffffffffffffffffff19606093841b811682529190921b16601482015260280190565b6000613ae2828d613a8a565b8b81528a60208201528960408201528860608201528760808201528660a08201528560c08201528460e0820152613b1d610100820185613a2d565b610200019c9b505050505050505050505050565b7f19457468657265756d205369676e6564204d6573736167653a0a3332000000008152601c810191909152603c0190565b90565b6000898252613b77602083018a613a8a565b888152613b876020820189613a8a565b9050868152613b996020820187613a8a565b9050848152613bab6020820185613a2d565b610120019a9950505050505050505050565b600085825284602083015283604083015261010083606084013761016091909101908152949350505050565b6000858252846020830152836040830152613c076060830184613a2d565b5061016001949350505050565b6000878252866020830152856040830152846060830152836080830152613c3e60a0830184613a2d565b506101a0019695505050505050565b6101008101613c5c8286613a0a565b613c6960408301856139dc565b6113e960c0830184613a0a565b6000610120613c858388613a0a565b613c9260408401876139dc565b613c9f60c0840186613a0a565b80610100840152613cb281840185613a50565b979650505050505050565b901515815260200190565b90815260200190565b93845260ff9290921660208401526040830152606082015260800190565b610100810160038610613d0457613d046149ba565b85825284516020830152602085015160408301526040850151606083015260608501516080830152608085015160a08301528360c08301528260e083015295945050505050565b6020810160048310613d5f57613d5f6149ba565b91905290565b60208082526018908201527f45434453413a20696e76616c6964207369676e61747572650000000000000000604082015260600190565b60208082526026908201527f556e697265703a2061747465737465722068617320616c72656164792073696760408201526506e65642075760d41b606082015260800190565b6020808252602b908201527f556e697265703a207468652070726f6f6620686173206265656e207375626d6960408201526a74746564206265666f726560a81b606082015260800190565b6020808252601f908201527f45434453413a20696e76616c6964207369676e6174757265206c656e67746800604082015260600190565b60208082526024908201527f556e697265703a20696e76616c6964206174746573746174696f6e20677261666040820152636669746960e01b606082015260800190565b60208082526034908201527f556e697265703a207375626d697420616e2061697264726f702070726f6f66206040820152730eed2e8d040d2dcc6dee4e4cac6e840cae0dec6d60631b606082015260800190565b6020808252602d908201527f556e697265703a20696e76616c6964206e756d626572206f6620626c696e646560408201526c6420757365722073746174657360981b606082015260800190565b6020808252602a908201527f556e697265703a20696e76616c6964206174746573746572207369676e207570604082015269207369676e617475726560b01b606082015260800190565b60208082526026908201527f556e697265703a20617474657374657220686173206e6f74207369676e6564206040820152651d5c081e595d60d21b606082015260800190565b6020808252601b908201527f556e697265703a2065706f6368206e6f742079657420656e6465640000000000604082015260600190565b6020808252601c908201527f556e697265703a20696e76616c6964207369676e20757020666c616700000000604082015260600190565b6020808252602c908201527f556e697265703a206e6f20617474657374696e6720666565206f7220696e636f60408201526b1c9c9958dd08185b5bdd5b9d60a21b606082015260800190565b60208082526036908201527f556e697265703a207375626d697420612072657075746174696f6e2070726f6f6040820152750cc40eed2e8d040d2dcc6dee4e4cac6e840cae0dec6d60531b606082015260800190565b6020808252603a908201527f416464726573733a20756e61626c6520746f2073656e642076616c75652c207260408201527f6563697069656e74206d61792068617665207265766572746564000000000000606082015260800190565b60208082526022908201527f45434453413a20696e76616c6964207369676e6174757265202773272076616c604082015261756560f01b606082015260800190565b6020808252601d908201527f416464726573733a20696e73756666696369656e742062616c616e6365000000604082015260600190565b6020808252602f908201527f556e697265703a20696e76616c6964206e756d626572206f662072657075746160408201526e74696f6e206e756c6c69666965727360881b606082015260800190565b60208082526036908201527f556e697265703a207375626d697420616e2065706f6368206b65792070726f6f6040820152750cc40eed2e8d040d2dcc6dee4e4cac6e840cae0dec6d60531b606082015260800190565b60208082526046908201527f43616e206e6f74207472616e736974696f6e2066726f6d2065706f636820746860408201527f617427732067726561746572206f7220657175616c20746f2063757272656e74606082015265040cae0dec6d60d31b608082015260a00190565b60208082526032908201527f556e697265703a206d6178696d756d206e756d626572206f6620617474657374604082015271195c881cda59db9d5c1cc81c995858da195960721b606082015260800190565b6020808252602d908201527f556e697265703a20696e76616c6964206e756d626572206f6620626c696e646560408201526c64206861736820636861696e7360981b606082015260800190565b60208082526022908201527f556e697265703a20696e76616c6964206174746573746174696f6e20706f7352604082015261065760f41b606082015260800190565b60208082526022908201527f45434453413a20696e76616c6964207369676e6174757265202776272076616c604082015261756560f01b606082015260800190565b60208082526026908201527f556e697265703a2074686520757365722068617320616c72656164792073696760408201526506e65642075760d41b606082015260800190565b6020808252602e908201527f556e697265703a206d6178696d756d206e756d626572206f662075736572207360408201526d1a59db9d5c1cc81c995858da195960921b606082015260800190565b6020808252601b908201527f556e697265703a20696e76616c69642070726f6f6620696e6465780000000000604082015260600190565b60208082526022908201527f556e697265703a20696e76616c6964206174746573746174696f6e206e656752604082015261065760f41b606082015260800190565b6020808252601d908201527f556e697265703a206d69736d6174636865642061747465737465724964000000604082015260600190565b6020808252603c908201527f556e697265703a2065616368207075626c6963207369676e616c206d7573742060408201527f6265206c742074686520736e61726b207363616c6172206669656c6400000000606082015260800190565b60208082526028908201527f556e697265703a20696e76616c6964206e756d626572206f662065706b206e756040820152676c6c69666965727360c01b606082015260800190565b6020808252601f908201527f556e697265703a20696e76616c69642065706f6368206b65792072616e676500604082015260600190565b60208082526035908201527f556e697265703a20696e636f727265637420617474657374657220494420696e604082015274103a3432903932b83aba30ba34b7b710383937b7b360591b606082015260800190565b600061016082019050825182526020830151602083015260408301516040830152606083015161469b6060840182613a2d565b5092915050565b600060208252825161022060208401526146c0610240840182613a50565b9050602084015160408401526040840151606084015260608401516080840152608084015160a084015260a084015160c084015260c084015160e084015260e0840151610100818186015280860151915050610120818186015280860151915050612f84610140850182613a2d565b60006101a082019050825182526020830151602083015260408301516040830152606083015160608301526080830151608083015260a083015161469b60a0840182613a2d565b6000604082528351604083015260208401516101e0606084015261479e610220840182613a50565b9050604085015160808401526060850151603f19808584030160a08601526147c68383613a50565b9250608087015160c086015260a08701519150808584030160e0860152506147ee8282613a50565b91505060c085015161010084015260e085015161480f610120850182613a2d565b5082810360208401526148228185613a50565b95945050505050565b8281526101208101610100836020840137600081529392505050565b918252602082015260400190565b83815260208101839052610140810161010083604084013760008152949350505050565b60ff91909116815260200190565b60ff93841681529183166020830152909116604082015260600190565b6040518181016001600160401b03811182821017156148c5576148c56149d0565b604052919050565b600082198211156148e0576148e06149a4565b500190565b600060ff821660ff84168060ff03821115614902576149026149a4565b019392505050565b6000816000190483118215151615614924576149246149a4565b500290565b600060ff821660ff84168160ff048111821515161561494a5761494a6149a4565b029392505050565b600082821015614964576149646149a4565b500390565b600060001982141561497d5761497d6149a4565b5060010190565b600060ff821660ff81141561499b5761499b6149a4565b60010192915050565b634e487b7160e01b600052601160045260246000fd5b634e487b7160e01b600052602160045260246000fd5b634e487b7160e01b600052604160045260246000fdfea3019980c7e9844ee00c3f7584f329ac6dae8bcc2e08a756cf9651c8d2e96a6d30644e72e131a029b85045b68181585d2833e84879b9709143e1f593f0000001a26469706673582212207afb87fdd5aadf5a77d8419e5239078f602765c87817f6b1e98907a0335fb4b764736f6c63430008000033",
  "linkReferences": {},
  "deployedLinkReferences": {}
}