{
  "_format": "hh-sol-artifact-1",
  "contractName": "Hasher",
  "sourceName": "contracts/Hasher.sol",
  "abi": [
    {
      "inputs": [
        {
          "components": [
            {
              "internalType": "uint256",
              "name": "globalStateTree",
              "type": "uint256"
            },
            {
              "internalType": "uint256",
              "name": "epoch",
              "type": "uint256"
            },
            {
              "internalType": "uint256",
              "name": "epochKey",
              "type": "uint256"
            },
            {
              "internalType": "uint256[8]",
              "name": "proof",
              "type": "uint256[8]"
            }
          ],
          "internalType": "struct UnirepObjs.EpochKeyProof",
          "name": "_input",
          "type": "tuple"
        }
      ],
      "name": "hashEpochKeyProof",
      "outputs": [
        {
          "internalType": "bytes32",
          "name": "",
          "type": "bytes32"
        }
      ],
      "stateMutability": "pure",
      "type": "function"
    },
    {
      "inputs": [
        {
          "internalType": "uint256",
          "name": "_outputBlindedUserState",
          "type": "uint256"
        },
        {
          "internalType": "uint256",
          "name": "_outputBlindedHashChain",
          "type": "uint256"
        },
        {
          "internalType": "uint256",
          "name": "_inputBlindedUserState",
          "type": "uint256"
        },
        {
          "internalType": "uint256[8]",
          "name": "_proof",
          "type": "uint256[8]"
        }
      ],
      "name": "hashProcessAttestationsProof",
      "outputs": [
        {
          "internalType": "bytes32",
          "name": "",
          "type": "bytes32"
        }
      ],
      "stateMutability": "pure",
      "type": "function"
    },
    {
      "inputs": [
        {
          "components": [
            {
              "internalType": "uint256[]",
              "name": "repNullifiers",
              "type": "uint256[]"
            },
            {
              "internalType": "uint256",
              "name": "epoch",
              "type": "uint256"
            },
            {
              "internalType": "uint256",
              "name": "epochKey",
              "type": "uint256"
            },
            {
              "internalType": "uint256",
              "name": "globalStateTree",
              "type": "uint256"
            },
            {
              "internalType": "uint256",
              "name": "attesterId",
              "type": "uint256"
            },
            {
              "internalType": "uint256",
              "name": "proveReputationAmount",
              "type": "uint256"
            },
            {
              "internalType": "uint256",
              "name": "minRep",
              "type": "uint256"
            },
            {
              "internalType": "uint256",
              "name": "proveGraffiti",
              "type": "uint256"
            },
            {
              "internalType": "uint256",
              "name": "graffitiPreImage",
              "type": "uint256"
            },
            {
              "internalType": "uint256[8]",
              "name": "proof",
              "type": "uint256[8]"
            }
          ],
          "internalType": "struct UnirepObjs.ReputationProof",
          "name": "_input",
          "type": "tuple"
        }
      ],
      "name": "hashReputationProof",
      "outputs": [
        {
          "internalType": "bytes32",
          "name": "",
          "type": "bytes32"
        }
      ],
      "stateMutability": "pure",
      "type": "function"
    },
    {
      "inputs": [
        {
          "components": [
            {
              "internalType": "uint256",
              "name": "epoch",
              "type": "uint256"
            },
            {
              "internalType": "uint256",
              "name": "epochKey",
              "type": "uint256"
            },
            {
              "internalType": "uint256",
              "name": "globalStateTree",
              "type": "uint256"
            },
            {
              "internalType": "uint256",
              "name": "attesterId",
              "type": "uint256"
            },
            {
              "internalType": "uint256",
              "name": "userHasSignedUp",
              "type": "uint256"
            },
            {
              "internalType": "uint256[8]",
              "name": "proof",
              "type": "uint256[8]"
            }
          ],
          "internalType": "struct UnirepObjs.SignUpProof",
          "name": "_input",
          "type": "tuple"
        }
      ],
      "name": "hashSignUpProof",
      "outputs": [
        {
          "internalType": "bytes32",
          "name": "",
          "type": "bytes32"
        }
      ],
      "stateMutability": "pure",
      "type": "function"
    },
    {
      "inputs": [
        {
          "internalType": "uint256",
          "name": "_blindedUserState",
          "type": "uint256"
        },
        {
          "internalType": "uint256",
          "name": "_blindedHashChain",
          "type": "uint256"
        },
        {
          "internalType": "uint256",
          "name": "_globalStateTree",
          "type": "uint256"
        },
        {
          "internalType": "uint256[8]",
          "name": "_proof",
          "type": "uint256[8]"
        }
      ],
      "name": "hashStartTransitionProof",
      "outputs": [
        {
          "internalType": "bytes32",
          "name": "",
          "type": "bytes32"
        }
      ],
      "stateMutability": "pure",
      "type": "function"
    },
    {
      "inputs": [
        {
          "components": [
            {
              "internalType": "uint256",
              "name": "newGlobalStateTreeLeaf",
              "type": "uint256"
            },
            {
              "internalType": "uint256[]",
              "name": "epkNullifiers",
              "type": "uint256[]"
            },
            {
              "internalType": "uint256",
              "name": "transitionFromEpoch",
              "type": "uint256"
            },
            {
              "internalType": "uint256[]",
              "name": "blindedUserStates",
              "type": "uint256[]"
            },
            {
              "internalType": "uint256",
              "name": "fromGlobalStateTree",
              "type": "uint256"
            },
            {
              "internalType": "uint256[]",
              "name": "blindedHashChains",
              "type": "uint256[]"
            },
            {
              "internalType": "uint256",
              "name": "fromEpochTree",
              "type": "uint256"
            },
            {
              "internalType": "uint256[8]",
              "name": "proof",
              "type": "uint256[8]"
            }
          ],
          "internalType": "struct UnirepObjs.UserTransitionProof",
          "name": "_input",
          "type": "tuple"
        }
      ],
      "name": "hashUserStateTransitionProof",
      "outputs": [
        {
          "internalType": "bytes32",
          "name": "",
          "type": "bytes32"
        }
      ],
      "stateMutability": "pure",
      "type": "function"
    }
  ],
  "bytecode": "0x608060405234801561001057600080fd5b50610880806100206000396000f3fe608060405234801561001057600080fd5b50600436106100625760003560e01c806305d9ab82146100675780639e2e79dc14610090578063a14a9fe2146100a3578063ad944e47146100b6578063cd5032e2146100c9578063e79e23e9146100dc575b600080fd5b61007a610075366004610330565b6100ef565b6040516100879190610801565b60405180910390f35b61007a61009e366004610623565b610135565b61007a6100b13660046104f1565b61016e565b61007a6100c436600461039b565b6101a8565b61007a6100d7366004610472565b6101ee565b61007a6100ea3660046105de565b61021e565b60008160000151826020015183604001518460600151604051602001610118949392919061079d565b604051602081830303815290604052805190602001209050919050565b60008484848460405160200161014e949392919061079d565b604051602081830303815290604052805190602001209050949350505050565b80516020808301516040808501516060860151608087015160a088015160c089015160e08a01519551600099610118999098979101610719565b80516020808301516040808501516060860151608087015160a088015160c089015160e08a01516101008b01516101208c0151975160009b6101189b909a9991016106be565b80516020808301516040808501516060860151608087015160a088015193516000976101189790969591016107c8565b60008484848460405160200161014e9493929190610771565b600082601f830112610247578081fd5b61010060405181810181811067ffffffffffffffff8211171561026c5761026c610834565b604052808483810187101561027f578485fd5b8493505b60088410156102a357803582526001939093019260209182019101610283565b509095945050505050565b600082601f8301126102be578081fd5b8135602067ffffffffffffffff8211156102da576102da610834565b8082026102e882820161080a565b838152828101908684018388018501891015610302578687fd5b8693505b85841015610324578035835260019390930192918401918401610306565b50979650505050505050565b60006101608284031215610342578081fd5b6040516080810181811067ffffffffffffffff8211171561036557610365610834565b806040525082358152602083013560208201526040830135604082015261038f8460608501610237565b60608201529392505050565b6000602082840312156103ac578081fd5b813567ffffffffffffffff808211156103c3578283fd5b9083019061022082860312156103d7578283fd5b6103e261014061080a565b8235828111156103f0578485fd5b6103fc878286016102ae565b8252506020830135602082015260408301356040820152606083013560608201526080830135608082015260a083013560a082015260c083013560c082015260e083013560e082015261010091508183013582820152610120915061046386838501610237565b91810191909152949350505050565b60006101a08284031215610484578081fd5b60405160c0810181811067ffffffffffffffff821117156104a7576104a7610834565b806040525082358152602083013560208201526040830135604082015260608301356060820152608083013560808201526104e58460a08501610237565b60a08201529392505050565b600060208284031215610502578081fd5b813567ffffffffffffffff80821115610519578283fd5b908301906101e0828603121561052d578283fd5b61053861010061080a565b8235815260208301358281111561054d578485fd5b610559878286016102ae565b6020830152506040830135604082015260608301358281111561057a578485fd5b610586878286016102ae565b6060830152506080830135608082015260a0830135828111156105a7578485fd5b6105b3878286016102ae565b60a08301525060c083013560c08201526105d08660e08501610237565b60e082015295945050505050565b6000806000806101608086880312156105f5578384fd5b853594506020860135935060408601359250868187011115610615578182fd5b509295919450926060019150565b6000806000806101608587031215610639578384fd5b8435935060208501359250604085013591506106588660608701610237565b905092959194509250565b8060005b6008811015610686578151845260209384019390910190600101610667565b50505050565b600081516020808401835b838110156106b357815187529582019590820190600101610697565b509495945050505050565b60006106ca828d61068c565b8b81528a60208201528960408201528860608201528760808201528660a08201528560c08201528460e0820152610705610100820185610663565b610200019c9b505050505050505050505050565b600089825261072b602083018a61068c565b88815261073b602082018961068c565b905086815261074d602082018761068c565b905084815261075f6020820185610663565b610120019a9950505050505050505050565b600085825284602083015283604083015261010083606084013761016091909101908152949350505050565b60008582528460208301528360408301526107bb6060830184610663565b5061016001949350505050565b60008782528660208301528560408301528460608301528360808301526107f260a0830184610663565b506101a0019695505050505050565b90815260200190565b60405181810167ffffffffffffffff8111828210171561082c5761082c610834565b604052919050565b634e487b7160e01b600052604160045260246000fdfea26469706673582212201c4c79c826e32abaff5f1f91f92d80fa0ca364133d928f0a7b7cfff9bdfa1d0c64736f6c63430008000033",
  "linkReferences": {},
  "deployedLinkReferences": {}
}